{
  "contractName": "BaseVoting",
  "abi": [
    {
      "constant": true,
      "inputs": [
        {
          "name": "account",
          "type": "address"
        }
      ],
      "name": "isOwner",
      "outputs": [
        {
          "name": "",
          "type": "bool"
        }
      ],
      "payable": false,
      "stateMutability": "view",
      "type": "function"
    },
    {
      "constant": true,
      "inputs": [
        {
          "name": "account",
          "type": "address"
        }
      ],
      "name": "isLockedGroup",
      "outputs": [
        {
          "name": "",
          "type": "bool"
        }
      ],
      "payable": false,
      "stateMutability": "view",
      "type": "function"
    },
    {
      "constant": true,
      "inputs": [
        {
          "name": "account",
          "type": "address"
        }
      ],
      "name": "isDeveloper",
      "outputs": [
        {
          "name": "",
          "type": "bool"
        }
      ],
      "payable": false,
      "stateMutability": "view",
      "type": "function"
    },
    {
      "constant": true,
      "inputs": [
        {
          "name": "",
          "type": "uint256"
        }
      ],
      "name": "locked_party_list",
      "outputs": [
        {
          "name": "",
          "type": "address"
        }
      ],
      "payable": false,
      "stateMutability": "view",
      "type": "function"
    },
    {
      "constant": true,
      "inputs": [
        {
          "name": "",
          "type": "uint256"
        }
      ],
      "name": "public_party_list",
      "outputs": [
        {
          "name": "",
          "type": "address"
        }
      ],
      "payable": false,
      "stateMutability": "view",
      "type": "function"
    },
    {
      "constant": true,
      "inputs": [],
      "name": "members",
      "outputs": [
        {
          "name": "",
          "type": "address"
        }
      ],
      "payable": false,
      "stateMutability": "view",
      "type": "function"
    },
    {
      "constant": true,
      "inputs": [
        {
          "name": "",
          "type": "address"
        }
      ],
      "name": "party_dict",
      "outputs": [
        {
          "name": "state",
          "type": "uint8"
        },
        {
          "name": "group",
          "type": "uint8"
        },
        {
          "name": "power",
          "type": "uint256"
        },
        {
          "name": "isReceivedIncentive",
          "type": "bool"
        }
      ],
      "payable": false,
      "stateMutability": "view",
      "type": "function"
    },
    {
      "constant": true,
      "inputs": [
        {
          "name": "",
          "type": "uint256"
        }
      ],
      "name": "party_list",
      "outputs": [
        {
          "name": "",
          "type": "address"
        }
      ],
      "payable": false,
      "stateMutability": "view",
      "type": "function"
    },
    {
      "inputs": [
        {
          "name": "_votingName",
          "type": "string"
        },
        {
          "name": "_tokenAddress",
          "type": "address"
        },
        {
          "name": "_fundAddress",
          "type": "address"
        },
        {
          "name": "_vestingTokensAddress",
          "type": "address"
        },
        {
          "name": "_membersAddress",
          "type": "address"
        }
      ],
      "payable": false,
      "stateMutability": "nonpayable",
      "type": "constructor"
    },
    {
      "anonymous": false,
      "inputs": [
        {
          "indexed": true,
          "name": "vote_account",
          "type": "address"
        },
        {
          "indexed": true,
          "name": "voting_name",
          "type": "string"
        },
        {
          "indexed": false,
          "name": "startTime",
          "type": "uint256"
        },
        {
          "indexed": false,
          "name": "endTime",
          "type": "uint256"
        }
      ],
      "name": "InitializeVote",
      "type": "event"
    },
    {
      "anonymous": false,
      "inputs": [
        {
          "indexed": true,
          "name": "opener",
          "type": "address"
        },
        {
          "indexed": false,
          "name": "open_time",
          "type": "uint256"
        }
      ],
      "name": "OpenVote",
      "type": "event"
    },
    {
      "anonymous": false,
      "inputs": [
        {
          "indexed": true,
          "name": "closer",
          "type": "address"
        },
        {
          "indexed": false,
          "name": "close_time",
          "type": "uint256"
        }
      ],
      "name": "CloseVote",
      "type": "event"
    },
    {
      "anonymous": false,
      "inputs": [
        {
          "indexed": true,
          "name": "finalizer",
          "type": "address"
        },
        {
          "indexed": false,
          "name": "finalize_time",
          "type": "uint256"
        }
      ],
      "name": "FinalizeVote",
      "type": "event"
    },
    {
      "anonymous": false,
      "inputs": [
        {
          "indexed": true,
          "name": "vote_account",
          "type": "address"
        },
        {
          "indexed": false,
          "name": "discard_time",
          "type": "uint256"
        }
      ],
      "name": "DiscardVote",
      "type": "event"
    },
    {
      "constant": true,
      "inputs": [],
      "name": "isActivated",
      "outputs": [
        {
          "name": "",
          "type": "bool"
        }
      ],
      "payable": false,
      "stateMutability": "view",
      "type": "function"
    },
    {
      "constant": true,
      "inputs": [],
      "name": "getName",
      "outputs": [
        {
          "name": "",
          "type": "string"
        }
      ],
      "payable": false,
      "stateMutability": "view",
      "type": "function"
    },
    {
      "constant": true,
      "inputs": [],
      "name": "getPublicPerc",
      "outputs": [
        {
          "name": "",
          "type": "uint256"
        }
      ],
      "payable": false,
      "stateMutability": "view",
      "type": "function"
    },
    {
      "constant": true,
      "inputs": [],
      "name": "getParticipatingPerc",
      "outputs": [
        {
          "name": "",
          "type": "uint256"
        }
      ],
      "payable": false,
      "stateMutability": "view",
      "type": "function"
    },
    {
      "constant": true,
      "inputs": [],
      "name": "getMinVotingPerc",
      "outputs": [
        {
          "name": "",
          "type": "uint256"
        }
      ],
      "payable": false,
      "stateMutability": "pure",
      "type": "function"
    },
    {
      "constant": true,
      "inputs": [],
      "name": "getTotalPower",
      "outputs": [
        {
          "name": "",
          "type": "uint256"
        }
      ],
      "payable": false,
      "stateMutability": "view",
      "type": "function"
    },
    {
      "constant": true,
      "inputs": [],
      "name": "getAgreePower",
      "outputs": [
        {
          "name": "",
          "type": "uint256"
        }
      ],
      "payable": false,
      "stateMutability": "view",
      "type": "function"
    },
    {
      "constant": true,
      "inputs": [],
      "name": "getDisagreePower",
      "outputs": [
        {
          "name": "",
          "type": "uint256"
        }
      ],
      "payable": false,
      "stateMutability": "view",
      "type": "function"
    },
    {
      "constant": true,
      "inputs": [],
      "name": "getParticipantPower",
      "outputs": [
        {
          "name": "",
          "type": "uint256"
        }
      ],
      "payable": false,
      "stateMutability": "view",
      "type": "function"
    },
    {
      "constant": true,
      "inputs": [],
      "name": "getAbsentPower",
      "outputs": [
        {
          "name": "",
          "type": "uint256"
        }
      ],
      "payable": false,
      "stateMutability": "view",
      "type": "function"
    },
    {
      "constant": true,
      "inputs": [],
      "name": "getAgreeCount",
      "outputs": [
        {
          "name": "",
          "type": "uint256"
        }
      ],
      "payable": false,
      "stateMutability": "view",
      "type": "function"
    },
    {
      "constant": true,
      "inputs": [],
      "name": "getDisagreeCount",
      "outputs": [
        {
          "name": "",
          "type": "uint256"
        }
      ],
      "payable": false,
      "stateMutability": "view",
      "type": "function"
    },
    {
      "constant": true,
      "inputs": [],
      "name": "getDiscardTime",
      "outputs": [
        {
          "name": "",
          "type": "uint256"
        }
      ],
      "payable": false,
      "stateMutability": "view",
      "type": "function"
    },
    {
      "constant": true,
      "inputs": [
        {
          "name": "account",
          "type": "address"
        }
      ],
      "name": "readPartyDict",
      "outputs": [
        {
          "name": "",
          "type": "uint8"
        },
        {
          "name": "",
          "type": "uint256"
        },
        {
          "name": "",
          "type": "bool"
        }
      ],
      "payable": false,
      "stateMutability": "view",
      "type": "function"
    },
    {
      "constant": false,
      "inputs": [
        {
          "name": "account",
          "type": "address"
        },
        {
          "name": "a",
          "type": "uint8"
        },
        {
          "name": "b",
          "type": "uint256"
        },
        {
          "name": "c",
          "type": "bool"
        }
      ],
      "name": "writePartyDict",
      "outputs": [
        {
          "name": "",
          "type": "bool"
        }
      ],
      "payable": false,
      "stateMutability": "nonpayable",
      "type": "function"
    },
    {
      "constant": false,
      "inputs": [
        {
          "name": "_term",
          "type": "uint256"
        }
      ],
      "name": "initializeVote",
      "outputs": [
        {
          "name": "",
          "type": "bool"
        }
      ],
      "payable": false,
      "stateMutability": "nonpayable",
      "type": "function"
    },
    {
      "constant": false,
      "inputs": [],
      "name": "openVote",
      "outputs": [
        {
          "name": "",
          "type": "bool"
        }
      ],
      "payable": false,
      "stateMutability": "nonpayable",
      "type": "function"
    },
    {
      "constant": false,
      "inputs": [],
      "name": "closeVote",
      "outputs": [
        {
          "name": "",
          "type": "bool"
        }
      ],
      "payable": false,
      "stateMutability": "nonpayable",
      "type": "function"
    },
    {
      "constant": false,
      "inputs": [],
      "name": "finalizeVote",
      "outputs": [
        {
          "name": "",
          "type": "bool"
        }
      ],
      "payable": false,
      "stateMutability": "nonpayable",
      "type": "function"
    },
    {
      "constant": false,
      "inputs": [],
      "name": "discard",
      "outputs": [
        {
          "name": "",
          "type": "bool"
        }
      ],
      "payable": false,
      "stateMutability": "nonpayable",
      "type": "function"
    },
    {
      "constant": false,
      "inputs": [
        {
          "name": "_agree",
          "type": "bool"
        }
      ],
      "name": "vote",
      "outputs": [
        {
          "name": "",
          "type": "bool"
        }
      ],
      "payable": false,
      "stateMutability": "nonpayable",
      "type": "function"
    },
    {
      "constant": false,
      "inputs": [],
      "name": "getBack",
      "outputs": [
        {
          "name": "",
          "type": "bool"
        }
      ],
      "payable": false,
      "stateMutability": "nonpayable",
      "type": "function"
    }
  ],
  "bytecode": "0x608060405260006009556000600a556000600b556000600c556001601160006101000a81548160ff0219169083151502179055503480156200004057600080fd5b5060405162002d1f38038062002d1f83398101806040528101908080518201929190602001805190602001909291908051906020019092919080519060200190929190805190602001909291905050508060008173ffffffffffffffffffffffffffffffffffffffff1614151515620000b857600080fd5b806000806101000a81548173ffffffffffffffffffffffffffffffffffffffff021916908373ffffffffffffffffffffffffffffffffffffffff16021790555050600073ffffffffffffffffffffffffffffffffffffffff168473ffffffffffffffffffffffffffffffffffffffff16141515156200013657600080fd5b600073ffffffffffffffffffffffffffffffffffffffff168373ffffffffffffffffffffffffffffffffffffffff16141515156200017357600080fd5b600073ffffffffffffffffffffffffffffffffffffffff168273ffffffffffffffffffffffffffffffffffffffff1614151515620001b057600080fd5b60008173ffffffffffffffffffffffffffffffffffffffff1614151515620001d757600080fd5b8460019080519060200190620001ef9291906200033f565b5083600260016101000a81548173ffffffffffffffffffffffffffffffffffffffff021916908373ffffffffffffffffffffffffffffffffffffffff16021790555082600360006101000a81548173ffffffffffffffffffffffffffffffffffffffff021916908373ffffffffffffffffffffffffffffffffffffffff16021790555081600460006101000a81548173ffffffffffffffffffffffffffffffffffffffff021916908373ffffffffffffffffffffffffffffffffffffffff1602179055506000600260006101000a81548160ff02191690836005811115620002d357fe5b021790555033600560006101000a81548173ffffffffffffffffffffffffffffffffffffffff021916908373ffffffffffffffffffffffffffffffffffffffff1602179055506001601160006101000a81548160ff0219169083151502179055505050505050620003ee565b828054600181600116156101000203166002900490600052602060002090601f016020900481019282601f106200038257805160ff1916838001178555620003b3565b82800160010185558215620003b3579182015b82811115620003b257825182559160200191906001019062000395565b5b509050620003c29190620003c6565b5090565b620003eb91905b80821115620003e7576000816000905550600101620003cd565b5090565b90565b61292180620003fe6000396000f300608060405260043610610180576000357c0100000000000000000000000000000000000000000000000000000000900463ffffffff168063149dbea61461018557806317d7de7c146101b05780632f54bf6e14610240578063329d33461461029b5780633797cd33146102ca57806339c2cf8e146102f55780633ba40c3f146103505780634a8c1fb41461037b5780634b9f5c98146103aa57806353976a26146103f157806354ef7f2d1461041c5780635eca4a701461044b578063717fa966146104a65780637c61e763146105135780637eae16261461053e5780638af73aaf1461056d5780639b44c04014610598578063ae127d2914610605578063aeba7d7614610630578063ba37ecf214610675578063bb702c8e146106a0578063bdd4d18d146106cf578063cf1829c314610726578063d107d8c2146107b2578063d7e4bcd8146107e1578063e2b002311461080c578063e417f7d314610879578063ef05c32a146108a4578063f102378e146108cf578063fef23ae71461094d575b600080fd5b34801561019157600080fd5b5061019a6109c4565b6040518082815260200191505060405180910390f35b3480156101bc57600080fd5b506101c56109ce565b6040518080602001828103825283818151815260200191508051906020019080838360005b838110156102055780820151818401526020810190506101ea565b50505050905090810190601f1680156102325780820380516001836020036101000a031916815260200191505b509250505060405180910390f35b34801561024c57600080fd5b50610281600480360381019080803573ffffffffffffffffffffffffffffffffffffffff169060200190929190505050610a70565b604051808215151515815260200191505060405180910390f35b3480156102a757600080fd5b506102b0610b67565b604051808215151515815260200191505060405180910390f35b3480156102d657600080fd5b506102df610d3c565b6040518082815260200191505060405180910390f35b34801561030157600080fd5b50610336600480360381019080803573ffffffffffffffffffffffffffffffffffffffff169060200190929190505050610e5d565b604051808215151515815260200191505060405180910390f35b34801561035c57600080fd5b50610365610f5d565b6040518082815260200191505060405180910390f35b34801561038757600080fd5b50610390610fe1565b604051808215151515815260200191505060405180910390f35b3480156103b657600080fd5b506103d7600480360381019080803515159060200190929190505050611011565b604051808215151515815260200191505060405180910390f35b3480156103fd57600080fd5b5061040661127f565b6040518082815260200191505060405180910390f35b34801561042857600080fd5b506104316114a6565b604051808215151515815260200191505060405180910390f35b34801561045757600080fd5b5061048c600480360381019080803573ffffffffffffffffffffffffffffffffffffffff16906020019092919050505061166a565b604051808215151515815260200191505060405180910390f35b3480156104b257600080fd5b506104d16004803603810190808035906020019092919050505061176a565b604051808273ffffffffffffffffffffffffffffffffffffffff1673ffffffffffffffffffffffffffffffffffffffff16815260200191505060405180910390f35b34801561051f57600080fd5b506105286117a8565b6040518082815260200191505060405180910390f35b34801561054a57600080fd5b506105536117dc565b604051808215151515815260200191505060405180910390f35b34801561057957600080fd5b50610582611ab8565b6040518082815260200191505060405180910390f35b3480156105a457600080fd5b506105c360048036038101908080359060200190929190505050611ac2565b604051808273ffffffffffffffffffffffffffffffffffffffff1673ffffffffffffffffffffffffffffffffffffffff16815260200191505060405180910390f35b34801561061157600080fd5b5061061a611b00565b6040518082815260200191505060405180910390f35b34801561063c57600080fd5b5061065b60048036038101908080359060200190929190505050611b0a565b604051808215151515815260200191505060405180910390f35b34801561068157600080fd5b5061068a611d7b565b6040518082815260200191505060405180910390f35b3480156106ac57600080fd5b506106b5611da3565b604051808215151515815260200191505060405180910390f35b3480156106db57600080fd5b506106e461204c565b604051808273ffffffffffffffffffffffffffffffffffffffff1673ffffffffffffffffffffffffffffffffffffffff16815260200191505060405180910390f35b34801561073257600080fd5b50610767600480360381019080803573ffffffffffffffffffffffffffffffffffffffff169060200190929190505050612071565b6040518085600281111561077757fe5b60ff16815260200184600181111561078b57fe5b60ff1681526020018381526020018215151515815260200194505050505060405180910390f35b3480156107be57600080fd5b506107c76120c8565b604051808215151515815260200191505060405180910390f35b3480156107ed57600080fd5b506107f661228b565b6040518082815260200191505060405180910390f35b34801561081857600080fd5b50610837600480360381019080803590602001909291905050506122a9565b604051808273ffffffffffffffffffffffffffffffffffffffff1673ffffffffffffffffffffffffffffffffffffffff16815260200191505060405180910390f35b34801561088557600080fd5b5061088e6122e7565b6040518082815260200191505060405180910390f35b3480156108b057600080fd5b506108b96122f1565b6040518082815260200191505060405180910390f35b3480156108db57600080fd5b50610933600480360381019080803573ffffffffffffffffffffffffffffffffffffffff169060200190929190803560ff1690602001909291908035906020019092919080351515906020019092919050505061249f565b604051808215151515815260200191505060405180910390f35b34801561095957600080fd5b5061098e600480360381019080803573ffffffffffffffffffffffffffffffffffffffff169060200190929190505050612697565b6040518084600281111561099e57fe5b60ff16815260200183815260200182151515158152602001935050505060405180910390f35b6000600954905090565b606060018054600181600116156101000203166002900480601f016020809104026020016040519081016040528092919081815260200182805460018160011615610100020316600290048015610a665780601f10610a3b57610100808354040283529160200191610a66565b820191906000526020600020905b815481529060010190602001808311610a4957829003601f168201915b5050505050905090565b60008060009054906101000a900473ffffffffffffffffffffffffffffffffffffffff1673ffffffffffffffffffffffffffffffffffffffff16638da5cb5b6040518163ffffffff167c0100000000000000000000000000000000000000000000000000000000028152600401602060405180830381600087803b158015610af757600080fd5b505af1158015610b0b573d6000803e3d6000fd5b505050506040513d6020811015610b2157600080fd5b810190808051906020019092919050505073ffffffffffffffffffffffffffffffffffffffff168273ffffffffffffffffffffffffffffffffffffffff16149050919050565b60006002806005811115610b7757fe5b600260009054906101000a900460ff166005811115610b9257fe5b141515610c07576040517f08c379a00000000000000000000000000000000000000000000000000000000081526004018080602001828103825260168152602001807f564f54455f504552494f44206e6f74206d617463682e0000000000000000000081525060200191505060405180910390fd5b601160009054906101000a900460ff161515610cb1576040517f08c379a00000000000000000000000000000000000000000000000000000000081526004018080602001828103825260268152602001807f7468697320726566756e6420766f74696e6720686173206265656e206469736381526020017f61726465642e000000000000000000000000000000000000000000000000000081525060400191505060405180910390fd5b6008544210151515610cc257600080fd5b6003600260006101000a81548160ff02191690836005811115610ce157fe5b02179055503373ffffffffffffffffffffffffffffffffffffffff167f2a8e842584d30c3c752c76e93de00b254ad52e894a74c6eb92653f13777f6cca426040518082815260200191505060405180910390a2600191505090565b600080610e276103e8610e196041600260019054906101000a900473ffffffffffffffffffffffffffffffffffffffff1673ffffffffffffffffffffffffffffffffffffffff166318160ddd6040518163ffffffff167c0100000000000000000000000000000000000000000000000000000000028152600401602060405180830381600087803b158015610dd057600080fd5b505af1158015610de4573d6000803e3d6000fd5b505050506040513d6020811015610dfa57600080fd5b810190808051906020019092919050505061278c90919063ffffffff16565b6127c790919063ffffffff16565b9050610e5781610e496103e8610e3b61228b565b61278c90919063ffffffff16565b6127c790919063ffffffff16565b91505090565b60008060009054906101000a900473ffffffffffffffffffffffffffffffffffffffff1673ffffffffffffffffffffffffffffffffffffffff166339c2cf8e836040518263ffffffff167c0100000000000000000000000000000000000000000000000000000000028152600401808273ffffffffffffffffffffffffffffffffffffffff1673ffffffffffffffffffffffffffffffffffffffff168152602001915050602060405180830381600087803b158015610f1b57600080fd5b505af1158015610f2f573d6000803e3d6000fd5b505050506040513d6020811015610f4557600080fd5b81019080805190602001909291905050509050919050565b60008060125414151515610fd9576040517f08c379a000000000000000000000000000000000000000000000000000000000815260040180806020018281038252601b8152602001807f7468697320766f7465206973206e6f74206469736361726465642e000000000081525060200191505060405180910390fd5b601254905090565b600060026005811115610ff057fe5b600260009054906101000a900460ff16600581111561100b57fe5b14905090565b6000601160009054906101000a900460ff1615156110bd576040517f08c379a00000000000000000000000000000000000000000000000000000000081526004018080602001828103825260268152602001807f7468697320726566756e6420766f74696e6720686173206265656e206469736381526020017f61726465642e000000000000000000000000000000000000000000000000000081525060400191505060405180910390fd5b6110c5610fe1565b15156110d057600080fd5b60003373ffffffffffffffffffffffffffffffffffffffff16141515156110f657600080fd5b6000600281111561110357fe5b600d60003373ffffffffffffffffffffffffffffffffffffffff1673ffffffffffffffffffffffffffffffffffffffff16815260200190815260200160002060000160009054906101000a900460ff16600281111561115e57fe5b14151561116a57600080fd5b81156111f5576001600d60003373ffffffffffffffffffffffffffffffffffffffff1673ffffffffffffffffffffffffffffffffffffffff16815260200190815260200160002060000160006101000a81548160ff021916908360028111156111cf57fe5b02179055506111ea6001600b546127e290919063ffffffff16565b600b81905550611276565b6002600d60003373ffffffffffffffffffffffffffffffffffffffff1673ffffffffffffffffffffffffffffffffffffffff16815260200190815260200160002060000160006101000a81548160ff0219169083600281111561125457fe5b021790555061126f6001600c546127e290919063ffffffff16565b600c819055505b60019050919050565b60008060006113866103e86113786112a96112986122f1565b6103e861280090919063ffffffff16565b600260019054906101000a900473ffffffffffffffffffffffffffffffffffffffff1673ffffffffffffffffffffffffffffffffffffffff166318160ddd6040518163ffffffff167c0100000000000000000000000000000000000000000000000000000000028152600401602060405180830381600087803b15801561132f57600080fd5b505af1158015611343573d6000803e3d6000fd5b505050506040513d602081101561135957600080fd5b810190808051906020019092919050505061278c90919063ffffffff16565b6127c790919063ffffffff16565b915061148a6103e861147c6102bc61146e61139f6122f1565b600260019054906101000a900473ffffffffffffffffffffffffffffffffffffffff1673ffffffffffffffffffffffffffffffffffffffff166318160ddd6040518163ffffffff167c0100000000000000000000000000000000000000000000000000000000028152600401602060405180830381600087803b15801561142557600080fd5b505af1158015611439573d6000803e3d6000fd5b505050506040513d602081101561144f57600080fd5b810190808051906020019092919050505061278c90919063ffffffff16565b61278c90919063ffffffff16565b6127c790919063ffffffff16565b905061149f81836127e290919063ffffffff16565b9250505090565b600060038060058111156114b657fe5b600260009054906101000a900460ff1660058111156114d157fe5b141515611546576040517f08c379a00000000000000000000000000000000000000000000000000000000081526004018080602001828103825260168152602001807f564f54455f504552494f44206e6f74206d617463682e0000000000000000000081525060200191505060405180910390fd5b601160009054906101000a900460ff1615156115f0576040517f08c379a00000000000000000000000000000000000000000000000000000000081526004018080602001828103825260268152602001807f7468697320726566756e6420766f74696e6720686173206265656e206469736381526020017f61726465642e000000000000000000000000000000000000000000000000000081525060400191505060405180910390fd5b6004600260006101000a81548160ff0219169083600581111561160f57fe5b02179055503373ffffffffffffffffffffffffffffffffffffffff167f7647aedaafa7f1b7392d18d7799845c386e257e2387a560f8aa9f7903d320261426040518082815260200191505060405180910390a2600191505090565b60008060009054906101000a900473ffffffffffffffffffffffffffffffffffffffff1673ffffffffffffffffffffffffffffffffffffffff16635eca4a70836040518263ffffffff167c0100000000000000000000000000000000000000000000000000000000028152600401808273ffffffffffffffffffffffffffffffffffffffff1673ffffffffffffffffffffffffffffffffffffffff168152602001915050602060405180830381600087803b15801561172857600080fd5b505af115801561173c573d6000803e3d6000fd5b505050506040513d602081101561175257600080fd5b81019080805190602001909291905050509050919050565b60108181548110151561177957fe5b906000526020600020016000915054906101000a900473ffffffffffffffffffffffffffffffffffffffff1681565b60008060008060008060329450605093506014925060509150601490506117d28585858585612819565b9550505050505090565b6000601160009054906101000a900460ff161515611888576040517f08c379a00000000000000000000000000000000000000000000000000000000081526004018080602001828103825260268152602001807f7468697320726566756e6420766f74696e6720686173206265656e206469736381526020017f61726465642e000000000000000000000000000000000000000000000000000081525060400191505060405180910390fd5b611890610fe1565b151561189b57600080fd5b60003373ffffffffffffffffffffffffffffffffffffffff16141515156118c157600080fd5b600160028111156118ce57fe5b600d60003373ffffffffffffffffffffffffffffffffffffffff1673ffffffffffffffffffffffffffffffffffffffff16815260200190815260200160002060000160009054906101000a900460ff16600281111561192957fe5b14156119b4576000600d60003373ffffffffffffffffffffffffffffffffffffffff1673ffffffffffffffffffffffffffffffffffffffff16815260200190815260200160002060000160006101000a81548160ff0219169083600281111561198e57fe5b02179055506119a96001600b5461280090919063ffffffff16565b600b81905550611ab0565b6002808111156119c057fe5b600d60003373ffffffffffffffffffffffffffffffffffffffff1673ffffffffffffffffffffffffffffffffffffffff16815260200190815260200160002060000160009054906101000a900460ff166002811115611a1b57fe5b1415611aa6576000600d60003373ffffffffffffffffffffffffffffffffffffffff1673ffffffffffffffffffffffffffffffffffffffff16815260200190815260200160002060000160006101000a81548160ff02191690836002811115611a8057fe5b0217905550611a9b6001600c5461280090919063ffffffff16565b600c81905550611aaf565b60009050611ab5565b5b600190505b90565b6000600a54905090565b600f81815481101515611ad157fe5b906000526020600020016000915054906101000a900473ffffffffffffffffffffffffffffffffffffffff1681565b6000600c54905090565b600080806005811115611b1957fe5b600260009054906101000a900460ff166005811115611b3457fe5b141515611ba9576040517f08c379a00000000000000000000000000000000000000000000000000000000081526004018080602001828103825260168152602001807f564f54455f504552494f44206e6f74206d617463682e0000000000000000000081525060200191505060405180910390fd5b601160009054906101000a900460ff161515611c53576040517f08c379a00000000000000000000000000000000000000000000000000000000081526004018080602001828103825260268152602001807f7468697320726566756e6420766f74696e6720686173206265656e206469736381526020017f61726465642e000000000000000000000000000000000000000000000000000081525060400191505060405180910390fd5b60003373ffffffffffffffffffffffffffffffffffffffff1614151515611c7957600080fd5b426007819055508242016008819055506001600260006101000a81548160ff02191690836005811115611ca857fe5b021790555060016040518082805460018160011615610100020316600290048015611d0a5780601f10611ce8576101008083540402835291820191611d0a565b820191906000526020600020905b815481529060010190602001808311611cf6575b505091505060405180910390203073ffffffffffffffffffffffffffffffffffffffff167f94b7d40ac167fe933cce8fd6393cb5ecd0702e01b177244062e37210b4baffd6600754600854604051808381526020018281526020019250505060405180910390a36001915050919050565b6000611d9e611d8861228b565b611d9061127f565b61280090919063ffffffff16565b905090565b6000600560009054906101000a900473ffffffffffffffffffffffffffffffffffffffff1660003373ffffffffffffffffffffffffffffffffffffffff1614151515611dee57600080fd5b8073ffffffffffffffffffffffffffffffffffffffff163373ffffffffffffffffffffffffffffffffffffffff16141515611e2857600080fd5b6004806005811115611e3657fe5b600260009054906101000a900460ff166005811115611e5157fe5b141515611ec6576040517f08c379a00000000000000000000000000000000000000000000000000000000081526004018080602001828103825260168152602001807f564f54455f504552494f44206e6f74206d617463682e0000000000000000000081525060200191505060405180910390fd5b601160009054906101000a900460ff161515611f70576040517f08c379a00000000000000000000000000000000000000000000000000000000081526004018080602001828103825260268152602001807f7468697320726566756e6420766f74696e6720686173206265656e206469736381526020017f61726465642e000000000000000000000000000000000000000000000000000081525060400191505060405180910390fd5b611f78612827565b1515611fec576040517f08c379a000000000000000000000000000000000000000000000000000000000815260040180806020018281038252601d8152602001807f63616e6e6f74206469736361726420746869732066756e6374696f6e2e00000081525060200191505060405180910390fd5b426012819055503073ffffffffffffffffffffffffffffffffffffffff167f0f2d38195efd4deae4057e612ef087b49fdeb25c734f8b89490b15df5c0c6d256012546040518082815260200191505060405180910390a260019250505090565b6000809054906101000a900473ffffffffffffffffffffffffffffffffffffffff1681565b600d6020528060005260406000206000915090508060000160009054906101000a900460ff16908060000160019054906101000a900460ff16908060010154908060020160009054906101000a900460ff16905084565b600060018060058111156120d857fe5b600260009054906101000a900460ff1660058111156120f357fe5b141515612168576040517f08c379a00000000000000000000000000000000000000000000000000000000081526004018080602001828103825260168152602001807f564f54455f504552494f44206e6f74206d617463682e0000000000000000000081525060200191505060405180910390fd5b601160009054906101000a900460ff161515612212576040517f08c379a00000000000000000000000000000000000000000000000000000000081526004018080602001828103825260268152602001807f7468697320726566756e6420766f74696e6720686173206265656e206469736381526020017f61726465642e000000000000000000000000000000000000000000000000000081525060400191505060405180910390fd5b60028060006101000a81548160ff0219169083600581111561223057fe5b02179055503373ffffffffffffffffffffffffffffffffffffffff167f222bd9ba4394dac689328faf99a19d1f846c37c44dfe8003e052565663db4cc3426040518082815260200191505060405180910390a2600191505090565b60006122a4600a546009546127e290919063ffffffff16565b905090565b600e818154811015156122b857fe5b906000526020600020016000915054906101000a900473ffffffffffffffffffffffffffffffffffffffff1681565b6000600b54905090565b600061249a600260019054906101000a900473ffffffffffffffffffffffffffffffffffffffff1673ffffffffffffffffffffffffffffffffffffffff166318160ddd6040518163ffffffff167c0100000000000000000000000000000000000000000000000000000000028152600401602060405180830381600087803b15801561237c57600080fd5b505af1158015612390573d6000803e3d6000fd5b505050506040513d60208110156123a657600080fd5b810190808051906020019092919050505061248c6103e8600360009054906101000a900473ffffffffffffffffffffffffffffffffffffffff1673ffffffffffffffffffffffffffffffffffffffff16635e84d7236040518163ffffffff167c0100000000000000000000000000000000000000000000000000000000028152600401602060405180830381600087803b15801561244357600080fd5b505af1158015612457573d6000803e3d6000fd5b505050506040513d602081101561246d57600080fd5b810190808051906020019092919050505061278c90919063ffffffff16565b6127c790919063ffffffff16565b905090565b6000601160009054906101000a900460ff16151561254b576040517f08c379a00000000000000000000000000000000000000000000000000000000081526004018080602001828103825260268152602001807f7468697320726566756e6420766f74696e6720686173206265656e206469736381526020017f61726465642e000000000000000000000000000000000000000000000000000081525060400191505060405180910390fd5b6000600281111561255857fe5b84600281111561256457fe5b1415156125cf5783600d60008773ffffffffffffffffffffffffffffffffffffffff1673ffffffffffffffffffffffffffffffffffffffff16815260200190815260200160002060000160006101000a81548160ff021916908360028111156125c957fe5b02179055505b6000831415156126215782600d60008773ffffffffffffffffffffffffffffffffffffffff1673ffffffffffffffffffffffffffffffffffffffff168152602001908152602001600020600101819055505b6000151582151514151561268b576001600d60008773ffffffffffffffffffffffffffffffffffffffff1673ffffffffffffffffffffffffffffffffffffffff16815260200190815260200160002060020160006101000a81548160ff0219169083151502179055505b60019050949350505050565b6000806000600d60008573ffffffffffffffffffffffffffffffffffffffff1673ffffffffffffffffffffffffffffffffffffffff16815260200190815260200160002060000160009054906101000a900460ff16600d60008673ffffffffffffffffffffffffffffffffffffffff1673ffffffffffffffffffffffffffffffffffffffff16815260200190815260200160002060010154600d60008773ffffffffffffffffffffffffffffffffffffffff1673ffffffffffffffffffffffffffffffffffffffff16815260200190815260200160002060020160009054906101000a900460ff169250925092509193909250565b60008060008414156127a157600091506127c0565b82840290508284828115156127b257fe5b041415156127bc57fe5b8091505b5092915050565b60008082848115156127d557fe5b0490508091505092915050565b60008082840190508381101515156127f657fe5b8091505092915050565b600082821115151561280e57fe5b818303905092915050565b600080905095945050505050565b6000601160009054906101000a900460ff1615156128d3576040517f08c379a00000000000000000000000000000000000000000000000000000000081526004018080602001828103825260268152602001807f7468697320726566756e6420766f74696e6720686173206265656e206469736381526020017f61726465642e000000000000000000000000000000000000000000000000000081525060400191505060405180910390fd5b6000601160006101000a81548160ff02191690831515021790555060019050905600a165627a7a72305820a73648a5042c1bdcd4bb4cdc5fd641e0d97c296151fd7f86df3ae49a55f539e70029",
  "source": "pragma solidity ^0.4.23;\n\nimport \"../token/ERC20.sol\";\nimport \"../fund/Fund.sol\";\nimport \"../lib/SafeMath.sol\";\nimport \"../lib/Param.sol\";\nimport \"../token/VestingTokens.sol\";\nimport \"../ownership/Ownable.sol\";\n\ncontract BaseVoting is Ownable, Param {\n    /*Library and Typedefs*/\n\n    enum VOTE_PERIOD {NONE, INITIALIZED, OPENED, CLOSED, FINALIZED, DISCARDED}\n    enum VOTE_STATE {NONE, AGREE, DISAGREE}\n    enum RESULT_STATE {NONE, PASSED, REJECTED}\n    enum GROUP {PUBLIC, LOCKED}\n\n    struct vote_receipt {\n        VOTE_STATE state;\n        GROUP group;\n        uint256 power;\n        bool isReceivedIncentive;\n    }\n\n    /* Global Variables */\n    string mVotingName;\n    VOTE_PERIOD mPeriod;\n    ERC20 mToken;\n    Fund mFund;\n    VestingTokens mVestingTokens;\n    address mFactoryAddress;\n\n    uint minVotePerc;\n\n    uint256 startTime;\n    uint256 endTime;\n    uint256 agree_power = 0; // real value is divided by 100(weight)\n    uint256 disagree_power = 0;\n    uint256 agree_count = 0;\n    uint256 disagree_count = 0;\n\n    mapping(address => vote_receipt) public party_dict;\n    address[] public party_list;\n    address[] public public_party_list; //withhold\n    address[] public locked_party_list; //withhold\n\n    bool isAvailable = true;\n    uint256 discardTime;\n\n    /* Events */\n    event InitializeVote(address indexed vote_account, string indexed voting_name, uint256 startTime, uint256 endTime);\n    event OpenVote(address indexed opener, uint256 open_time);\n    event CloseVote(address indexed closer, uint256 close_time);\n    event FinalizeVote(address indexed finalizer, uint256 finalize_time);\n    event DiscardVote(address indexed vote_account, uint256 discard_time);\n\n    /* Modifiers */\n    modifier period(VOTE_PERIOD p) {\n        require(mPeriod == p, \"VOTE_PERIOD not match.\");\n        _;\n    }\n\n    modifier onlyVotingFactory() {\n        require(msg.sender == mFactoryAddress);\n        _;\n    }\n\n    modifier available() {\n        require(isAvailable, \"this refund voting has been discarded.\");\n        _;\n    }\n\n    /* Constructor */\n    constructor(\n        string _votingName,\n        address _tokenAddress,\n        address _fundAddress,\n        address _vestingTokensAddress,\n        address _membersAddress\n        ) public\n        Ownable(_membersAddress) {\n            require(_tokenAddress != address(0));\n            require(_fundAddress != address(0));\n            require(_vestingTokensAddress != address(0));\n            require(_membersAddress != 0x0);\n\n            mVotingName = _votingName;\n            mToken = ERC20(_tokenAddress);\n            mFund = Fund(_fundAddress);\n            mVestingTokens = VestingTokens(_vestingTokensAddress);\n            mPeriod = VOTE_PERIOD.NONE;\n            mFactoryAddress = msg.sender; // It should be called by only VotingFactory\n            isAvailable = true;\n    }\n\n    /* View Function */\n    function isActivated() public view\n        returns(bool) {\n            return (mPeriod == VOTE_PERIOD.OPENED);\n    }\n\n    function getName() public view\n        returns(string) {\n            return mVotingName;\n    }\n    // getPublicPerc = p (the percent of developers' token)\n    function getPublicPerc() view public\n        returns(uint256) {\n            return mFund.publicSupply().mul(1000).div(mToken.totalSupply());\n    }\n\n    function getParticipatingPerc() view public\n        returns(uint256) {\n            uint256 total_token = mToken.totalSupply().mul(PUBLIC_TOKEN_PERC).div(1000);\n            return getParticipantPower().mul(1000).div(total_token);\n    }\n\n    function getMinVotingPerc() public pure\n        returns(uint256) {\n            //TODO: it is affected by the previous tap voting's participating rate.\n            //IMPORTANT\n            uint256 P_S=50;\n            uint256 p_M=80;\n            uint256 p_m=20;\n            uint256 N_M=80;\n            uint256 N_m=20;\n\n            return MIN_VOTE_PERCENT(P_S, p_M, p_m, N_M, N_m);\n    }\n\n    function getTotalPower() view public\n        returns(uint256) {\n            // totalSupply(1-p) + totalSupply*p*DEV_POWER, p is dev ratio\n            uint256 ret1 = mToken.totalSupply().mul(uint256(1000).sub(getPublicPerc())).div(1000);\n            uint256 ret2 = mToken.totalSupply().mul(getPublicPerc()).mul(DEV_POWER).div(1000);\n            return ret1.add(ret2);\n    }\n\n    function getAgreePower() view public\n        returns(uint256) {\n            return agree_power;\n    }\n\n    function getDisagreePower() view public\n        returns(uint256) {\n            return disagree_power;\n    }\n\n    function getParticipantPower() public view\n        returns(uint256) {\n            return agree_power.add(disagree_power);\n    }\n\n    function getAbsentPower() view public\n        returns(uint256) {\n            return getTotalPower().sub(getParticipantPower());\n    }\n\n    function getAgreeCount() public view\n        returns(uint256) {\n            return agree_count;\n    }\n\n    function getDisagreeCount() public view\n        returns(uint256) {\n            return disagree_count;\n    }\n\n    function getDiscardTime() public view\n        returns(uint256) {\n            require(discardTime != uint256(0), \"this vote is not discarded.\");\n            return discardTime;\n    }\n\n    function readPartyDict(address account) public view\n        returns(VOTE_STATE, uint256, bool) {\n            return (party_dict[account].state, party_dict[account].power, party_dict[account].isReceivedIncentive);\n    }\n\n    function writePartyDict(\n        address account,\n        VOTE_STATE a,\n        uint256 b,\n        bool c) public \n        available\n        returns(bool) {\n            if(a != VOTE_STATE.NONE) {party_dict[account].state = a;}\n            if(b != 0) {party_dict[account].power = b;}\n            if(c != false) {party_dict[account].isReceivedIncentive = true;}\n            return true;\n    }\n\n    /* Voting Period Function\n     * order: initialize -> open -> close -> finalize\n     */\n    function initializeVote(uint256 _term) public\n        period(VOTE_PERIOD.NONE)\n        available\n        returns(bool) {\n            require(msg.sender != 0x0);\n\n            startTime = now;\n            endTime = now + _term; // you should change the alpha into proper value.\n            mPeriod = VOTE_PERIOD.INITIALIZED;\n            emit InitializeVote(address(this), mVotingName, startTime, endTime);\n            return true;\n    }\n\n    function openVote() public\n        period(VOTE_PERIOD.INITIALIZED)\n        available\n        returns(bool) {\n            mPeriod = VOTE_PERIOD.OPENED;\n            emit OpenVote(msg.sender, now);\n            return true;\n    }\n\n    function closeVote() public\n        period(VOTE_PERIOD.OPENED)\n        available\n        returns(bool) {\n            require(now >= endTime);\n\n            mPeriod = VOTE_PERIOD.CLOSED;\n            emit CloseVote(msg.sender, now);\n            return true;\n    }\n    //TODO: specify the condition of finality\n    //should be overrided\n    function finalizeVote() public\n        period(VOTE_PERIOD.CLOSED)\n        available\n        returns(bool) {\n            mPeriod = VOTE_PERIOD.FINALIZED;\n            emit FinalizeVote(msg.sender, now);\n            return true;\n    }\n\n    function discard() public\n        only(mFactoryAddress)\n        period(VOTE_PERIOD.FINALIZED)\n        available\n        returns(bool) {\n            if(!_haltFunctions()) { revert(\"cannot discard this function.\"); }\n            discardTime = now;\n            emit DiscardVote(address(this), discardTime);\n            return true;\n    }\n\n    function _haltFunctions() internal\n        available\n        returns(bool) {\n            isAvailable = false;\n            return true;\n    }\n\n    /* Personal Voting function\n     * vote, getBack\n     */\n    function vote(bool _agree) public\n        available\n        returns(bool) {\n            require(isActivated());\n            require(msg.sender != 0x0);\n            require(party_dict[msg.sender].state == VOTE_STATE.NONE); // can vote only once\n            if(_agree) {\n                party_dict[msg.sender].state = VOTE_STATE.AGREE;\n                agree_count = agree_count.add(1);\n            }\n            else {\n                party_dict[msg.sender].state = VOTE_STATE.DISAGREE;\n                disagree_count = disagree_count.add(1);\n            }\n            return true;\n    }\n\n    function getBack() public\n        available\n        returns(bool) {\n            require(isActivated());\n            require(msg.sender != 0x0);\n\n            if(party_dict[msg.sender].state == VOTE_STATE.AGREE) {\n                party_dict[msg.sender].state = VOTE_STATE.NONE;\n                agree_count = agree_count.sub(1);\n            }\n            else if(party_dict[msg.sender].state == VOTE_STATE.DISAGREE) {\n                party_dict[msg.sender].state = VOTE_STATE.NONE;\n                disagree_count = disagree_count.sub(1);\n            }\n            else { return false; }\n            return true;\n    }\n\n}\n\n\n\n",
  "sourcePath": "/Users/pyo/blockchain/ICO2.0/contracts/vote/BaseVoting.sol",
  "compiler": {
    "name": "solc",
    "version": "0.4.23+commit.124ca40d.Emscripten.clang"
  },
  "schemaVersion": "2.0.0",
  "updatedAt": "2018-05-22T12:40:15.278Z"
}