{
  "contractName": "Crowdsale",
  "abi": [
    {
      "constant": true,
      "inputs": [],
      "name": "mContributedTokens",
      "outputs": [
        {
          "name": "",
          "type": "uint256"
        }
      ],
      "payable": false,
      "stateMutability": "view",
      "type": "function"
    },
    {
      "constant": true,
      "inputs": [
        {
          "name": "account",
          "type": "address"
        }
      ],
      "name": "isOwner",
      "outputs": [
        {
          "name": "",
          "type": "bool"
        }
      ],
      "payable": false,
      "stateMutability": "view",
      "type": "function"
    },
    {
      "constant": true,
      "inputs": [
        {
          "name": "account",
          "type": "address"
        }
      ],
      "name": "isLockedGroup",
      "outputs": [
        {
          "name": "",
          "type": "bool"
        }
      ],
      "payable": false,
      "stateMutability": "view",
      "type": "function"
    },
    {
      "constant": true,
      "inputs": [],
      "name": "mCurrentDiscountPerc",
      "outputs": [
        {
          "name": "",
          "type": "uint8"
        }
      ],
      "payable": false,
      "stateMutability": "view",
      "type": "function"
    },
    {
      "constant": true,
      "inputs": [
        {
          "name": "account",
          "type": "address"
        }
      ],
      "name": "isDeveloper",
      "outputs": [
        {
          "name": "",
          "type": "bool"
        }
      ],
      "payable": false,
      "stateMutability": "view",
      "type": "function"
    },
    {
      "constant": true,
      "inputs": [
        {
          "name": "",
          "type": "address"
        }
      ],
      "name": "mContributors",
      "outputs": [
        {
          "name": "ethers",
          "type": "uint256"
        },
        {
          "name": "tokens",
          "type": "uint256"
        }
      ],
      "payable": false,
      "stateMutability": "view",
      "type": "function"
    },
    {
      "constant": true,
      "inputs": [],
      "name": "members",
      "outputs": [
        {
          "name": "",
          "type": "address"
        }
      ],
      "payable": false,
      "stateMutability": "view",
      "type": "function"
    },
    {
      "constant": true,
      "inputs": [
        {
          "name": "",
          "type": "address"
        }
      ],
      "name": "mWhitelist",
      "outputs": [
        {
          "name": "isListed",
          "type": "bool"
        },
        {
          "name": "maxcap",
          "type": "uint256"
        }
      ],
      "payable": false,
      "stateMutability": "view",
      "type": "function"
    },
    {
      "inputs": [
        {
          "name": "_tokenAddress",
          "type": "address"
        },
        {
          "name": "_fundAddress",
          "type": "address"
        },
        {
          "name": "_membersAddress",
          "type": "address"
        }
      ],
      "payable": false,
      "stateMutability": "nonpayable",
      "type": "constructor"
    },
    {
      "payable": true,
      "stateMutability": "payable",
      "type": "fallback"
    },
    {
      "anonymous": false,
      "inputs": [
        {
          "indexed": true,
          "name": "purchaser",
          "type": "address"
        },
        {
          "indexed": true,
          "name": "beneficiary",
          "type": "address"
        },
        {
          "indexed": false,
          "name": "wei_amount",
          "type": "uint256"
        },
        {
          "indexed": false,
          "name": "token_amount",
          "type": "uint256"
        }
      ],
      "name": "TokenPurchase",
      "type": "event"
    },
    {
      "anonymous": false,
      "inputs": [
        {
          "indexed": true,
          "name": "purchaser",
          "type": "address"
        },
        {
          "indexed": false,
          "name": "value",
          "type": "uint256"
        }
      ],
      "name": "EtherChanges",
      "type": "event"
    },
    {
      "anonymous": false,
      "inputs": [
        {
          "indexed": false,
          "name": "state",
          "type": "uint8"
        },
        {
          "indexed": false,
          "name": "time",
          "type": "uint256"
        }
      ],
      "name": "StateChanged",
      "type": "event"
    },
    {
      "anonymous": false,
      "inputs": [
        {
          "indexed": true,
          "name": "_receiver",
          "type": "address"
        },
        {
          "indexed": false,
          "name": "_ethers",
          "type": "uint256"
        }
      ],
      "name": "RefundEthers",
      "type": "event"
    },
    {
      "constant": true,
      "inputs": [],
      "name": "getStartTime",
      "outputs": [
        {
          "name": "",
          "type": "uint256"
        }
      ],
      "payable": false,
      "stateMutability": "view",
      "type": "function"
    },
    {
      "constant": true,
      "inputs": [],
      "name": "getEndTime",
      "outputs": [
        {
          "name": "",
          "type": "uint256"
        }
      ],
      "payable": false,
      "stateMutability": "view",
      "type": "function"
    },
    {
      "constant": true,
      "inputs": [],
      "name": "getFundingGoal",
      "outputs": [
        {
          "name": "",
          "type": "uint256"
        }
      ],
      "payable": false,
      "stateMutability": "view",
      "type": "function"
    },
    {
      "constant": true,
      "inputs": [],
      "name": "getCurrentSate",
      "outputs": [
        {
          "name": "",
          "type": "uint8"
        }
      ],
      "payable": false,
      "stateMutability": "view",
      "type": "function"
    },
    {
      "constant": true,
      "inputs": [],
      "name": "getRate",
      "outputs": [
        {
          "name": "",
          "type": "uint256"
        }
      ],
      "payable": false,
      "stateMutability": "view",
      "type": "function"
    },
    {
      "constant": true,
      "inputs": [],
      "name": "getNextCap",
      "outputs": [
        {
          "name": "",
          "type": "uint256"
        }
      ],
      "payable": false,
      "stateMutability": "view",
      "type": "function"
    },
    {
      "constant": true,
      "inputs": [
        {
          "name": "_type",
          "type": "uint8"
        }
      ],
      "name": "getLockedAmount",
      "outputs": [
        {
          "name": "",
          "type": "uint256"
        }
      ],
      "payable": false,
      "stateMutability": "view",
      "type": "function"
    },
    {
      "constant": true,
      "inputs": [
        {
          "name": "_address",
          "type": "address"
        },
        {
          "name": "_type",
          "type": "uint8"
        }
      ],
      "name": "getPersonalLockedAmount",
      "outputs": [
        {
          "name": "",
          "type": "uint256"
        }
      ],
      "payable": false,
      "stateMutability": "view",
      "type": "function"
    },
    {
      "constant": true,
      "inputs": [],
      "name": "isLockFilled",
      "outputs": [
        {
          "name": "",
          "type": "bool"
        }
      ],
      "payable": false,
      "stateMutability": "view",
      "type": "function"
    },
    {
      "constant": false,
      "inputs": [],
      "name": "activateSale",
      "outputs": [],
      "payable": false,
      "stateMutability": "nonpayable",
      "type": "function"
    },
    {
      "constant": false,
      "inputs": [],
      "name": "finishSale",
      "outputs": [],
      "payable": false,
      "stateMutability": "nonpayable",
      "type": "function"
    },
    {
      "constant": false,
      "inputs": [],
      "name": "finalizeSale",
      "outputs": [],
      "payable": false,
      "stateMutability": "nonpayable",
      "type": "function"
    },
    {
      "constant": false,
      "inputs": [],
      "name": "activeRefund",
      "outputs": [],
      "payable": false,
      "stateMutability": "nonpayable",
      "type": "function"
    },
    {
      "constant": false,
      "inputs": [
        {
          "name": "_beneficiary",
          "type": "address"
        }
      ],
      "name": "buyTokens",
      "outputs": [],
      "payable": true,
      "stateMutability": "payable",
      "type": "function"
    },
    {
      "constant": false,
      "inputs": [],
      "name": "receiveTokens",
      "outputs": [],
      "payable": false,
      "stateMutability": "nonpayable",
      "type": "function"
    },
    {
      "constant": false,
      "inputs": [],
      "name": "refund",
      "outputs": [],
      "payable": false,
      "stateMutability": "nonpayable",
      "type": "function"
    },
    {
      "constant": false,
      "inputs": [
        {
          "name": "_vestingTokensAddress",
          "type": "address"
        }
      ],
      "name": "setVestingTokens",
      "outputs": [],
      "payable": false,
      "stateMutability": "nonpayable",
      "type": "function"
    },
    {
      "constant": false,
      "inputs": [
        {
          "name": "_whitelist",
          "type": "address"
        },
        {
          "name": "_maxcap",
          "type": "uint256"
        }
      ],
      "name": "addWhitelist",
      "outputs": [],
      "payable": false,
      "stateMutability": "nonpayable",
      "type": "function"
    },
    {
      "constant": false,
      "inputs": [
        {
          "name": "_address",
          "type": "address"
        },
        {
          "name": "_tokenWeiAmount",
          "type": "uint256"
        }
      ],
      "name": "setToDevelopers",
      "outputs": [],
      "payable": false,
      "stateMutability": "nonpayable",
      "type": "function"
    },
    {
      "constant": false,
      "inputs": [
        {
          "name": "_address",
          "type": "address"
        },
        {
          "name": "_tokenWeiAmount",
          "type": "uint256"
        }
      ],
      "name": "setToAdvisors",
      "outputs": [],
      "payable": false,
      "stateMutability": "nonpayable",
      "type": "function"
    },
    {
      "constant": false,
      "inputs": [
        {
          "name": "_address",
          "type": "address"
        },
        {
          "name": "_tokenWeiAmount",
          "type": "uint256"
        }
      ],
      "name": "setToPrivateSale",
      "outputs": [],
      "payable": false,
      "stateMutability": "nonpayable",
      "type": "function"
    }
  ],
  "bytecode": "0x608060405260006005556014600660006101000a81548160ff021916908360ff1602179055506000600660016101000a81548160ff021916908360048111156200004557fe5b02179055503480156200005757600080fd5b50604051606080620050408339810180604052810190808051906020019092919080519060200190929190805190602001909291905050508060008173ffffffffffffffffffffffffffffffffffffffff1614151515620000b757600080fd5b806000806101000a81548173ffffffffffffffffffffffffffffffffffffffff021916908373ffffffffffffffffffffffffffffffffffffffff16021790555050600073ffffffffffffffffffffffffffffffffffffffff168273ffffffffffffffffffffffffffffffffffffffff16141515156200013557600080fd5b600073ffffffffffffffffffffffffffffffffffffffff168373ffffffffffffffffffffffffffffffffffffffff16141515156200017257600080fd5b600073ffffffffffffffffffffffffffffffffffffffff168173ffffffffffffffffffffffffffffffffffffffff1614151515620001af57600080fd5b81600260006101000a81548173ffffffffffffffffffffffffffffffffffffffff021916908373ffffffffffffffffffffffffffffffffffffffff16021790555082600160006101000a81548173ffffffffffffffffffffffffffffffffffffffff021916908373ffffffffffffffffffffffffffffffffffffffff160217905550505050614dfc80620002446000396000f300608060405260043610610175576000357c0100000000000000000000000000000000000000000000000000000000900463ffffffff16806314ca4e29146101805780632380aefe146101ab5780632f54bf6e146101d657806334b41cd01461023157806339c2cf8e14610274578063439f5ac2146102cf5780634d9c636b146102fa57806358a687ec1461033e57806358fab23814610355578063590e1ae3146103865780635eca4a701461039d57806361d9bc2f146103f8578063679aefce14610431578063680e6c9b1461045c57806369790035146104735780637022a682146104a25780637629cf7a146104ef5780638f86f5ea146105065780639b75f9241461051d578063a16f89261461057b578063abc7d585146105c8578063addafec814610615578063b39d900914610679578063b85090f3146106c6578063bdd4d18d146106f1578063c721f08d14610748578063c828371e1461075f578063ec8ac4d81461078a578063feb130ba146107c0575b61017e33610822565b005b34801561018c57600080fd5b50610195610dc6565b6040518082815260200191505060405180910390f35b3480156101b757600080fd5b506101c0610dcc565b6040518082815260200191505060405180910390f35b3480156101e257600080fd5b50610217600480360381019080803573ffffffffffffffffffffffffffffffffffffffff169060200190929190505050610e47565b604051808215151515815260200191505060405180910390f35b34801561023d57600080fd5b50610272600480360381019080803573ffffffffffffffffffffffffffffffffffffffff169060200190929190505050610f3e565b005b34801561028057600080fd5b506102b5600480360381019080803573ffffffffffffffffffffffffffffffffffffffff16906020019092919050505061110e565b604051808215151515815260200191505060405180910390f35b3480156102db57600080fd5b506102e461120e565b6040518082815260200191505060405180910390f35b34801561030657600080fd5b50610328600480360381019080803560ff16906020019092919050505061121c565b6040518082815260200191505060405180910390f35b34801561034a57600080fd5b50610353611474565b005b34801561036157600080fd5b5061036a61161f565b604051808260ff1660ff16815260200191505060405180910390f35b34801561039257600080fd5b5061039b611632565b005b3480156103a957600080fd5b506103de600480360381019080803573ffffffffffffffffffffffffffffffffffffffff1690602001909291905050506117ea565b604051808215151515815260200191505060405180910390f35b34801561040457600080fd5b5061040d6118ea565b6040518082600481111561041d57fe5b60ff16815260200191505060405180910390f35b34801561043d57600080fd5b50610446611a05565b6040518082815260200191505060405180910390f35b34801561046857600080fd5b50610471611a73565b005b34801561047f57600080fd5b50610488611c91565b604051808215151515815260200191505060405180910390f35b3480156104ae57600080fd5b506104ed600480360381019080803573ffffffffffffffffffffffffffffffffffffffff16906020019092919080359060200190929190505050611f9c565b005b3480156104fb57600080fd5b506105046124ff565b005b34801561051257600080fd5b5061051b6125ed565b005b34801561052957600080fd5b5061055e600480360381019080803573ffffffffffffffffffffffffffffffffffffffff16906020019092919050505061276b565b604051808381526020018281526020019250505060405180910390f35b34801561058757600080fd5b506105c6600480360381019080803573ffffffffffffffffffffffffffffffffffffffff1690602001909291908035906020019092919050505061278f565b005b3480156105d457600080fd5b50610613600480360381019080803573ffffffffffffffffffffffffffffffffffffffff16906020019092919080359060200190929190505050612cf2565b005b34801561062157600080fd5b50610663600480360381019080803573ffffffffffffffffffffffffffffffffffffffff169060200190929190803560ff169060200190929190505050613255565b6040518082815260200191505060405180910390f35b34801561068557600080fd5b506106c4600480360381019080803573ffffffffffffffffffffffffffffffffffffffff169060200190929190803590602001909291905050506133ce565b005b3480156106d257600080fd5b506106db6135a1565b6040518082815260200191505060405180910390f35b3480156106fd57600080fd5b506107066135b3565b604051808273ffffffffffffffffffffffffffffffffffffffff1673ffffffffffffffffffffffffffffffffffffffff16815260200191505060405180910390f35b34801561075457600080fd5b5061075d6135d8565b005b34801561076b57600080fd5b50610774613a50565b6040518082815260200191505060405180910390f35b6107be600480360381019080803573ffffffffffffffffffffffffffffffffffffffff169060200190929190505050610822565b005b3480156107cc57600080fd5b50610801600480360381019080803573ffffffffffffffffffffffffffffffffffffffff169060200190929190505050613a5e565b60405180831515151581526020018281526020019250505060405180910390f35b600080600080600080600180600481111561083957fe5b600660019054906101000a900460ff16600481111561085457fe5b14151561086057600080fd5b600073ffffffffffffffffffffffffffffffffffffffff168873ffffffffffffffffffffffffffffffffffffffff161415151561089c57600080fd5b6000341115156108ab57600080fd5b65016356cc000042101580156108c657506501638f71f01842105b15156108d157600080fd5b600760008973ffffffffffffffffffffffffffffffffffffffff1673ffffffffffffffffffffffffffffffffffffffff16815260200190815260200160002060000160009054906101000a900460ff16151561092c57600080fd5b34965061098487600b60008b73ffffffffffffffffffffffffffffffffffffffff1673ffffffffffffffffffffffffffffffffffffffff16815260200190815260200160002060000154613a8f90919063ffffffff16565b600760008a73ffffffffffffffffffffffffffffffffffffffff1673ffffffffffffffffffffffffffffffffffffffff16815260200190815260200160002060010154101515156109d457600080fd5b6109dc613aad565b1515610a5f576109eb87613b3d565b95508773ffffffffffffffffffffffffffffffffffffffff163373ffffffffffffffffffffffffffffffffffffffff167f623b3804fa71d67900d064613da8f94b9617215ee90799290593e1745087ad188989604051808381526020018281526020019250505060405180910390a3610db0565b6000600660009054906101000a900460ff1660ff161115610c1f57610aab610a85610dcc565b3073ffffffffffffffffffffffffffffffffffffffff1631613b6090919063ffffffff16565b9350610ac08488613b6090919063ffffffff16565b9450610acb85613b3d565b95508773ffffffffffffffffffffffffffffffffffffffff163373ffffffffffffffffffffffffffffffffffffffff167f623b3804fa71d67900d064613da8f94b9617215ee90799290593e1745087ad188789604051808381526020018281526020019250505060405180910390a36005600660009054906101000a900460ff16039250600660009054906101000a900460ff1660ff168360ff16101515610b7257600080fd5b82600660006101000a81548160ff021916908360ff160217905550610b9684613b3d565b91508773ffffffffffffffffffffffffffffffffffffffff163373ffffffffffffffffffffffffffffffffffffffff167f623b3804fa71d67900d064613da8f94b9617215ee90799290593e1745087ad188685604051808381526020018281526020019250505060405180910390a3610c188287613a8f90919063ffffffff16565b9550610daf565b6000600660009054906101000a900460ff1660ff161415610daa57610c6e6907f0e10af47c1c7000003073ffffffffffffffffffffffffffffffffffffffff1631613b6090919063ffffffff16565b9350610c838488613b6090919063ffffffff16565b9450610c8e85613b3d565b95508773ffffffffffffffffffffffffffffffffffffffff163373ffffffffffffffffffffffffffffffffffffffff167f623b3804fa71d67900d064613da8f94b9617215ee90799290593e1745087ad188789604051808381526020018281526020019250505060405180910390a33373ffffffffffffffffffffffffffffffffffffffff166108fc859081150290604051600060405180830381858888f19350505050158015610d43573d6000803e3d6000fd5b503373ffffffffffffffffffffffffffffffffffffffff167f923f7c405b9c1e8c866bd54703f82bc44ef33a96b7c53c5ec93da5c40d0c650a856040518082815260200191505060405180910390a2610d9d888688613b79565b610da5613cc4565b610dbc565b600080fd5b5b610dbb888888613b79565b5b5050505050505050565b60055481565b600080600660009054906101000a900460ff1660ff16111515610dee57600080fd5b610e426008610e346005600660009054906101000a900460ff1660ff16811515610e1457fe5b0460050360ff166907f0e10af47c1c700000613d3890919063ffffffff16565b613d7390919063ffffffff16565b905090565b60008060009054906101000a900473ffffffffffffffffffffffffffffffffffffffff1673ffffffffffffffffffffffffffffffffffffffff16638da5cb5b6040518163ffffffff167c0100000000000000000000000000000000000000000000000000000000028152600401602060405180830381600087803b158015610ece57600080fd5b505af1158015610ee2573d6000803e3d6000fd5b505050506040513d6020811015610ef857600080fd5b810190808051906020019092919050505073ffffffffffffffffffffffffffffffffffffffff168273ffffffffffffffffffffffffffffffffffffffff16149050919050565b6000809054906101000a900473ffffffffffffffffffffffffffffffffffffffff1673ffffffffffffffffffffffffffffffffffffffff16638da5cb5b6040518163ffffffff167c0100000000000000000000000000000000000000000000000000000000028152600401602060405180830381600087803b158015610fc357600080fd5b505af1158015610fd7573d6000803e3d6000fd5b505050506040513d6020811015610fed57600080fd5b810190808051906020019092919050505073ffffffffffffffffffffffffffffffffffffffff163373ffffffffffffffffffffffffffffffffffffffff1614151561103757600080fd5b600080600481111561104557fe5b600660019054906101000a900460ff16600481111561106057fe5b14151561106c57600080fd5b600073ffffffffffffffffffffffffffffffffffffffff16600360009054906101000a900473ffffffffffffffffffffffffffffffffffffffff1673ffffffffffffffffffffffffffffffffffffffff161415156110c957600080fd5b81600360006101000a81548173ffffffffffffffffffffffffffffffffffffffff021916908373ffffffffffffffffffffffffffffffffffffffff1602179055505050565b60008060009054906101000a900473ffffffffffffffffffffffffffffffffffffffff1673ffffffffffffffffffffffffffffffffffffffff166339c2cf8e836040518263ffffffff167c0100000000000000000000000000000000000000000000000000000000028152600401808273ffffffffffffffffffffffffffffffffffffffff1673ffffffffffffffffffffffffffffffffffffffff168152602001915050602060405180830381600087803b1580156111cc57600080fd5b505af11580156111e0573d6000803e3d6000fd5b505050506040513d60208110156111f657600080fd5b81019080805190602001909291905050509050919050565b60006501638f71f018905090565b60008060008090506000600281111561123157fe5b84600281111561123d57fe5b14156112e457600091505b600d805490508210156112df5760096000600d8481548110151561126857fe5b9060005260206000200160009054906101000a900473ffffffffffffffffffffffffffffffffffffffff1673ffffffffffffffffffffffffffffffffffffffff1673ffffffffffffffffffffffffffffffffffffffff16815260200190815260200160002054810190508180600101925050611248565b61146a565b600160028111156112f157fe5b8460028111156112fd57fe5b14156113a457600091505b600e8054905082101561139f57600a6000600e8481548110151561132857fe5b9060005260206000200160009054906101000a900473ffffffffffffffffffffffffffffffffffffffff1673ffffffffffffffffffffffffffffffffffffffff1673ffffffffffffffffffffffffffffffffffffffff16815260200190815260200160002054810190508180600101925050611308565b611469565b6002808111156113b057fe5b8460028111156113bc57fe5b141561146357600091505b600c8054905082101561145e5760086000600c848154811015156113e757fe5b9060005260206000200160009054906101000a900473ffffffffffffffffffffffffffffffffffffffff1673ffffffffffffffffffffffffffffffffffffffff1673ffffffffffffffffffffffffffffffffffffffff168152602001908152602001600020548101905081806001019250506113c7565b611468565b600080fd5b5b5b8092505050919050565b6000809054906101000a900473ffffffffffffffffffffffffffffffffffffffff1673ffffffffffffffffffffffffffffffffffffffff16638da5cb5b6040518163ffffffff167c0100000000000000000000000000000000000000000000000000000000028152600401602060405180830381600087803b1580156114f957600080fd5b505af115801561150d573d6000803e3d6000fd5b505050506040513d602081101561152357600080fd5b810190808051906020019092919050505073ffffffffffffffffffffffffffffffffffffffff163373ffffffffffffffffffffffffffffffffffffffff1614151561156d57600080fd5b600280600481111561157b57fe5b600660019054906101000a900460ff16600481111561159657fe5b1415156115a257600080fd5b6115aa613d8e565b6003600660016101000a81548160ff021916908360048111156115c957fe5b02179055507f0b6b340830d52b5dd44a416ee7a14618083b381ba65f16a9c90930abba8de85a6003426040518083600481111561160257fe5b60ff1681526020018281526020019250505060405180910390a150565b600660009054906101000a900460ff1681565b6000600480600481111561164257fe5b600660019054906101000a900460ff16600481111561165d57fe5b14151561166957600080fd5b6000600b60003373ffffffffffffffffffffffffffffffffffffffff1673ffffffffffffffffffffffffffffffffffffffff168152602001908152602001600020600001541115156116ba57600080fd5b600b60003373ffffffffffffffffffffffffffffffffffffffff1673ffffffffffffffffffffffffffffffffffffffff1681526020019081526020016000206000015491503373ffffffffffffffffffffffffffffffffffffffff166108fc839081150290604051600060405180830381858888f19350505050158015611745573d6000803e3d6000fd5b50600b60003373ffffffffffffffffffffffffffffffffffffffff1673ffffffffffffffffffffffffffffffffffffffff168152602001908152602001600020600080820160009055600182016000905550503373ffffffffffffffffffffffffffffffffffffffff167f3f0649b0691394f762f7db925eb320896bd48b83d3fc9632e2e6050effc7aca6836040518082815260200191505060405180910390a25050565b60008060009054906101000a900473ffffffffffffffffffffffffffffffffffffffff1673ffffffffffffffffffffffffffffffffffffffff16635eca4a70836040518263ffffffff167c0100000000000000000000000000000000000000000000000000000000028152600401808273ffffffffffffffffffffffffffffffffffffffff1673ffffffffffffffffffffffffffffffffffffffff168152602001915050602060405180830381600087803b1580156118a857600080fd5b505af11580156118bc573d6000803e3d6000fd5b505050506040513d60208110156118d257600080fd5b81019080805190602001909291905050509050919050565b60008060048111156118f857fe5b600660019054906101000a900460ff16600481111561191357fe5b14156119225760009050611a02565b6001600481111561192f57fe5b600660019054906101000a900460ff16600481111561194a57fe5b14156119595760019050611a02565b6002600481111561196657fe5b600660019054906101000a900460ff16600481111561198157fe5b14156119905760029050611a02565b6003600481111561199d57fe5b600660019054906101000a900460ff1660048111156119b857fe5b14156119c75760039050611a02565b6004808111156119d357fe5b600660019054906101000a900460ff1660048111156119ee57fe5b14156119fd5760049050611a02565b600080fd5b90565b600080624c4b4090506000600660009054906101000a900460ff1660ff161415611a3157809150611a6f565b611a6c600660009054906101000a900460ff1660640360ff16611a5e606484613d3890919063ffffffff16565b613d7390919063ffffffff16565b91505b5090565b6003806004811115611a8157fe5b600660019054906101000a900460ff166004811115611a9c57fe5b141515611aa857600080fd5b6000600b60003373ffffffffffffffffffffffffffffffffffffffff1673ffffffffffffffffffffffffffffffffffffffff16815260200190815260200160002060010154111515611af957600080fd5b600160009054906101000a900473ffffffffffffffffffffffffffffffffffffffff1673ffffffffffffffffffffffffffffffffffffffff1663a9059cbb33600b60003373ffffffffffffffffffffffffffffffffffffffff1673ffffffffffffffffffffffffffffffffffffffff168152602001908152602001600020600101546040518363ffffffff167c0100000000000000000000000000000000000000000000000000000000028152600401808373ffffffffffffffffffffffffffffffffffffffff1673ffffffffffffffffffffffffffffffffffffffff16815260200182815260200192505050602060405180830381600087803b158015611c0057600080fd5b505af1158015611c14573d6000803e3d6000fd5b505050506040513d6020811015611c2a57600080fd5b810190808051906020019092919050505050600b60003373ffffffffffffffffffffffffffffffffffffffff1673ffffffffffffffffffffffffffffffffffffffff1681526020019081526020016000206000808201600090556001820160009055505050565b600080611c9e600061121c565b9050611d88608c611d7a6103e8600160009054906101000a900473ffffffffffffffffffffffffffffffffffffffff1673ffffffffffffffffffffffffffffffffffffffff166318160ddd6040518163ffffffff167c0100000000000000000000000000000000000000000000000000000000028152600401602060405180830381600087803b158015611d3157600080fd5b505af1158015611d45573d6000803e3d6000fd5b505050506040513d6020811015611d5b57600080fd5b8101908080519060200190929190505050613d7390919063ffffffff16565b613d3890919063ffffffff16565b811015611d9457600080fd5b611d9e600161121c565b9050611e886032611e7a6103e8600160009054906101000a900473ffffffffffffffffffffffffffffffffffffffff1673ffffffffffffffffffffffffffffffffffffffff166318160ddd6040518163ffffffff167c0100000000000000000000000000000000000000000000000000000000028152600401602060405180830381600087803b158015611e3157600080fd5b505af1158015611e45573d6000803e3d6000fd5b505050506040513d6020811015611e5b57600080fd5b8101908080519060200190929190505050613d7390919063ffffffff16565b613d3890919063ffffffff16565b811015611e9457600080fd5b611e9e600261121c565b9050611f8860c8611f7a6103e8600160009054906101000a900473ffffffffffffffffffffffffffffffffffffffff1673ffffffffffffffffffffffffffffffffffffffff166318160ddd6040518163ffffffff167c0100000000000000000000000000000000000000000000000000000000028152600401602060405180830381600087803b158015611f3157600080fd5b505af1158015611f45573d6000803e3d6000fd5b505050506040513d6020811015611f5b57600080fd5b8101908080519060200190929190505050613d7390919063ffffffff16565b613d3890919063ffffffff16565b811015611f9457600080fd5b600191505090565b60008060009054906101000a900473ffffffffffffffffffffffffffffffffffffffff1673ffffffffffffffffffffffffffffffffffffffff16638da5cb5b6040518163ffffffff167c0100000000000000000000000000000000000000000000000000000000028152600401602060405180830381600087803b15801561202357600080fd5b505af1158015612037573d6000803e3d6000fd5b505050506040513d602081101561204d57600080fd5b810190808051906020019092919050505073ffffffffffffffffffffffffffffffffffffffff163373ffffffffffffffffffffffffffffffffffffffff1614151561209757600080fd5b600073ffffffffffffffffffffffffffffffffffffffff168373ffffffffffffffffffffffffffffffffffffffff16141515156120d357600080fd5b6120de836003613f42565b1515156120ea57600080fd5b612106826120f8600061121c565b613a8f90919063ffffffff16565b90506121f0608c6121e26103e8600160009054906101000a900473ffffffffffffffffffffffffffffffffffffffff1673ffffffffffffffffffffffffffffffffffffffff166318160ddd6040518163ffffffff167c0100000000000000000000000000000000000000000000000000000000028152600401602060405180830381600087803b15801561219957600080fd5b505af11580156121ad573d6000803e3d6000fd5b505050506040513d60208110156121c357600080fd5b8101908080519060200190929190505050613d7390919063ffffffff16565b613d3890919063ffffffff16565b81111515156121fe57600080fd5b6000600960008573ffffffffffffffffffffffffffffffffffffffff1673ffffffffffffffffffffffffffffffffffffffff16815260200190815260200160002054111561236d5781600960008573ffffffffffffffffffffffffffffffffffffffff1673ffffffffffffffffffffffffffffffffffffffff168152602001908152602001600020819055506000821415612368576000809054906101000a900473ffffffffffffffffffffffffffffffffffffffff1673ffffffffffffffffffffffffffffffffffffffff166359aa3f31846040518263ffffffff167c0100000000000000000000000000000000000000000000000000000000028152600401808273ffffffffffffffffffffffffffffffffffffffff1673ffffffffffffffffffffffffffffffffffffffff168152602001915050600060405180830381600087803b15801561234f57600080fd5b505af1158015612363573d6000803e3d6000fd5b505050505b6124fa565b600082141561237b57600080fd5b81600960008573ffffffffffffffffffffffffffffffffffffffff1673ffffffffffffffffffffffffffffffffffffffff16815260200190815260200160002081905550600d8390806001815401808255809150509060018203906000526020600020016000909192909190916101000a81548173ffffffffffffffffffffffffffffffffffffffff021916908373ffffffffffffffffffffffffffffffffffffffff160217905550506000809054906101000a900473ffffffffffffffffffffffffffffffffffffffff1673ffffffffffffffffffffffffffffffffffffffff1663f43203a1846040518263ffffffff167c0100000000000000000000000000000000000000000000000000000000028152600401808273ffffffffffffffffffffffffffffffffffffffff1673ffffffffffffffffffffffffffffffffffffffff168152602001915050600060405180830381600087803b1580156124e157600080fd5b505af11580156124f5573d6000803e3d6000fd5b505050505b505050565b600180600481111561250d57fe5b600660019054906101000a900460ff16600481111561252857fe5b14151561253457600080fd5b6501638f71f018421015151561254957600080fd5b69010f0cf064dd592000003073ffffffffffffffffffffffffffffffffffffffff163110151561257857600080fd5b6004600660016101000a81548160ff0219169083600481111561259757fe5b02179055507f0b6b340830d52b5dd44a416ee7a14618083b381ba65f16a9c90930abba8de85a600442604051808360048111156125d057fe5b60ff1681526020018281526020019250505060405180910390a150565b6000809054906101000a900473ffffffffffffffffffffffffffffffffffffffff1673ffffffffffffffffffffffffffffffffffffffff16638da5cb5b6040518163ffffffff167c0100000000000000000000000000000000000000000000000000000000028152600401602060405180830381600087803b15801561267257600080fd5b505af1158015612686573d6000803e3d6000fd5b505050506040513d602081101561269c57600080fd5b810190808051906020019092919050505073ffffffffffffffffffffffffffffffffffffffff163373ffffffffffffffffffffffffffffffffffffffff161415156126e657600080fd5b60018060048111156126f457fe5b600660019054906101000a900460ff16600481111561270f57fe5b14151561271b57600080fd5b6501638f71f018421015151561273057600080fd5b69010f0cf064dd592000003073ffffffffffffffffffffffffffffffffffffffff16311015151561276057600080fd5b612768613cc4565b50565b600b6020528060005260406000206000915090508060000154908060010154905082565b60008060009054906101000a900473ffffffffffffffffffffffffffffffffffffffff1673ffffffffffffffffffffffffffffffffffffffff16638da5cb5b6040518163ffffffff167c0100000000000000000000000000000000000000000000000000000000028152600401602060405180830381600087803b15801561281657600080fd5b505af115801561282a573d6000803e3d6000fd5b505050506040513d602081101561284057600080fd5b810190808051906020019092919050505073ffffffffffffffffffffffffffffffffffffffff163373ffffffffffffffffffffffffffffffffffffffff1614151561288a57600080fd5b600073ffffffffffffffffffffffffffffffffffffffff168373ffffffffffffffffffffffffffffffffffffffff16141515156128c657600080fd5b6128d1836002613f42565b1515156128dd57600080fd5b6128f9826128eb600161121c565b613a8f90919063ffffffff16565b90506129e360326129d56103e8600160009054906101000a900473ffffffffffffffffffffffffffffffffffffffff1673ffffffffffffffffffffffffffffffffffffffff166318160ddd6040518163ffffffff167c0100000000000000000000000000000000000000000000000000000000028152600401602060405180830381600087803b15801561298c57600080fd5b505af11580156129a0573d6000803e3d6000fd5b505050506040513d60208110156129b657600080fd5b8101908080519060200190929190505050613d7390919063ffffffff16565b613d3890919063ffffffff16565b81111515156129f157600080fd5b6000600a60008573ffffffffffffffffffffffffffffffffffffffff1673ffffffffffffffffffffffffffffffffffffffff168152602001908152602001600020541115612b605781600a60008573ffffffffffffffffffffffffffffffffffffffff1673ffffffffffffffffffffffffffffffffffffffff168152602001908152602001600020819055506000821415612b5b576000809054906101000a900473ffffffffffffffffffffffffffffffffffffffff1673ffffffffffffffffffffffffffffffffffffffff1663b548ab3a846040518263ffffffff167c0100000000000000000000000000000000000000000000000000000000028152600401808273ffffffffffffffffffffffffffffffffffffffff1673ffffffffffffffffffffffffffffffffffffffff168152602001915050600060405180830381600087803b158015612b4257600080fd5b505af1158015612b56573d6000803e3d6000fd5b505050505b612ced565b6000821415612b6e57600080fd5b81600a60008573ffffffffffffffffffffffffffffffffffffffff1673ffffffffffffffffffffffffffffffffffffffff16815260200190815260200160002081905550600e8390806001815401808255809150509060018203906000526020600020016000909192909190916101000a81548173ffffffffffffffffffffffffffffffffffffffff021916908373ffffffffffffffffffffffffffffffffffffffff160217905550506000809054906101000a900473ffffffffffffffffffffffffffffffffffffffff1673ffffffffffffffffffffffffffffffffffffffff1663e6d14f7a846040518263ffffffff167c0100000000000000000000000000000000000000000000000000000000028152600401808273ffffffffffffffffffffffffffffffffffffffff1673ffffffffffffffffffffffffffffffffffffffff168152602001915050600060405180830381600087803b158015612cd457600080fd5b505af1158015612ce8573d6000803e3d6000fd5b505050505b505050565b60008060009054906101000a900473ffffffffffffffffffffffffffffffffffffffff1673ffffffffffffffffffffffffffffffffffffffff16638da5cb5b6040518163ffffffff167c0100000000000000000000000000000000000000000000000000000000028152600401602060405180830381600087803b158015612d7957600080fd5b505af1158015612d8d573d6000803e3d6000fd5b505050506040513d6020811015612da357600080fd5b810190808051906020019092919050505073ffffffffffffffffffffffffffffffffffffffff163373ffffffffffffffffffffffffffffffffffffffff16141515612ded57600080fd5b600073ffffffffffffffffffffffffffffffffffffffff168373ffffffffffffffffffffffffffffffffffffffff1614151515612e2957600080fd5b612e34836001613f42565b151515612e4057600080fd5b612e5c82612e4e600261121c565b613a8f90919063ffffffff16565b9050612f4660c8612f386103e8600160009054906101000a900473ffffffffffffffffffffffffffffffffffffffff1673ffffffffffffffffffffffffffffffffffffffff166318160ddd6040518163ffffffff167c0100000000000000000000000000000000000000000000000000000000028152600401602060405180830381600087803b158015612eef57600080fd5b505af1158015612f03573d6000803e3d6000fd5b505050506040513d6020811015612f1957600080fd5b8101908080519060200190929190505050613d7390919063ffffffff16565b613d3890919063ffffffff16565b8111151515612f5457600080fd5b6000600860008573ffffffffffffffffffffffffffffffffffffffff1673ffffffffffffffffffffffffffffffffffffffff1681526020019081526020016000205411156130c35781600860008573ffffffffffffffffffffffffffffffffffffffff1673ffffffffffffffffffffffffffffffffffffffff1681526020019081526020016000208190555060008214156130be576000809054906101000a900473ffffffffffffffffffffffffffffffffffffffff1673ffffffffffffffffffffffffffffffffffffffff1663a88230e1846040518263ffffffff167c0100000000000000000000000000000000000000000000000000000000028152600401808273ffffffffffffffffffffffffffffffffffffffff1673ffffffffffffffffffffffffffffffffffffffff168152602001915050600060405180830381600087803b1580156130a557600080fd5b505af11580156130b9573d6000803e3d6000fd5b505050505b613250565b60008214156130d157600080fd5b81600860008573ffffffffffffffffffffffffffffffffffffffff1673ffffffffffffffffffffffffffffffffffffffff16815260200190815260200160002081905550600c8390806001815401808255809150509060018203906000526020600020016000909192909190916101000a81548173ffffffffffffffffffffffffffffffffffffffff021916908373ffffffffffffffffffffffffffffffffffffffff160217905550506000809054906101000a900473ffffffffffffffffffffffffffffffffffffffff1673ffffffffffffffffffffffffffffffffffffffff16631cfaf8ec846040518263ffffffff167c0100000000000000000000000000000000000000000000000000000000028152600401808273ffffffffffffffffffffffffffffffffffffffff1673ffffffffffffffffffffffffffffffffffffffff168152602001915050600060405180830381600087803b15801561323757600080fd5b505af115801561324b573d6000803e3d6000fd5b505050505b505050565b60008073ffffffffffffffffffffffffffffffffffffffff168373ffffffffffffffffffffffffffffffffffffffff161415151561329257600080fd5b6000600281111561329f57fe5b8260028111156132ab57fe5b14156132f857600960008473ffffffffffffffffffffffffffffffffffffffff1673ffffffffffffffffffffffffffffffffffffffff1681526020019081526020016000205490506133c8565b6001600281111561330557fe5b82600281111561331157fe5b141561335e57600a60008473ffffffffffffffffffffffffffffffffffffffff1673ffffffffffffffffffffffffffffffffffffffff1681526020019081526020016000205490506133c8565b60028081111561336a57fe5b82600281111561337657fe5b14156133c357600860008473ffffffffffffffffffffffffffffffffffffffff1673ffffffffffffffffffffffffffffffffffffffff1681526020019081526020016000205490506133c8565b600080fd5b92915050565b6000809054906101000a900473ffffffffffffffffffffffffffffffffffffffff1673ffffffffffffffffffffffffffffffffffffffff16638da5cb5b6040518163ffffffff167c0100000000000000000000000000000000000000000000000000000000028152600401602060405180830381600087803b15801561345357600080fd5b505af1158015613467573d6000803e3d6000fd5b505050506040513d602081101561347d57600080fd5b810190808051906020019092919050505073ffffffffffffffffffffffffffffffffffffffff163373ffffffffffffffffffffffffffffffffffffffff161415156134c757600080fd5b600260048111156134d457fe5b600660019054906101000a900460ff1660048111156134ef57fe5b1015156134fb57600080fd5b6001600760008473ffffffffffffffffffffffffffffffffffffffff1673ffffffffffffffffffffffffffffffffffffffff16815260200190815260200160002060000160006101000a81548160ff02191690831515021790555080600760008473ffffffffffffffffffffffffffffffffffffffff1673ffffffffffffffffffffffffffffffffffffffff168152602001908152602001600020600101819055505050565b60006907f0e10af47c1c700000905090565b6000809054906101000a900473ffffffffffffffffffffffffffffffffffffffff1681565b6000809054906101000a900473ffffffffffffffffffffffffffffffffffffffff1673ffffffffffffffffffffffffffffffffffffffff16638da5cb5b6040518163ffffffff167c0100000000000000000000000000000000000000000000000000000000028152600401602060405180830381600087803b15801561365d57600080fd5b505af1158015613671573d6000803e3d6000fd5b505050506040513d602081101561368757600080fd5b810190808051906020019092919050505073ffffffffffffffffffffffffffffffffffffffff163373ffffffffffffffffffffffffffffffffffffffff161415156136d157600080fd5b60008060048111156136df57fe5b600660019054906101000a900460ff1660048111156136fa57fe5b14151561370657600080fd5b6501638f71f0184210151561371a57600080fd5b600073ffffffffffffffffffffffffffffffffffffffff16600360009054906101000a900473ffffffffffffffffffffffffffffffffffffffff1673ffffffffffffffffffffffffffffffffffffffff161415151561377857600080fd5b600160009054906101000a900473ffffffffffffffffffffffffffffffffffffffff1673ffffffffffffffffffffffffffffffffffffffff166318160ddd6040518163ffffffff167c0100000000000000000000000000000000000000000000000000000000028152600401602060405180830381600087803b1580156137fe57600080fd5b505af1158015613812573d6000803e3d6000fd5b505050506040513d602081101561382857600080fd5b8101908080519060200190929190505050600160009054906101000a900473ffffffffffffffffffffffffffffffffffffffff1673ffffffffffffffffffffffffffffffffffffffff166370a08231306040518263ffffffff167c0100000000000000000000000000000000000000000000000000000000028152600401808273ffffffffffffffffffffffffffffffffffffffff1673ffffffffffffffffffffffffffffffffffffffff168152602001915050602060405180830381600087803b1580156138f657600080fd5b505af115801561390a573d6000803e3d6000fd5b505050506040513d602081101561392057600080fd5b810190808051906020019092919050505014151561393d57600080fd5b6001600660016101000a81548160ff0219169083600481111561395c57fe5b0217905550600260009054906101000a900473ffffffffffffffffffffffffffffffffffffffff1673ffffffffffffffffffffffffffffffffffffffff1663b66a0e5d6040518163ffffffff167c0100000000000000000000000000000000000000000000000000000000028152600401600060405180830381600087803b1580156139e757600080fd5b505af11580156139fb573d6000803e3d6000fd5b505050507f0b6b340830d52b5dd44a416ee7a14618083b381ba65f16a9c90930abba8de85a60014260405180836004811115613a3357fe5b60ff1681526020018281526020019250505060405180910390a150565b600065016356cc0000905090565b60076020528060005260406000206000915090508060000160009054906101000a900460ff16908060010154905082565b6000808284019050838110151515613aa357fe5b8091505092915050565b600080600660009054906101000a900460ff1660ff161415613b05576907f0e10af47c1c7000003073ffffffffffffffffffffffffffffffffffffffff1631101515613afc5760019050613b3a565b60009050613b3a565b613b0d610dcc565b3073ffffffffffffffffffffffffffffffffffffffff1631101515613b355760019050613b3a565b600090505b90565b6000613b59613b4a611a05565b83613d3890919063ffffffff16565b9050919050565b6000828211151515613b6e57fe5b818303905092915050565b613bce81600b60008673ffffffffffffffffffffffffffffffffffffffff1673ffffffffffffffffffffffffffffffffffffffff16815260200190815260200160002060010154613a8f90919063ffffffff16565b600b60008573ffffffffffffffffffffffffffffffffffffffff1673ffffffffffffffffffffffffffffffffffffffff16815260200190815260200160002060010181905550613c6982600b60008673ffffffffffffffffffffffffffffffffffffffff1673ffffffffffffffffffffffffffffffffffffffff16815260200190815260200160002060000154613a8f90919063ffffffff16565b600b60008573ffffffffffffffffffffffffffffffffffffffff1673ffffffffffffffffffffffffffffffffffffffff1681526020019081526020016000206000018190555080600560008282540192505081905550505050565b6002600660016101000a81548160ff02191690836004811115613ce357fe5b02179055507f0b6b340830d52b5dd44a416ee7a14618083b381ba65f16a9c90930abba8de85a60024260405180836004811115613d1c57fe5b60ff1681526020018281526020019250505060405180910390a1565b6000806000841415613d4d5760009150613d6c565b8284029050828482811515613d5e57fe5b04141515613d6857fe5b8091505b5092915050565b6000808284811515613d8157fe5b0490508091505092915050565b613d96611c91565b1515613da157600080fd5b613da96140db565b613db1614b39565b50600260009054906101000a900473ffffffffffffffffffffffffffffffffffffffff1673ffffffffffffffffffffffffffffffffffffffff166358a687ec6040518163ffffffff167c0100000000000000000000000000000000000000000000000000000000028152600401600060405180830381600087803b158015613e3857600080fd5b505af1158015613e4c573d6000803e3d6000fd5b50505050600260009054906101000a900473ffffffffffffffffffffffffffffffffffffffff1673ffffffffffffffffffffffffffffffffffffffff1663611ccb9a60606040519081016040528060c88152602001600a81526020016101908152506040518263ffffffff167c01000000000000000000000000000000000000000000000000000000000281526004018082600360200280838360005b83811015613f04578082015181840152602081019050613ee9565b50505050905001915050600060405180830381600087803b158015613f2857600080fd5b505af1158015613f3c573d6000803e3d6000fd5b50505050565b6000806000809054906101000a900473ffffffffffffffffffffffffffffffffffffffff1673ffffffffffffffffffffffffffffffffffffffff166359269e67856040518263ffffffff167c0100000000000000000000000000000000000000000000000000000000028152600401808273ffffffffffffffffffffffffffffffffffffffff1673ffffffffffffffffffffffffffffffffffffffff168152602001915050602060405180830381600087803b15801561400157600080fd5b505af1158015614015573d6000803e3d6000fd5b505050506040513d602081101561402b57600080fd5b810190808051906020019092919050505090506000600481111561404b57fe5b81600481111561405757fe5b1480614078575082600481111561406a57fe5b81600481111561407657fe5b145b1561408657600091506140d4565b60048081111561409257fe5b81600481111561409e57fe5b1480156140c15750600360048111156140b357fe5b8360048111156140bf57fe5b145b156140cf57600091506140d4565b600191505b5092915050565b6000809050600090505b600d805490508110156143a257600060096000600d8481548110151561410757fe5b9060005260206000200160009054906101000a900473ffffffffffffffffffffffffffffffffffffffff1673ffffffffffffffffffffffffffffffffffffffff1673ffffffffffffffffffffffffffffffffffffffff16815260200190815260200160002054111561439557600360009054906101000a900473ffffffffffffffffffffffffffffffffffffffff1673ffffffffffffffffffffffffffffffffffffffff1663497ff7ce600d838154811015156141c057fe5b9060005260206000200160009054906101000a900473ffffffffffffffffffffffffffffffffffffffff1660096000600d868154811015156141fe57fe5b9060005260206000200160009054906101000a900473ffffffffffffffffffffffffffffffffffffffff1673ffffffffffffffffffffffffffffffffffffffff1673ffffffffffffffffffffffffffffffffffffffff1681526020019081526020016000205460006040518463ffffffff167c0100000000000000000000000000000000000000000000000000000000028152600401808473ffffffffffffffffffffffffffffffffffffffff1673ffffffffffffffffffffffffffffffffffffffff1681526020018381526020018260028111156142d957fe5b60ff1681526020019350505050600060405180830381600087803b15801561430057600080fd5b505af1158015614314573d6000803e3d6000fd5b5050505060096000600d8381548110151561432b57fe5b9060005260206000200160009054906101000a900473ffffffffffffffffffffffffffffffffffffffff1673ffffffffffffffffffffffffffffffffffffffff1673ffffffffffffffffffffffffffffffffffffffff168152602001908152602001600020600090555b80806001019150506140e5565b600090505b600e80549050811015614664576000600a6000600e848154811015156143c957fe5b9060005260206000200160009054906101000a900473ffffffffffffffffffffffffffffffffffffffff1673ffffffffffffffffffffffffffffffffffffffff1673ffffffffffffffffffffffffffffffffffffffff16815260200190815260200160002054111561465757600360009054906101000a900473ffffffffffffffffffffffffffffffffffffffff1673ffffffffffffffffffffffffffffffffffffffff1663497ff7ce600e8381548110151561448257fe5b9060005260206000200160009054906101000a900473ffffffffffffffffffffffffffffffffffffffff16600a6000600e868154811015156144c057fe5b9060005260206000200160009054906101000a900473ffffffffffffffffffffffffffffffffffffffff1673ffffffffffffffffffffffffffffffffffffffff1673ffffffffffffffffffffffffffffffffffffffff1681526020019081526020016000205460016040518463ffffffff167c0100000000000000000000000000000000000000000000000000000000028152600401808473ffffffffffffffffffffffffffffffffffffffff1673ffffffffffffffffffffffffffffffffffffffff16815260200183815260200182600281111561459b57fe5b60ff1681526020019350505050600060405180830381600087803b1580156145c257600080fd5b505af11580156145d6573d6000803e3d6000fd5b50505050600a6000600e838154811015156145ed57fe5b9060005260206000200160009054906101000a900473ffffffffffffffffffffffffffffffffffffffff1673ffffffffffffffffffffffffffffffffffffffff1673ffffffffffffffffffffffffffffffffffffffff168152602001908152602001600020600090555b80806001019150506143a7565b600090505b600c8054905081101561492657600060086000600c8481548110151561468b57fe5b9060005260206000200160009054906101000a900473ffffffffffffffffffffffffffffffffffffffff1673ffffffffffffffffffffffffffffffffffffffff1673ffffffffffffffffffffffffffffffffffffffff16815260200190815260200160002054111561491957600360009054906101000a900473ffffffffffffffffffffffffffffffffffffffff1673ffffffffffffffffffffffffffffffffffffffff1663497ff7ce600c8381548110151561474457fe5b9060005260206000200160009054906101000a900473ffffffffffffffffffffffffffffffffffffffff1660086000600c8681548110151561478257fe5b9060005260206000200160009054906101000a900473ffffffffffffffffffffffffffffffffffffffff1673ffffffffffffffffffffffffffffffffffffffff1673ffffffffffffffffffffffffffffffffffffffff1681526020019081526020016000205460026040518463ffffffff167c0100000000000000000000000000000000000000000000000000000000028152600401808473ffffffffffffffffffffffffffffffffffffffff1673ffffffffffffffffffffffffffffffffffffffff16815260200183815260200182600281111561485d57fe5b60ff1681526020019350505050600060405180830381600087803b15801561488457600080fd5b505af1158015614898573d6000803e3d6000fd5b5050505060086000600c838154811015156148af57fe5b9060005260206000200160009054906101000a900473ffffffffffffffffffffffffffffffffffffffff1673ffffffffffffffffffffffffffffffffffffffff1673ffffffffffffffffffffffffffffffffffffffff168152602001908152602001600020600090555b8080600101915050614669565b600160009054906101000a900473ffffffffffffffffffffffffffffffffffffffff1673ffffffffffffffffffffffffffffffffffffffff1663a9059cbb600360009054906101000a900473ffffffffffffffffffffffffffffffffffffffff16614a7560c86032608c0101614a676103e8600160009054906101000a900473ffffffffffffffffffffffffffffffffffffffff1673ffffffffffffffffffffffffffffffffffffffff166318160ddd6040518163ffffffff167c0100000000000000000000000000000000000000000000000000000000028152600401602060405180830381600087803b158015614a1e57600080fd5b505af1158015614a32573d6000803e3d6000fd5b505050506040513d6020811015614a4857600080fd5b8101908080519060200190929190505050613d7390919063ffffffff16565b613d3890919063ffffffff16565b6040518363ffffffff167c0100000000000000000000000000000000000000000000000000000000028152600401808373ffffffffffffffffffffffffffffffffffffffff1673ffffffffffffffffffffffffffffffffffffffff16815260200182815260200192505050602060405180830381600087803b158015614afa57600080fd5b505af1158015614b0e573d6000803e3d6000fd5b505050506040513d6020811015614b2457600080fd5b81019080805190602001909291905050505050565b6000600260009054906101000a900473ffffffffffffffffffffffffffffffffffffffff1673ffffffffffffffffffffffffffffffffffffffff166108fc3073ffffffffffffffffffffffffffffffffffffffff16319081150290604051600060405180830381858888f19350505050158015614bba573d6000803e3d6000fd5b50600160009054906101000a900473ffffffffffffffffffffffffffffffffffffffff1673ffffffffffffffffffffffffffffffffffffffff1663a9059cbb600260009054906101000a900473ffffffffffffffffffffffffffffffffffffffff16614d08600a61019001614cfa6103e8600160009054906101000a900473ffffffffffffffffffffffffffffffffffffffff1673ffffffffffffffffffffffffffffffffffffffff166318160ddd6040518163ffffffff167c0100000000000000000000000000000000000000000000000000000000028152600401602060405180830381600087803b158015614cb157600080fd5b505af1158015614cc5573d6000803e3d6000fd5b505050506040513d6020811015614cdb57600080fd5b8101908080519060200190929190505050613d7390919063ffffffff16565b613d3890919063ffffffff16565b6040518363ffffffff167c0100000000000000000000000000000000000000000000000000000000028152600401808373ffffffffffffffffffffffffffffffffffffffff1673ffffffffffffffffffffffffffffffffffffffff16815260200182815260200192505050602060405180830381600087803b158015614d8d57600080fd5b505af1158015614da1573d6000803e3d6000fd5b505050506040513d6020811015614db757600080fd5b81019080805190602001909291905050505060019050905600a165627a7a7230582070e4fb81509cff7be8e61b53ea9dd5027c450ef50b057e74301fb0e84ead90a70029",
  "source": "pragma solidity ^0.4.23;\n\nimport \"../token/ICustomToken.sol\";\nimport \"../fund/IFund.sol\";\nimport \"../lib/SafeMath.sol\";\nimport \"../lib/Param.sol\";\nimport \"../ownership/Ownable.sol\";\nimport \"../token/IVestingTokens.sol\";\nimport \"./ICrowdsale.sol\";\n/**\n * @title Crowdsale\n * @dev Crowdsale is a base contract for managing a token crowdsale.\n * Crowdsales have a start and end timestamps, where investors can make\n * token purchases and the crowdsale will assign them tokens based\n * on a token per ETH rate. IFunds collected are forwarded to a wallet\n * as they arrive. The contract requires a MintableToken that will be\n * minted as contributions arrive, note that the crowdsale contract\n * must be owner of the token in order to be able to mint it.\n */\ncontract Crowdsale is Ownable, ICrowdsale, Param {\n    /* Library and Typedefs */\n    using SafeMath for uint256;\n    struct Purchase{\n        uint ethers;\n        uint tokens;\n    }\n    struct Whitelist{\n        bool isListed;\n        uint maxcap;\n    }\n\n    /* Global Variables */\n    ICustomToken mToken; //address\n    IFund mFund; // ether bank, it should be IFund.sol's Contract address\n    IVestingTokens mVestingTokens;\n\n    uint mCurrentAmount; //ether amount\n    uint public mContributedTokens = 0;\n    // discount rate -20%(~1/8) => -15%(~2/8) => -10%(~3/8) => -5%(~4/8) => 0%(~8/8)\n    // cap is ratio of tokens, discount rate is of ethers\n    uint8 public mCurrentDiscountPerc = 20; //inital discount rate\n    STATE mCurrentState = STATE.PREPARE;\n\n    // index => address => amount set of crowdsale participants\n    mapping(address => Whitelist) public mWhitelist;\n    mapping(address => uint) mPrivateSale;\n    mapping(address => uint) mDevelopers;\n    mapping(address => uint) mAdvisors;\n    mapping(address => Purchase) public mContributors;\n    address[] mPrivateSaleIndex;\n    address[] mDevelopersIndex;\n    address[] mAdvisorsIndex;\n\n\n\n    /* Events */\n    event TokenPurchase(address indexed purchaser, address indexed beneficiary, uint256 wei_amount, uint256 token_amount);\n    event EtherChanges(address indexed purchaser, uint value); // send back ETH changes\n    event StateChanged(STATE state, uint time);\n    event RefundEthers(address indexed _receiver, uint _ethers);\n\n\n\n    /* Modifiers */\n    modifier period(STATE _state) {\n        require(mCurrentState == _state);\n        _;\n    }\n\n\n\n    /* Constructor */\n    constructor(\n        address _tokenAddress,\n        address _fundAddress,\n        address _membersAddress\n        ) public\n        Ownable(_membersAddress) {\n            require(_fundAddress != address(0));\n            require(_tokenAddress != address(0));\n            require(_membersAddress != address(0));\n\n            mFund = IFund(_fundAddress);\n            mToken = ICustomToken(_tokenAddress);\n    }\n\n\n\n    /* View Function */\n    function getStartTime() view external returns(uint256) { return SALE_START_TIME; }\n    function getEndTime() view external returns(uint256) { return SALE_END_TIME; }\n    function getFundingGoal() view external returns(uint256) { return HARD_CAP; }\n    function getCurrentSate() view external\n        returns(STATE){\n            if(mCurrentState == STATE.PREPARE){\n                return STATE.PREPARE;\n            } else if(mCurrentState == STATE.ACTIVE){\n                return STATE.ACTIVE;\n            } else if(mCurrentState == STATE.FINISHED){\n                return STATE.FINISHED;\n            } else if(mCurrentState == STATE.FINALIZED){\n                return STATE.FINALIZED;\n            } else if(mCurrentState == STATE.REFUND){\n                return STATE.REFUND;\n            } else\n                revert();\n    }\n    // get current rate including the dicount percentage\n    function getRate() public view \n        returns (uint){\n            uint rate = DEFAULT_RATE;\n            if(mCurrentDiscountPerc == 0){\n                return rate;\n            } else{\n                return rate.mul(100).div(100 - mCurrentDiscountPerc);\n            }\n    }\n    // calculate next cap\n    // Override this with custom calculation\n    function getNextCap() public view \n        returns(uint){\n            require(mCurrentDiscountPerc > 0);\n            return HARD_CAP.mul(5 - mCurrentDiscountPerc/5).div(8);\n    }\n\n    //divide type and check amount of current locked tokens\n    function getLockedAmount(IVestingTokens.LOCK_TYPE _type) view public \n        returns(uint256){\n            uint i;\n            uint sum = 0;\n\n            if(_type == IVestingTokens.LOCK_TYPE.DEV){\n                for (i = 0; i < mDevelopersIndex.length; i++) {\n                    sum += mDevelopers[mDevelopersIndex[i]];\n                }\n            } else if(_type == IVestingTokens.LOCK_TYPE.ADV){\n                for (i = 0; i < mAdvisorsIndex.length; i++) {\n                    sum += mAdvisors[mAdvisorsIndex[i]];\n                }\n            } else if(_type == IVestingTokens.LOCK_TYPE.PRIV){\n                for (i = 0; i < mPrivateSaleIndex.length; i++) {\n                    sum += mPrivateSale[mPrivateSaleIndex[i]];\n                }\n            } else\n                revert();\n\n            return sum;\n    }\n    function getPersonalLockedAmount(address _address, IVestingTokens.LOCK_TYPE _type) view public \n        returns(uint256){\n            require(_address != address(0));\n\n            if(_type == IVestingTokens.LOCK_TYPE.DEV){\n                return mDevelopers[_address];\n            } else if(_type == IVestingTokens.LOCK_TYPE.ADV){\n                return mAdvisors[_address];\n            } else if(_type == IVestingTokens.LOCK_TYPE.PRIV){\n                return mPrivateSale[_address];\n            } else\n                revert();\n    }\n    // Business logic could be described here or getRate()\n    function _getTokenAmount(uint256 weiAmount) private view \n        returns (uint256) {\n            return weiAmount.mul(getRate());\n    }\n\n    // function which checks the amount would be over next cap\n    function _isOver() private view \n        returns(bool){\n            if(mCurrentDiscountPerc == 0){\n                if(address(this).balance >= HARD_CAP){\n                    return true;\n                } else{\n                    return false;\n                }\n            }\n            if(address(this).balance >= getNextCap()){\n                return true;\n            } else{\n                return false;\n            }\n    }\n    //check the percentage of locked tokens filled;\n    function isLockFilled() public view\n        returns(bool){\n            uint currentLockedAmount = getLockedAmount(IVestingTokens.LOCK_TYPE.DEV);\n            if(currentLockedAmount < mToken.totalSupply().div(1000).mul(DEV_TOKEN_PERC)){\n                revert(); // FIXIT:  +mToken.totalSupply().div(1000).mul(DEV_TOKEN_PERC).sub(currentLockedAmount));\n            }\n            currentLockedAmount = getLockedAmount(IVestingTokens.LOCK_TYPE.ADV);\n            if(currentLockedAmount < mToken.totalSupply().div(1000).mul(ADV_TOKEN_PERC)){\n                revert(); // FIXIT:  +mToken.totalSupply().div(1000).mul(ADV_TOKEN_PERC).sub(currentLockedAmount));\n            }\n            currentLockedAmount = getLockedAmount(IVestingTokens.LOCK_TYPE.PRIV);\n            if(currentLockedAmount < mToken.totalSupply().div(1000).mul(PRIV_TOKEN_PERC)){\n                revert(); // FIXIT:  +mToken.totalSupply().div(1000).mul(PRIV_TOKEN_PERC).sub(currentLockedAmount));\n            }\n            return true;\n    }\n\n\n\n    /* Change CrowdSale State, call only once */\n    function activateSale() external \n        onlyOwner period(STATE.PREPARE){\n            require(now < SALE_END_TIME);\n            require(address(mVestingTokens) != address(0));\n            require(mToken.balanceOf(address(this)) == mToken.totalSupply());\n\n            mCurrentState = STATE.ACTIVE;\n            mFund.startSale(); // tell crowdsale started\n            emit StateChanged(STATE.ACTIVE, now);\n    }\n    function finishSale() external \n        onlyOwner period(STATE.ACTIVE){\n            require(now >= SALE_END_TIME);\n            require(address(this).balance >= SOFT_CAP);\n            _finish();\n    }\n    function finalizeSale() external\n        onlyOwner period(STATE.FINISHED) {\n            _finalize();\n            mCurrentState = STATE.FINALIZED;\n            emit StateChanged(STATE.FINALIZED, now);\n    }\n    function activeRefund() external\n        period(STATE.ACTIVE){\n            require(now >= SALE_END_TIME);\n            require(address(this).balance < SOFT_CAP);\n            mCurrentState = STATE.REFUND;\n            emit StateChanged(STATE.REFUND, now);\n    }\n\n\n\n    /* Fallback Function */\n    function () external payable {\n            buyTokens(msg.sender);\n    }\n\n\n\n    /* Token Purchase Function */\n    function buyTokens(address _beneficiary) public payable \n        period(STATE.ACTIVE) {\n            require(_beneficiary != address(0));\n            require(msg.value > 0);\n            require(now >= SALE_START_TIME && now < SALE_END_TIME);\n            require(mWhitelist[_beneficiary].isListed);\n\n            uint weiAmount = msg.value;\n            require(mWhitelist[_beneficiary].maxcap >= mContributors[_beneficiary].ethers.add(weiAmount));\n            // calculate token amount to be created\n            uint tokens;\n            if(!_isOver()){ //check if estimate ether exceeds next cap\n                tokens = _getTokenAmount(weiAmount);\n                emit TokenPurchase(msg.sender, _beneficiary, weiAmount, tokens);\n            } else{\n                //when estimate ether exceeds next cap\n                //we divide input ether by next cap\n                uint ether1;\n                uint ether2;\n                if(mCurrentDiscountPerc > 0){\n                    // When discount rate should be changed\n                    ether2 = address(this).balance.sub(getNextCap()); //(balance + weiAmount) - NEXT_CAP\n                    ether1 = weiAmount.sub(ether2);\n                    tokens = _getTokenAmount(ether1);\n                    emit TokenPurchase(msg.sender, _beneficiary, ether1, tokens);\n\n                    uint8 temp = mCurrentDiscountPerc - 5;\n                    require(temp < mCurrentDiscountPerc);\n                    mCurrentDiscountPerc = temp; // Update discount percentage\n                    uint additionalTokens = _getTokenAmount(ether2);\n                    emit TokenPurchase(msg.sender, _beneficiary, ether2, additionalTokens);\n                    tokens = tokens.add(additionalTokens);\n                } else if(mCurrentDiscountPerc == 0){\n                    // Do when CrowdSale Ended\n                    ether2 = address(this).balance.sub(HARD_CAP);\n                    ether1 = weiAmount.sub(ether2);\n                    tokens = _getTokenAmount(ether1);\n\n                    emit TokenPurchase(msg.sender, _beneficiary, ether1, tokens);\n                    msg.sender.transfer(ether2); //pay back\n                    emit EtherChanges(msg.sender, ether2);\n                    //add to map\n                    _addToUserContributed(_beneficiary, ether1, tokens);\n                    _finish();\n                    //finalize CrowdSale\n                    return;\n                } else{\n                    revert();\n                }\n            }\n            //add to map\n            _addToUserContributed(_beneficiary, weiAmount, tokens);\n    }\n    function _addToUserContributed(\n        address _address,\n        uint _additionalEther,\n        uint _additionalToken) private{\n            mContributors[_address].tokens = mContributors[_address].tokens.add(_additionalToken);\n            mContributors[_address].ethers = mContributors[_address].ethers.add(_additionalEther);\n            \n            mContributedTokens += _additionalToken;\n    }\n    function receiveTokens() external \n        period(STATE.FINALIZED){\n            require(mContributors[msg.sender].tokens > 0);\n            mToken.transfer(msg.sender, mContributors[msg.sender].tokens);\n            delete mContributors[msg.sender];\n    }\n\n    function refund() external \n        period(STATE.REFUND){\n            require(mContributors[msg.sender].ethers > 0);\n            uint ethers = mContributors[msg.sender].ethers;\n            msg.sender.transfer(ethers);\n            delete mContributors[msg.sender];\n            emit RefundEthers(msg.sender, ethers);\n    }\n\n\n\n    /* Set Functions */\n    //setting vesting token address only once\n    function setVestingTokens(address _vestingTokensAddress) external \n        onlyOwner period(STATE.PREPARE) {\n            require(mVestingTokens == address(0)); //only once\n            mVestingTokens = IVestingTokens(_vestingTokensAddress);\n    }\n    function addWhitelist(address _whitelist, uint _maxcap) external onlyOwner{\n        require(mCurrentState < STATE.FINISHED);\n        mWhitelist[_whitelist].isListed = true;\n        mWhitelist[_whitelist].maxcap = _maxcap;\n    }\n    //add developers, advisors, privateSale\n    //check if it exceeds percentage\n\n    /*\n        We should consider to lower gas of below functions\n        There are some duplicated check code\n    */\n\n    function setToDevelopers(address _address, uint _tokenWeiAmount) external \n        onlyOwner{\n            require(_address != address(0));\n            require(!_isEnrollmentDuplicated(_address, IMembers.MEMBER_LEVEL.DEV));\n            uint lockedAmount = getLockedAmount(IVestingTokens.LOCK_TYPE.DEV).add(_tokenWeiAmount);\n            require(lockedAmount <= mToken.totalSupply().div(1000).mul(DEV_TOKEN_PERC));\n            // Solidity will roll back when it reverted\n            // check already included\n            if(mDevelopers[_address] > 0){\n                mDevelopers[_address] = _tokenWeiAmount;\n                if(_tokenWeiAmount == 0){   // if input == 0 => delete\n                    members.delete_developer(_address);\n                }\n            } else{\n                if(_tokenWeiAmount == 0){   // if input == 0 => revert\n                    revert();\n                }\n                // add members\n                mDevelopers[_address] = _tokenWeiAmount;\n                mDevelopersIndex.push(_address);\n                members.enroll_developer(_address);\n            }\n            \n    }\n    function setToAdvisors(address _address, uint _tokenWeiAmount) external \n        onlyOwner{\n            require(_address != address(0));\n            require(!_isEnrollmentDuplicated(_address, IMembers.MEMBER_LEVEL.ADV));\n            uint lockedAmount = getLockedAmount(IVestingTokens.LOCK_TYPE.ADV).add(_tokenWeiAmount);\n            require(lockedAmount <= mToken.totalSupply().div(1000).mul(ADV_TOKEN_PERC));\n            // Solidity will roll back when it reverted\n            // check already included\n            if(mAdvisors[_address] > 0){\n                mAdvisors[_address] = _tokenWeiAmount;\n                if(_tokenWeiAmount == 0){   // if input == 0 => delete\n                    members.delete_advisor(_address);\n                }\n            } else{\n                if(_tokenWeiAmount == 0){   // if input == 0 => revert\n                    revert();\n                }\n                // add members\n                mAdvisors[_address] = _tokenWeiAmount;\n                mAdvisorsIndex.push(_address);\n                members.enroll_advisor(_address);\n            }\n            \n    }\n    function setToPrivateSale(address _address, uint _tokenWeiAmount) external \n        onlyOwner{\n            require(_address != address(0));\n            require(!_isEnrollmentDuplicated(_address, IMembers.MEMBER_LEVEL.PRIV));\n            uint lockedAmount = getLockedAmount(IVestingTokens.LOCK_TYPE.PRIV).add(_tokenWeiAmount);\n            require(lockedAmount <= mToken.totalSupply().div(1000).mul(PRIV_TOKEN_PERC));\n            // Solidity will roll back when it reverted\n            // check already included\n            if(mPrivateSale[_address] > 0){\n                mPrivateSale[_address] = _tokenWeiAmount;\n                if(_tokenWeiAmount == 0){   // if input == 0 => delete\n                    members.delete_privsale(_address);\n                }\n            } else{\n                if(_tokenWeiAmount == 0){   // if input == 0 => revert\n                    revert();\n                }\n                // add members\n                mPrivateSale[_address] = _tokenWeiAmount;\n                mPrivateSaleIndex.push(_address);\n                members.enroll_privsale(_address);\n            } \n    }\n\n    function _isEnrollmentDuplicated(\n        address _address,\n        IMembers.MEMBER_LEVEL _level\n        ) private view\n        returns(bool){\n            IMembers.MEMBER_LEVEL level = members.getMemberLevel(_address);\n            if(level == IMembers.MEMBER_LEVEL.NONE || level == _level){\n                // left means trying update\n                // right means trying enrollment first time\n                return false;\n            }\n            if(level == IMembers.MEMBER_LEVEL.OWNER && _level == IMembers.MEMBER_LEVEL.DEV){\n                return false;\n            }\n            return true;\n    }\n\n\n\n    /* Finalizing Functions */\n    function _finish() private{\n            mCurrentState = STATE.FINISHED;\n            emit StateChanged(STATE.FINISHED, now);\n    }\n    function _finalize() private {\n            //lock up tokens\n            require(isLockFilled());\n            _lockup();\n            //finalize funds\n            //give initial fund\n            _forwardIFunds();\n            mFund.finalizeSale();\n            mFund.dividePoolAfterSale([PUB_TOKEN_PERC, INCENTIVE_TOKEN_PERC, RESERVE_TOKEN_PERC]);\n            //Refund vote activate\n            //set tapVoting available\n            //change state\n    }\n\n    function _lockup() private {\n            //lock tokens\n            uint i = 0;\n            for (i = 0; i < mDevelopersIndex.length; i++) {\n                if(mDevelopers[mDevelopersIndex[i]] > 0){\n                    mVestingTokens.lockup(\n                        mDevelopersIndex[i],\n                        mDevelopers[mDevelopersIndex[i]],\n                        IVestingTokens.LOCK_TYPE.DEV\n                    );\n                    delete mDevelopers[mDevelopersIndex[i]];\n                }\n            }\n            for (i = 0; i < mAdvisorsIndex.length; i++) {\n                if(mAdvisors[mAdvisorsIndex[i]] > 0){\n                    mVestingTokens.lockup(\n                        mAdvisorsIndex[i],\n                        mAdvisors[mAdvisorsIndex[i]],\n                        IVestingTokens.LOCK_TYPE.ADV\n                    );\n                    delete mAdvisors[mAdvisorsIndex[i]];\n                }\n            }\n            for (i = 0; i < mPrivateSaleIndex.length; i++) {\n                if(mPrivateSale[mPrivateSaleIndex[i]] > 0 ){\n                    mVestingTokens.lockup(\n                        mPrivateSaleIndex[i],\n                        mPrivateSale[mPrivateSaleIndex[i]],\n                        IVestingTokens.LOCK_TYPE.PRIV\n                    );\n                    delete mPrivateSale[mPrivateSaleIndex[i]];\n                }\n            }\n            //send Vesting tokens to VestingTokens.sol\n            mToken.transfer(mVestingTokens, mToken.totalSupply().div(1000).mul(DEV_TOKEN_PERC + ADV_TOKEN_PERC + PRIV_TOKEN_PERC));\n    }\n    // send ether to the fund collection wallet\n    // override to create custom fund forwarding mechanisms\n    function _forwardIFunds() private \n        returns (bool){\n            address(mFund).transfer(address(this).balance); //send ether\n            mToken.transfer(mFund, mToken.totalSupply().div(1000).mul(RESERVE_TOKEN_PERC+INCENTIVE_TOKEN_PERC)); //send tokens\n            return true;\n    }\n}\n",
  "sourcePath": "/Users/pyo/blockchain/ICO2.0/contracts/crowdsale/Crowdsale.sol",
  "compiler": {
    "name": "solc",
    "version": "0.4.23+commit.124ca40d.Emscripten.clang"
  },
  "schemaVersion": "2.0.0",
  "updatedAt": "2018-05-22T12:40:36.273Z"
}