{
  "contractName": "Fund",
  "abi": [
    {
      "constant": true,
      "inputs": [
        {
          "name": "account",
          "type": "address"
        }
      ],
      "name": "isOwner",
      "outputs": [
        {
          "name": "",
          "type": "bool"
        }
      ],
      "payable": false,
      "stateMutability": "view",
      "type": "function"
    },
    {
      "constant": true,
      "inputs": [
        {
          "name": "account",
          "type": "address"
        }
      ],
      "name": "isLockedGroup",
      "outputs": [
        {
          "name": "",
          "type": "bool"
        }
      ],
      "payable": false,
      "stateMutability": "view",
      "type": "function"
    },
    {
      "constant": true,
      "inputs": [
        {
          "name": "account",
          "type": "address"
        }
      ],
      "name": "isDeveloper",
      "outputs": [
        {
          "name": "",
          "type": "bool"
        }
      ],
      "payable": false,
      "stateMutability": "view",
      "type": "function"
    },
    {
      "constant": true,
      "inputs": [],
      "name": "lastWithdrawTime",
      "outputs": [
        {
          "name": "",
          "type": "uint256"
        }
      ],
      "payable": false,
      "stateMutability": "view",
      "type": "function"
    },
    {
      "constant": true,
      "inputs": [],
      "name": "members",
      "outputs": [
        {
          "name": "",
          "type": "address"
        }
      ],
      "payable": false,
      "stateMutability": "view",
      "type": "function"
    },
    {
      "inputs": [
        {
          "name": "_token",
          "type": "address"
        },
        {
          "name": "_teamWallet",
          "type": "address"
        },
        {
          "name": "_membersAddress",
          "type": "address"
        }
      ],
      "payable": false,
      "stateMutability": "nonpayable",
      "type": "constructor"
    },
    {
      "payable": true,
      "stateMutability": "payable",
      "type": "fallback"
    },
    {
      "anonymous": false,
      "inputs": [
        {
          "indexed": true,
          "name": "time",
          "type": "uint256"
        },
        {
          "indexed": true,
          "name": "changed_state",
          "type": "uint8"
        }
      ],
      "name": "ChangeFundState",
      "type": "event"
    },
    {
      "anonymous": false,
      "inputs": [
        {
          "indexed": true,
          "name": "time",
          "type": "uint256"
        },
        {
          "indexed": true,
          "name": "changed_tap",
          "type": "uint256"
        }
      ],
      "name": "ChangeTap",
      "type": "event"
    },
    {
      "anonymous": false,
      "inputs": [
        {
          "indexed": true,
          "name": "inc_addr",
          "type": "address"
        },
        {
          "indexed": true,
          "name": "res_addr",
          "type": "address"
        }
      ],
      "name": "DividePoolAfterSale",
      "type": "event"
    },
    {
      "anonymous": false,
      "inputs": [
        {
          "indexed": true,
          "name": "time",
          "type": "uint256"
        },
        {
          "indexed": true,
          "name": "_teamwallet",
          "type": "address"
        }
      ],
      "name": "WithdrawTap",
      "type": "event"
    },
    {
      "anonymous": false,
      "inputs": [
        {
          "indexed": true,
          "name": "time",
          "type": "uint256"
        },
        {
          "indexed": true,
          "name": "_caller",
          "type": "address"
        }
      ],
      "name": "WithdrawFromIncentive",
      "type": "event"
    },
    {
      "anonymous": false,
      "inputs": [
        {
          "indexed": true,
          "name": "time",
          "type": "uint256"
        },
        {
          "indexed": true,
          "name": "_teamwallet",
          "type": "address"
        }
      ],
      "name": "WithdrawFromReserve",
      "type": "event"
    },
    {
      "anonymous": false,
      "inputs": [
        {
          "indexed": true,
          "name": "time",
          "type": "uint256"
        },
        {
          "indexed": true,
          "name": "refund_addr",
          "type": "address"
        },
        {
          "indexed": true,
          "name": "wei_amount",
          "type": "uint256"
        }
      ],
      "name": "Refund",
      "type": "event"
    },
    {
      "constant": true,
      "inputs": [],
      "name": "publicSupply",
      "outputs": [
        {
          "name": "",
          "type": "uint256"
        }
      ],
      "payable": false,
      "stateMutability": "view",
      "type": "function"
    },
    {
      "constant": true,
      "inputs": [],
      "name": "getWithdrawable",
      "outputs": [
        {
          "name": "",
          "type": "uint256"
        }
      ],
      "payable": false,
      "stateMutability": "view",
      "type": "function"
    },
    {
      "constant": true,
      "inputs": [],
      "name": "getLocked",
      "outputs": [
        {
          "name": "",
          "type": "bool"
        }
      ],
      "payable": false,
      "stateMutability": "view",
      "type": "function"
    },
    {
      "constant": false,
      "inputs": [
        {
          "name": "_addr",
          "type": "address"
        }
      ],
      "name": "setIncentivePoolAddress",
      "outputs": [
        {
          "name": "",
          "type": "bool"
        }
      ],
      "payable": false,
      "stateMutability": "nonpayable",
      "type": "function"
    },
    {
      "constant": false,
      "inputs": [
        {
          "name": "_addr",
          "type": "address"
        }
      ],
      "name": "setReservePoolAddress",
      "outputs": [
        {
          "name": "",
          "type": "bool"
        }
      ],
      "payable": false,
      "stateMutability": "nonpayable",
      "type": "function"
    },
    {
      "constant": false,
      "inputs": [
        {
          "name": "_votingfacaddr",
          "type": "address"
        }
      ],
      "name": "setVotingFactoryAddress",
      "outputs": [
        {
          "name": "",
          "type": "bool"
        }
      ],
      "payable": false,
      "stateMutability": "nonpayable",
      "type": "function"
    },
    {
      "constant": false,
      "inputs": [
        {
          "name": "_crowdsaleAddress",
          "type": "address"
        }
      ],
      "name": "setCrowdsaleAddress",
      "outputs": [
        {
          "name": "",
          "type": "bool"
        }
      ],
      "payable": false,
      "stateMutability": "nonpayable",
      "type": "function"
    },
    {
      "constant": false,
      "inputs": [
        {
          "name": "_vestingTokensAddr",
          "type": "address"
        }
      ],
      "name": "setVestingTokensAddress",
      "outputs": [
        {
          "name": "",
          "type": "bool"
        }
      ],
      "payable": false,
      "stateMutability": "nonpayable",
      "type": "function"
    },
    {
      "constant": false,
      "inputs": [],
      "name": "startSale",
      "outputs": [],
      "payable": false,
      "stateMutability": "nonpayable",
      "type": "function"
    },
    {
      "constant": false,
      "inputs": [],
      "name": "finalizeSale",
      "outputs": [],
      "payable": false,
      "stateMutability": "nonpayable",
      "type": "function"
    },
    {
      "constant": false,
      "inputs": [],
      "name": "lockFund",
      "outputs": [
        {
          "name": "",
          "type": "bool"
        }
      ],
      "payable": false,
      "stateMutability": "nonpayable",
      "type": "function"
    },
    {
      "constant": false,
      "inputs": [
        {
          "name": "_tap",
          "type": "uint256"
        }
      ],
      "name": "changeTap",
      "outputs": [
        {
          "name": "",
          "type": "bool"
        }
      ],
      "payable": false,
      "stateMutability": "nonpayable",
      "type": "function"
    },
    {
      "constant": false,
      "inputs": [
        {
          "name": "asset_percent",
          "type": "uint256[3]"
        }
      ],
      "name": "dividePoolAfterSale",
      "outputs": [],
      "payable": false,
      "stateMutability": "nonpayable",
      "type": "function"
    },
    {
      "constant": false,
      "inputs": [],
      "name": "withdrawTap",
      "outputs": [
        {
          "name": "",
          "type": "bool"
        }
      ],
      "payable": true,
      "stateMutability": "payable",
      "type": "function"
    },
    {
      "constant": false,
      "inputs": [],
      "name": "refund",
      "outputs": [
        {
          "name": "",
          "type": "bool"
        }
      ],
      "payable": false,
      "stateMutability": "nonpayable",
      "type": "function"
    },
    {
      "constant": false,
      "inputs": [],
      "name": "dead",
      "outputs": [
        {
          "name": "",
          "type": "bool"
        }
      ],
      "payable": false,
      "stateMutability": "nonpayable",
      "type": "function"
    }
  ],
  "bytecode": "0x60806040526000600760006101000a81548160ff0219169083151502179055506000600760016101000a81548160ff0219169083151502179055506000600760026101000a81548160ff0219169083151502179055503480156200006257600080fd5b50604051606080620061dc8339810180604052810190808051906020019092919080519060200190929190805190602001909291905050508060008173ffffffffffffffffffffffffffffffffffffffff1614151515620000c257600080fd5b806000806101000a81548173ffffffffffffffffffffffffffffffffffffffff021916908373ffffffffffffffffffffffffffffffffffffffff16021790555050600760009054906101000a900460ff161515156200012057600080fd5b60008373ffffffffffffffffffffffffffffffffffffffff16141515156200014757600080fd5b60008273ffffffffffffffffffffffffffffffffffffffff16141515156200016e57600080fd5b60008173ffffffffffffffffffffffffffffffffffffffff16141515156200019557600080fd5b6001600760006101000a81548160ff02191690831515021790555060008060146101000a81548160ff02191690836004811115620001cf57fe5b021790555082600160006101000a81548173ffffffffffffffffffffffffffffffffffffffff021916908373ffffffffffffffffffffffffffffffffffffffff16021790555081600360006101000a81548173ffffffffffffffffffffffffffffffffffffffff021916908373ffffffffffffffffffffffffffffffffffffffff160217905550662386f26fc1000060058190555042600681905550505050615f5e806200027e6000396000f30060806040526004361062000133576000357c0100000000000000000000000000000000000000000000000000000000900463ffffffff1680631cd2fd4514620001355780631f35bc4014620001675780631fa35ad414620001c55780632b7bf1e214620001f35780632d49ffcd14620002515780632f54bf6e146200028357806336cf7c8714620002e157806339c2cf8e1462000313578063453c2474146200037157806358a687ec14620003cf578063590e1ae314620003e95780635e84d723146200041b5780635eca4a701462000449578063611ccb9a14620004a7578063813b03e314620004fc578063923a2722146200055a578063a29bcb3514620005a2578063aaf793c614620005c6578063ab2315111462000624578063b66a0e5d1462000652578063bdd4d18d146200066c575b005b3480156200014257600080fd5b506200014d620006c6565b604051808215151515815260200191505060405180910390f35b3480156200017457600080fd5b50620001ab600480360381019080803573ffffffffffffffffffffffffffffffffffffffff169060200190929190505050620009a5565b604051808215151515815260200191505060405180910390f35b348015620001d257600080fd5b50620001dd62000b83565b6040518082815260200191505060405180910390f35b3480156200020057600080fd5b5062000237600480360381019080803573ffffffffffffffffffffffffffffffffffffffff16906020019092919050505062000bb7565b604051808215151515815260200191505060405180910390f35b3480156200025e57600080fd5b506200026962000ef4565b604051808215151515815260200191505060405180910390f35b3480156200029057600080fd5b50620002c7600480360381019080803573ffffffffffffffffffffffffffffffffffffffff16906020019092919050505062000f0b565b604051808215151515815260200191505060405180910390f35b348015620002ee57600080fd5b50620002f962001005565b604051808215151515815260200191505060405180910390f35b3480156200032057600080fd5b5062000357600480360381019080803573ffffffffffffffffffffffffffffffffffffffff1690602001909291905050506200126c565b604051808215151515815260200191505060405180910390f35b3480156200037e57600080fd5b50620003b5600480360381019080803573ffffffffffffffffffffffffffffffffffffffff1690602001909291905050506200136f565b604051808215151515815260200191505060405180910390f35b348015620003dc57600080fd5b50620003e762001656565b005b348015620003f657600080fd5b506200040162001785565b604051808215151515815260200191505060405180910390f35b3480156200042857600080fd5b506200043362001b65565b6040518082815260200191505060405180910390f35b3480156200045657600080fd5b506200048d600480360381019080803573ffffffffffffffffffffffffffffffffffffffff16906020019092919050505062001da8565b604051808215151515815260200191505060405180910390f35b348015620004b457600080fd5b50620004fa600480360381019080806060019060038060200260405190810160405280929190826003602002808284378201915050505050919291929050505062001eab565b005b3480156200050957600080fd5b5062000540600480360381019080803573ffffffffffffffffffffffffffffffffffffffff16906020019092919050505062002337565b604051808215151515815260200191505060405180910390f35b3480156200056757600080fd5b50620005886004803603810190808035906020019092919050505062002515565b604051808215151515815260200191505060405180910390f35b620005ac620026d4565b604051808215151515815260200191505060405180910390f35b348015620005d357600080fd5b506200060a600480360381019080803573ffffffffffffffffffffffffffffffffffffffff169060200190929190505050620029b2565b604051808215151515815260200191505060405180910390f35b3480156200063157600080fd5b506200063c62002b90565b6040518082815260200191505060405180910390f35b3480156200065f57600080fd5b506200066a62002b96565b005b3480156200067957600080fd5b506200068462002cc5565b604051808273ffffffffffffffffffffffffffffffffffffffff1673ffffffffffffffffffffffffffffffffffffffff16815260200191505060405180910390f35b60006002806004811115620006d757fe5b600060149054906101000a900460ff166004811115620006f357fe5b1415156200070057600080fd5b600760039054906101000a900473ffffffffffffffffffffffffffffffffffffffff1673ffffffffffffffffffffffffffffffffffffffff1663355d76906040518163ffffffff167c0100000000000000000000000000000000000000000000000000000000028152600401602060405180830381600087803b1580156200078757600080fd5b505af11580156200079c573d6000803e3d6000fd5b505050506040513d6020811015620007b357600080fd5b810190808051906020019092919050505060003373ffffffffffffffffffffffffffffffffffffffff1614151515620007eb57600080fd5b8073ffffffffffffffffffffffffffffffffffffffff163373ffffffffffffffffffffffffffffffffffffffff161415156200082657600080fd5b600760029054906101000a900460ff161515156200084357600080fd5b6003600060146101000a81548160ff021916908360048111156200086357fe5b02179055506001600760026101000a81548160ff021916908315150217905550600260009054906101000a900473ffffffffffffffffffffffffffffffffffffffff1673ffffffffffffffffffffffffffffffffffffffff1663f83d08ba6040518163ffffffff167c0100000000000000000000000000000000000000000000000000000000028152600401602060405180830381600087803b1580156200090a57600080fd5b505af11580156200091f573d6000803e3d6000fd5b505050506040513d60208110156200093657600080fd5b810190808051906020019092919050505015156200095357600080fd5b600060149054906101000a900460ff1660048111156200096f57fe5b427f1be1dc31292702bf0d61a365493fc8e23e5f50751fd1e262a3dab77c64f30bab60405160405180910390a360019250505090565b60008060009054906101000a900473ffffffffffffffffffffffffffffffffffffffff1673ffffffffffffffffffffffffffffffffffffffff16635eca4a70336040518263ffffffff167c0100000000000000000000000000000000000000000000000000000000028152600401808273ffffffffffffffffffffffffffffffffffffffff1673ffffffffffffffffffffffffffffffffffffffff168152602001915050602060405180830381600087803b15801562000a6457600080fd5b505af115801562000a79573d6000803e3d6000fd5b505050506040513d602081101562000a9057600080fd5b8101908080519060200190929190505050151562000aad57600080fd5b600760029054906101000a900460ff1615151562000aca57600080fd5b60008273ffffffffffffffffffffffffffffffffffffffff161415151562000af157600080fd5b6000600460009054906101000a900473ffffffffffffffffffffffffffffffffffffffff1673ffffffffffffffffffffffffffffffffffffffff1614151562000b3957600080fd5b81600460006101000a81548173ffffffffffffffffffffffffffffffffffffffff021916908373ffffffffffffffffffffffffffffffffffffffff16021790555060019050919050565b600062000bb262000ba06006544262002cea90919063ffffffff16565b60055462002d0490919063ffffffff16565b905090565b60008060009054906101000a900473ffffffffffffffffffffffffffffffffffffffff1673ffffffffffffffffffffffffffffffffffffffff16635eca4a70336040518263ffffffff167c0100000000000000000000000000000000000000000000000000000000028152600401808273ffffffffffffffffffffffffffffffffffffffff1673ffffffffffffffffffffffffffffffffffffffff168152602001915050602060405180830381600087803b15801562000c7657600080fd5b505af115801562000c8b573d6000803e3d6000fd5b505050506040513d602081101562000ca257600080fd5b8101908080519060200190929190505050151562000cbf57600080fd5b600760029054906101000a900460ff1615151562000cdc57600080fd5b60008273ffffffffffffffffffffffffffffffffffffffff161415151562000d0357600080fd5b6000600860009054906101000a900473ffffffffffffffffffffffffffffffffffffffff1673ffffffffffffffffffffffffffffffffffffffff1614151562000d4b57600080fd5b600160009054906101000a900473ffffffffffffffffffffffffffffffffffffffff1630600360009054906101000a900473ffffffffffffffffffffffffffffffffffffffff166000809054906101000a900473ffffffffffffffffffffffffffffffffffffffff1662000dbe62002f28565b808573ffffffffffffffffffffffffffffffffffffffff1673ffffffffffffffffffffffffffffffffffffffff1681526020018473ffffffffffffffffffffffffffffffffffffffff1673ffffffffffffffffffffffffffffffffffffffff1681526020018373ffffffffffffffffffffffffffffffffffffffff1673ffffffffffffffffffffffffffffffffffffffff1681526020018273ffffffffffffffffffffffffffffffffffffffff1673ffffffffffffffffffffffffffffffffffffffff168152602001945050505050604051809103906000f08015801562000eaa573d6000803e3d6000fd5b50600860006101000a81548173ffffffffffffffffffffffffffffffffffffffff021916908373ffffffffffffffffffffffffffffffffffffffff16021790555060019050919050565b6000600760029054906101000a900460ff16905090565b60008060009054906101000a900473ffffffffffffffffffffffffffffffffffffffff1673ffffffffffffffffffffffffffffffffffffffff16638da5cb5b6040518163ffffffff167c0100000000000000000000000000000000000000000000000000000000028152600401602060405180830381600087803b15801562000f9357600080fd5b505af115801562000fa8573d6000803e3d6000fd5b505050506040513d602081101562000fbf57600080fd5b810190808051906020019092919050505073ffffffffffffffffffffffffffffffffffffffff168273ffffffffffffffffffffffffffffffffffffffff16149050919050565b600060038060048111156200101657fe5b600060149054906101000a900460ff1660048111156200103257fe5b1415156200103f57600080fd5b600760029054906101000a900460ff1615156200105b57600080fd5b6000600160009054906101000a900473ffffffffffffffffffffffffffffffffffffffff1673ffffffffffffffffffffffffffffffffffffffff1614151515620010a457600080fd5b6000600260009054906101000a900473ffffffffffffffffffffffffffffffffffffffff1673ffffffffffffffffffffffffffffffffffffffff1614151515620010ed57600080fd5b6000600360009054906101000a900473ffffffffffffffffffffffffffffffffffffffff1673ffffffffffffffffffffffffffffffffffffffff16141515156200113657600080fd5b60008060009054906101000a900473ffffffffffffffffffffffffffffffffffffffff1673ffffffffffffffffffffffffffffffffffffffff16141515156200117e57600080fd5b6000600960009054906101000a900473ffffffffffffffffffffffffffffffffffffffff1673ffffffffffffffffffffffffffffffffffffffff1614151515620011c757600080fd5b6000600860009054906101000a900473ffffffffffffffffffffffffffffffffffffffff1673ffffffffffffffffffffffffffffffffffffffff16141515156200121057600080fd5b678ac7230489e800003073ffffffffffffffffffffffffffffffffffffffff1631111515156200123f57600080fd5b6004600060146101000a81548160ff021916908360048111156200125f57fe5b0217905550600191505090565b60008060009054906101000a900473ffffffffffffffffffffffffffffffffffffffff1673ffffffffffffffffffffffffffffffffffffffff166339c2cf8e836040518263ffffffff167c0100000000000000000000000000000000000000000000000000000000028152600401808273ffffffffffffffffffffffffffffffffffffffff1673ffffffffffffffffffffffffffffffffffffffff168152602001915050602060405180830381600087803b1580156200132b57600080fd5b505af115801562001340573d6000803e3d6000fd5b505050506040513d60208110156200135757600080fd5b81019080805190602001909291905050509050919050565b60008060009054906101000a900473ffffffffffffffffffffffffffffffffffffffff1673ffffffffffffffffffffffffffffffffffffffff16635eca4a70336040518263ffffffff167c0100000000000000000000000000000000000000000000000000000000028152600401808273ffffffffffffffffffffffffffffffffffffffff1673ffffffffffffffffffffffffffffffffffffffff168152602001915050602060405180830381600087803b1580156200142e57600080fd5b505af115801562001443573d6000803e3d6000fd5b505050506040513d60208110156200145a57600080fd5b810190808051906020019092919050505015156200147757600080fd5b600760029054906101000a900460ff161515156200149457600080fd5b60008273ffffffffffffffffffffffffffffffffffffffff1614151515620014bb57600080fd5b6000600960009054906101000a900473ffffffffffffffffffffffffffffffffffffffff1673ffffffffffffffffffffffffffffffffffffffff161415156200150357600080fd5b600160009054906101000a900473ffffffffffffffffffffffffffffffffffffffff16306000809054906101000a900473ffffffffffffffffffffffffffffffffffffffff166200155362002f39565b808473ffffffffffffffffffffffffffffffffffffffff1673ffffffffffffffffffffffffffffffffffffffff1681526020018373ffffffffffffffffffffffffffffffffffffffff1673ffffffffffffffffffffffffffffffffffffffff1681526020018273ffffffffffffffffffffffffffffffffffffffff1673ffffffffffffffffffffffffffffffffffffffff1681526020019350505050604051809103906000f0801580156200160c573d6000803e3d6000fd5b50600960006101000a81548173ffffffffffffffffffffffffffffffffffffffff021916908373ffffffffffffffffffffffffffffffffffffffff16021790555060019050919050565b60018060048111156200166557fe5b600060149054906101000a900460ff1660048111156200168157fe5b1415156200168e57600080fd5b600460009054906101000a900473ffffffffffffffffffffffffffffffffffffffff1660003373ffffffffffffffffffffffffffffffffffffffff1614151515620016d857600080fd5b8073ffffffffffffffffffffffffffffffffffffffff163373ffffffffffffffffffffffffffffffffffffffff161415156200171357600080fd5b6002600060146101000a81548160ff021916908360048111156200173357fe5b0217905550600060149054906101000a900460ff1660048111156200175457fe5b427f1be1dc31292702bf0d61a365493fc8e23e5f50751fd1e262a3dab77c64f30bab60405160405180910390a35050565b60008060038060048111156200179757fe5b600060149054906101000a900460ff166004811115620017b357fe5b141515620017c057600080fd5b600760029054906101000a900460ff161515620017dc57600080fd5b6000600160009054906101000a900473ffffffffffffffffffffffffffffffffffffffff1673ffffffffffffffffffffffffffffffffffffffff16141515156200182557600080fd5b6000600260009054906101000a900473ffffffffffffffffffffffffffffffffffffffff1673ffffffffffffffffffffffffffffffffffffffff16141515156200186e57600080fd5b6000600360009054906101000a900473ffffffffffffffffffffffffffffffffffffffff1673ffffffffffffffffffffffffffffffffffffffff1614151515620018b757600080fd5b60008060009054906101000a900473ffffffffffffffffffffffffffffffffffffffff1673ffffffffffffffffffffffffffffffffffffffff1614151515620018ff57600080fd5b6000600960009054906101000a900473ffffffffffffffffffffffffffffffffffffffff1673ffffffffffffffffffffffffffffffffffffffff16141515156200194857600080fd5b6000600860009054906101000a900473ffffffffffffffffffffffffffffffffffffffff1673ffffffffffffffffffffffffffffffffffffffff16141515156200199157600080fd5b62001ad46200199f62001b65565b62001ac5600160009054906101000a900473ffffffffffffffffffffffffffffffffffffffff1673ffffffffffffffffffffffffffffffffffffffff166370a08231336040518263ffffffff167c0100000000000000000000000000000000000000000000000000000000028152600401808273ffffffffffffffffffffffffffffffffffffffff1673ffffffffffffffffffffffffffffffffffffffff168152602001915050602060405180830381600087803b15801562001a6157600080fd5b505af115801562001a76573d6000803e3d6000fd5b505050506040513d602081101562001a8d57600080fd5b81019080805190602001909291905050503073ffffffffffffffffffffffffffffffffffffffff163162002d0490919063ffffffff16565b62002d4390919063ffffffff16565b91503373ffffffffffffffffffffffffffffffffffffffff166108fc839081150290604051600060405180830381858888f19350505050151562001b1757600080fd5b813373ffffffffffffffffffffffffffffffffffffffff16427f21e12a7cad0da5928167e1084ea4d5fdf8d9af66657a2543a9ac76a0ca08147760405160405180910390a460019250505090565b600080600160009054906101000a900473ffffffffffffffffffffffffffffffffffffffff1673ffffffffffffffffffffffffffffffffffffffff161415151562001baf57600080fd5b62001da3600160009054906101000a900473ffffffffffffffffffffffffffffffffffffffff1673ffffffffffffffffffffffffffffffffffffffff166370a08231600260009054906101000a900473ffffffffffffffffffffffffffffffffffffffff166040518263ffffffff167c0100000000000000000000000000000000000000000000000000000000028152600401808273ffffffffffffffffffffffffffffffffffffffff1673ffffffffffffffffffffffffffffffffffffffff168152602001915050602060405180830381600087803b15801562001c9357600080fd5b505af115801562001ca8573d6000803e3d6000fd5b505050506040513d602081101562001cbf57600080fd5b8101908080519060200190929190505050600160009054906101000a900473ffffffffffffffffffffffffffffffffffffffff1673ffffffffffffffffffffffffffffffffffffffff166318160ddd6040518163ffffffff167c0100000000000000000000000000000000000000000000000000000000028152600401602060405180830381600087803b15801562001d5757600080fd5b505af115801562001d6c573d6000803e3d6000fd5b505050506040513d602081101562001d8357600080fd5b810190808051906020019092919050505062002cea90919063ffffffff16565b905090565b60008060009054906101000a900473ffffffffffffffffffffffffffffffffffffffff1673ffffffffffffffffffffffffffffffffffffffff16635eca4a70836040518263ffffffff167c0100000000000000000000000000000000000000000000000000000000028152600401808273ffffffffffffffffffffffffffffffffffffffff1673ffffffffffffffffffffffffffffffffffffffff168152602001915050602060405180830381600087803b15801562001e6757600080fd5b505af115801562001e7c573d6000803e3d6000fd5b505050506040513d602081101562001e9357600080fd5b81019080805190602001909291905050509050919050565b600280600481111562001eba57fe5b600060149054906101000a900460ff16600481111562001ed657fe5b14151562001ee357600080fd5b600460009054906101000a900473ffffffffffffffffffffffffffffffffffffffff1660003373ffffffffffffffffffffffffffffffffffffffff161415151562001f2d57600080fd5b8073ffffffffffffffffffffffffffffffffffffffff163373ffffffffffffffffffffffffffffffffffffffff1614151562001f6857600080fd5b600760019054906101000a900460ff1615151562001f8557600080fd5b6001600760016101000a81548160ff021916908315150217905550600160009054906101000a900473ffffffffffffffffffffffffffffffffffffffff1673ffffffffffffffffffffffffffffffffffffffff1663a9059cbb600960009054906101000a900473ffffffffffffffffffffffffffffffffffffffff16620020566064620020478860016003811015156200201b57fe5b60200201513073ffffffffffffffffffffffffffffffffffffffff163162002d0490919063ffffffff16565b62002d4390919063ffffffff16565b6040518363ffffffff167c0100000000000000000000000000000000000000000000000000000000028152600401808373ffffffffffffffffffffffffffffffffffffffff1673ffffffffffffffffffffffffffffffffffffffff16815260200182815260200192505050602060405180830381600087803b158015620020dc57600080fd5b505af1158015620020f1573d6000803e3d6000fd5b505050506040513d60208110156200210857600080fd5b810190808051906020019092919050505050600160009054906101000a900473ffffffffffffffffffffffffffffffffffffffff1673ffffffffffffffffffffffffffffffffffffffff1663a9059cbb600860009054906101000a900473ffffffffffffffffffffffffffffffffffffffff16620021d06064620021c18860026003811015156200219557fe5b60200201513073ffffffffffffffffffffffffffffffffffffffff163162002d0490919063ffffffff16565b62002d4390919063ffffffff16565b6040518363ffffffff167c0100000000000000000000000000000000000000000000000000000000028152600401808373ffffffffffffffffffffffffffffffffffffffff1673ffffffffffffffffffffffffffffffffffffffff16815260200182815260200192505050602060405180830381600087803b1580156200225657600080fd5b505af11580156200226b573d6000803e3d6000fd5b505050506040513d60208110156200228257600080fd5b810190808051906020019092919050505050600860009054906101000a900473ffffffffffffffffffffffffffffffffffffffff1673ffffffffffffffffffffffffffffffffffffffff16600960009054906101000a900473ffffffffffffffffffffffffffffffffffffffff1673ffffffffffffffffffffffffffffffffffffffff167f387fae906348be0b6789045e0399ed4f206b3029fa2c2912486f91c7d9ae51bb60405160405180910390a3505050565b60008060009054906101000a900473ffffffffffffffffffffffffffffffffffffffff1673ffffffffffffffffffffffffffffffffffffffff16635eca4a70336040518263ffffffff167c0100000000000000000000000000000000000000000000000000000000028152600401808273ffffffffffffffffffffffffffffffffffffffff1673ffffffffffffffffffffffffffffffffffffffff168152602001915050602060405180830381600087803b158015620023f657600080fd5b505af11580156200240b573d6000803e3d6000fd5b505050506040513d60208110156200242257600080fd5b810190808051906020019092919050505015156200243f57600080fd5b600760029054906101000a900460ff161515156200245c57600080fd5b60008273ffffffffffffffffffffffffffffffffffffffff16141515156200248357600080fd5b6000600260009054906101000a900473ffffffffffffffffffffffffffffffffffffffff1673ffffffffffffffffffffffffffffffffffffffff16141515620024cb57600080fd5b81600260006101000a81548173ffffffffffffffffffffffffffffffffffffffff021916908373ffffffffffffffffffffffffffffffffffffffff16021790555060019050919050565b600060028060048111156200252657fe5b600060149054906101000a900460ff1660048111156200254257fe5b1415156200254f57600080fd5b600760039054906101000a900473ffffffffffffffffffffffffffffffffffffffff1673ffffffffffffffffffffffffffffffffffffffff1663d9331cdd6040518163ffffffff167c0100000000000000000000000000000000000000000000000000000000028152600401602060405180830381600087803b158015620025d657600080fd5b505af1158015620025eb573d6000803e3d6000fd5b505050506040513d60208110156200260257600080fd5b810190808051906020019092919050505060003373ffffffffffffffffffffffffffffffffffffffff16141515156200263a57600080fd5b8073ffffffffffffffffffffffffffffffffffffffff163373ffffffffffffffffffffffffffffffffffffffff161415156200267557600080fd5b600760029054906101000a900460ff161515156200269257600080fd5b83600581905550600554427fcd8072b4bd421ecb9e7ac3efb21831a51a3377b43ac7e98095c2596c832fce1660405160405180910390a3600192505050919050565b6000806002806004811115620026e657fe5b600060149054906101000a900460ff1660048111156200270257fe5b1415156200270f57600080fd5b600760039054906101000a900473ffffffffffffffffffffffffffffffffffffffff1673ffffffffffffffffffffffffffffffffffffffff1663d9331cdd6040518163ffffffff167c0100000000000000000000000000000000000000000000000000000000028152600401602060405180830381600087803b1580156200279657600080fd5b505af1158015620027ab573d6000803e3d6000fd5b505050506040513d6020811015620027c257600080fd5b810190808051906020019092919050505060003373ffffffffffffffffffffffffffffffffffffffff1614151515620027fa57600080fd5b8073ffffffffffffffffffffffffffffffffffffffff163373ffffffffffffffffffffffffffffffffffffffff161415156200283557600080fd5b600760029054906101000a900460ff161515156200285257600080fd5b6000600360009054906101000a900473ffffffffffffffffffffffffffffffffffffffff1673ffffffffffffffffffffffffffffffffffffffff16141515156200289b57600080fd5b6000620028a762000b83565b14151515620028b557600080fd5b620028bf62000b83565b9250600360009054906101000a900473ffffffffffffffffffffffffffffffffffffffff1673ffffffffffffffffffffffffffffffffffffffff166108fc849081150290604051600060405180830381858888f193505050501580156200292a573d6000803e3d6000fd5b50620029368362002d5f565b15156200294257600080fd5b600360009054906101000a900473ffffffffffffffffffffffffffffffffffffffff1673ffffffffffffffffffffffffffffffffffffffff16427f77a58f0dd00bd8b53e305c4e3625912bfc3835d21871060b8fbfe6a571106ab260405160405180910390a36001935050505090565b60008060009054906101000a900473ffffffffffffffffffffffffffffffffffffffff1673ffffffffffffffffffffffffffffffffffffffff16635eca4a70336040518263ffffffff167c0100000000000000000000000000000000000000000000000000000000028152600401808273ffffffffffffffffffffffffffffffffffffffff1673ffffffffffffffffffffffffffffffffffffffff168152602001915050602060405180830381600087803b15801562002a7157600080fd5b505af115801562002a86573d6000803e3d6000fd5b505050506040513d602081101562002a9d57600080fd5b8101908080519060200190929190505050151562002aba57600080fd5b600760029054906101000a900460ff1615151562002ad757600080fd5b60008273ffffffffffffffffffffffffffffffffffffffff161415151562002afe57600080fd5b6000600760039054906101000a900473ffffffffffffffffffffffffffffffffffffffff1673ffffffffffffffffffffffffffffffffffffffff1614151562002b4657600080fd5b81600760036101000a81548173ffffffffffffffffffffffffffffffffffffffff021916908373ffffffffffffffffffffffffffffffffffffffff16021790555060019050919050565b60065481565b600080600481111562002ba557fe5b600060149054906101000a900460ff16600481111562002bc157fe5b14151562002bce57600080fd5b600460009054906101000a900473ffffffffffffffffffffffffffffffffffffffff1660003373ffffffffffffffffffffffffffffffffffffffff161415151562002c1857600080fd5b8073ffffffffffffffffffffffffffffffffffffffff163373ffffffffffffffffffffffffffffffffffffffff1614151562002c5357600080fd5b6001600060146101000a81548160ff0219169083600481111562002c7357fe5b0217905550600060149054906101000a900460ff16600481111562002c9457fe5b427f1be1dc31292702bf0d61a365493fc8e23e5f50751fd1e262a3dab77c64f30bab60405160405180910390a35050565b6000809054906101000a900473ffffffffffffffffffffffffffffffffffffffff1681565b600082821115151562002cf957fe5b818303905092915050565b600080600084141562002d1b576000915062002d3c565b828402905082848281151562002d2d57fe5b0414151562002d3857fe5b8091505b5092915050565b600080828481151562002d5257fe5b0490508091505092915050565b6000600280600481111562002d7057fe5b600060149054906101000a900460ff16600481111562002d8c57fe5b14151562002d9957600080fd5b600760029054906101000a900460ff1615151562002db657600080fd5b6000600960009054906101000a900473ffffffffffffffffffffffffffffffffffffffff1673ffffffffffffffffffffffffffffffffffffffff161415151562002dff57600080fd5b600960009054906101000a900473ffffffffffffffffffffffffffffffffffffffff1673ffffffffffffffffffffffffffffffffffffffff16632e1a7d4d846040518263ffffffff167c010000000000000000000000000000000000000000000000000000000002815260040180828152602001915050602060405180830381600087803b15801562002e9157600080fd5b505af115801562002ea6573d6000803e3d6000fd5b505050506040513d602081101562002ebd57600080fd5b8101908080519060200190929190505050151562002eda57600080fd5b3373ffffffffffffffffffffffffffffffffffffffff16427f340c08f9444d64458837786594cb3498dbc1655b67ad66178f9c1b4901afdeb760405160405180910390a36001915050919050565b604051610d768062002f4b83390190565b6040516122728062003cc1833901905600608060405234801561001057600080fd5b50604051608080610d76833981018060405281019080805190602001909291908051906020019092919080519060200190929190805190602001909291905050508060008173ffffffffffffffffffffffffffffffffffffffff161415151561007857600080fd5b806000806101000a81548173ffffffffffffffffffffffffffffffffffffffff021916908373ffffffffffffffffffffffffffffffffffffffff160217905550508260003373ffffffffffffffffffffffffffffffffffffffff16141515156100e057600080fd5b8073ffffffffffffffffffffffffffffffffffffffff163373ffffffffffffffffffffffffffffffffffffffff1614151561011a57600080fd5b60008273ffffffffffffffffffffffffffffffffffffffff161415151561014057600080fd5b84600160006101000a81548173ffffffffffffffffffffffffffffffffffffffff021916908373ffffffffffffffffffffffffffffffffffffffff16021790555083600260006101000a81548173ffffffffffffffffffffffffffffffffffffffff021916908373ffffffffffffffffffffffffffffffffffffffff16021790555082600360006101000a81548173ffffffffffffffffffffffffffffffffffffffff021916908373ffffffffffffffffffffffffffffffffffffffff1602179055505050505050610b5f806102176000396000f3006080604052600436106100a4576000357c0100000000000000000000000000000000000000000000000000000000900463ffffffff16806310fe9ae8146100a957806312065fe0146101005780632e1a7d4d1461012b5780632f54bf6e1461017057806339c2cf8e146101cb57806359927044146102265780635eca4a701461027d5780638edd6eb6146102d8578063bdd4d18d1461032f578063fc0c546a14610386575b600080fd5b3480156100b557600080fd5b506100be6103dd565b604051808273ffffffffffffffffffffffffffffffffffffffff1673ffffffffffffffffffffffffffffffffffffffff16815260200191505060405180910390f35b34801561010c57600080fd5b50610115610407565b6040518082815260200191505060405180910390f35b34801561013757600080fd5b5061015660048036038101908080359060200190929190505050610506565b604051808215151515815260200191505060405180910390f35b34801561017c57600080fd5b506101b1600480360381019080803573ffffffffffffffffffffffffffffffffffffffff1690602001909291905050506107a1565b604051808215151515815260200191505060405180910390f35b3480156101d757600080fd5b5061020c600480360381019080803573ffffffffffffffffffffffffffffffffffffffff169060200190929190505050610898565b604051808215151515815260200191505060405180910390f35b34801561023257600080fd5b5061023b610998565b604051808273ffffffffffffffffffffffffffffffffffffffff1673ffffffffffffffffffffffffffffffffffffffff16815260200191505060405180910390f35b34801561028957600080fd5b506102be600480360381019080803573ffffffffffffffffffffffffffffffffffffffff1690602001909291905050506109be565b604051808215151515815260200191505060405180910390f35b3480156102e457600080fd5b506102ed610abe565b604051808273ffffffffffffffffffffffffffffffffffffffff1673ffffffffffffffffffffffffffffffffffffffff16815260200191505060405180910390f35b34801561033b57600080fd5b50610344610ae8565b604051808273ffffffffffffffffffffffffffffffffffffffff1673ffffffffffffffffffffffffffffffffffffffff16815260200191505060405180910390f35b34801561039257600080fd5b5061039b610b0d565b604051808273ffffffffffffffffffffffffffffffffffffffff1673ffffffffffffffffffffffffffffffffffffffff16815260200191505060405180910390f35b6000600160009054906101000a900473ffffffffffffffffffffffffffffffffffffffff16905090565b6000600160009054906101000a900473ffffffffffffffffffffffffffffffffffffffff1673ffffffffffffffffffffffffffffffffffffffff166370a08231306040518263ffffffff167c0100000000000000000000000000000000000000000000000000000000028152600401808273ffffffffffffffffffffffffffffffffffffffff1673ffffffffffffffffffffffffffffffffffffffff168152602001915050602060405180830381600087803b1580156104c657600080fd5b505af11580156104da573d6000803e3d6000fd5b505050506040513d60208110156104f057600080fd5b8101908080519060200190929190505050905090565b6000600260009054906101000a900473ffffffffffffffffffffffffffffffffffffffff1660003373ffffffffffffffffffffffffffffffffffffffff161415151561055157600080fd5b8073ffffffffffffffffffffffffffffffffffffffff163373ffffffffffffffffffffffffffffffffffffffff1614151561058b57600080fd5b610593610407565b8311151515610630576040517f08c379a00000000000000000000000000000000000000000000000000000000081526004018080602001828103825260258152602001807f62616c616e636520666f722072657365727665506f6f6c206973206e6f74206581526020017f6e6f75676800000000000000000000000000000000000000000000000000000081525060400191505060405180910390fd5b6000600360009054906101000a900473ffffffffffffffffffffffffffffffffffffffff1673ffffffffffffffffffffffffffffffffffffffff161415151561067857600080fd5b600160009054906101000a900473ffffffffffffffffffffffffffffffffffffffff1673ffffffffffffffffffffffffffffffffffffffff1663a9059cbb600360009054906101000a900473ffffffffffffffffffffffffffffffffffffffff16856040518363ffffffff167c0100000000000000000000000000000000000000000000000000000000028152600401808373ffffffffffffffffffffffffffffffffffffffff1673ffffffffffffffffffffffffffffffffffffffff16815260200182815260200192505050602060405180830381600087803b15801561075f57600080fd5b505af1158015610773573d6000803e3d6000fd5b505050506040513d602081101561078957600080fd5b81019080805190602001909291905050505050919050565b60008060009054906101000a900473ffffffffffffffffffffffffffffffffffffffff1673ffffffffffffffffffffffffffffffffffffffff16638da5cb5b6040518163ffffffff167c0100000000000000000000000000000000000000000000000000000000028152600401602060405180830381600087803b15801561082857600080fd5b505af115801561083c573d6000803e3d6000fd5b505050506040513d602081101561085257600080fd5b810190808051906020019092919050505073ffffffffffffffffffffffffffffffffffffffff168273ffffffffffffffffffffffffffffffffffffffff16149050919050565b60008060009054906101000a900473ffffffffffffffffffffffffffffffffffffffff1673ffffffffffffffffffffffffffffffffffffffff166339c2cf8e836040518263ffffffff167c0100000000000000000000000000000000000000000000000000000000028152600401808273ffffffffffffffffffffffffffffffffffffffff1673ffffffffffffffffffffffffffffffffffffffff168152602001915050602060405180830381600087803b15801561095657600080fd5b505af115801561096a573d6000803e3d6000fd5b505050506040513d602081101561098057600080fd5b81019080805190602001909291905050509050919050565b600360009054906101000a900473ffffffffffffffffffffffffffffffffffffffff1681565b60008060009054906101000a900473ffffffffffffffffffffffffffffffffffffffff1673ffffffffffffffffffffffffffffffffffffffff16635eca4a70836040518263ffffffff167c0100000000000000000000000000000000000000000000000000000000028152600401808273ffffffffffffffffffffffffffffffffffffffff1673ffffffffffffffffffffffffffffffffffffffff168152602001915050602060405180830381600087803b158015610a7c57600080fd5b505af1158015610a90573d6000803e3d6000fd5b505050506040513d6020811015610aa657600080fd5b81019080805190602001909291905050509050919050565b6000600260009054906101000a900473ffffffffffffffffffffffffffffffffffffffff16905090565b6000809054906101000a900473ffffffffffffffffffffffffffffffffffffffff1681565b600160009054906101000a900473ffffffffffffffffffffffffffffffffffffffff16815600a165627a7a723058201bcd4b1601576b018dc3b58c7af006fd6d6edbf937abd65bc8a10ccd55aa106e0029608060405234801561001057600080fd5b506040516060806122728339810180604052810190808051906020019092919080519060200190929190805190602001909291905050508060008173ffffffffffffffffffffffffffffffffffffffff161415151561006e57600080fd5b806000806101000a81548173ffffffffffffffffffffffffffffffffffffffff021916908373ffffffffffffffffffffffffffffffffffffffff160217905550508160003373ffffffffffffffffffffffffffffffffffffffff16141515156100d657600080fd5b8073ffffffffffffffffffffffffffffffffffffffff163373ffffffffffffffffffffffffffffffffffffffff1614151561011057600080fd5b60008273ffffffffffffffffffffffffffffffffffffffff161415151561013657600080fd5b83600160006101000a81548173ffffffffffffffffffffffffffffffffffffffff021916908373ffffffffffffffffffffffffffffffffffffffff16021790555082600260006101000a81548173ffffffffffffffffffffffffffffffffffffffff021916908373ffffffffffffffffffffffffffffffffffffffff16021790555060006006819055505050505061209f806101d36000396000f30060806040526004361061011d576000357c0100000000000000000000000000000000000000000000000000000000900463ffffffff16806312065fe01461012257806316c2f3771461014d5780631a4514be1461018e5780631d947f93146101bd57806321df0da7146102225780632e1a7d4d146102795780632f54bf6e146102be57806339c2cf8e146103195780633bf5eb16146103745780634c4117bb146103cb5780635eca4a701461042657806367327ecc146104815780636d721122146104dc5780638edd6eb6146105495780639afb05d4146105a0578063bdd4d18d146105f7578063c3a3abf71461064e578063c4b41fdc146106af578063c78da92714610706578063d02005821461074b578063fc0c546a146107b8575b600080fd5b34801561012e57600080fd5b5061013761080f565b6040518082815260200191505060405180910390f35b34801561015957600080fd5b506101786004803603810190808035906020019092919050505061082e565b6040518082815260200191505060405180910390f35b34801561019a57600080fd5b506101a3610846565b604051808215151515815260200191505060405180910390f35b3480156101c957600080fd5b5061020860048036038101908080359060200190929190803573ffffffffffffffffffffffffffffffffffffffff169060200190929190505050610d87565b604051808215151515815260200191505060405180910390f35b34801561022e57600080fd5b50610237610eb8565b604051808273ffffffffffffffffffffffffffffffffffffffff1673ffffffffffffffffffffffffffffffffffffffff16815260200191505060405180910390f35b34801561028557600080fd5b506102a460048036038101908080359060200190929190505050610ee2565b604051808215151515815260200191505060405180910390f35b3480156102ca57600080fd5b506102ff600480360381019080803573ffffffffffffffffffffffffffffffffffffffff169060200190929190505050610fb9565b604051808215151515815260200191505060405180910390f35b34801561032557600080fd5b5061035a600480360381019080803573ffffffffffffffffffffffffffffffffffffffff1690602001909291905050506110b0565b604051808215151515815260200191505060405180910390f35b34801561038057600080fd5b506103896111b0565b604051808273ffffffffffffffffffffffffffffffffffffffff1673ffffffffffffffffffffffffffffffffffffffff16815260200191505060405180910390f35b3480156103d757600080fd5b5061040c600480360381019080803573ffffffffffffffffffffffffffffffffffffffff1690602001909291905050506111d6565b604051808215151515815260200191505060405180910390f35b34801561043257600080fd5b50610467600480360381019080803573ffffffffffffffffffffffffffffffffffffffff169060200190929190505050611367565b604051808215151515815260200191505060405180910390f35b34801561048d57600080fd5b506104c2600480360381019080803573ffffffffffffffffffffffffffffffffffffffff169060200190929190505050611467565b604051808215151515815260200191505060405180910390f35b3480156104e857600080fd5b5061050760048036038101908080359060200190929190505050611586565b604051808273ffffffffffffffffffffffffffffffffffffffff1673ffffffffffffffffffffffffffffffffffffffff16815260200191505060405180910390f35b34801561055557600080fd5b5061055e6115c3565b604051808273ffffffffffffffffffffffffffffffffffffffff1673ffffffffffffffffffffffffffffffffffffffff16815260200191505060405180910390f35b3480156105ac57600080fd5b506105e1600480360381019080803573ffffffffffffffffffffffffffffffffffffffff1690602001909291905050506115ed565b6040518082815260200191505060405180910390f35b34801561060357600080fd5b5061060c6118da565b604051808273ffffffffffffffffffffffffffffffffffffffff1673ffffffffffffffffffffffffffffffffffffffff16815260200191505060405180910390f35b34801561065a57600080fd5b5061069960048036038101908080359060200190929190803573ffffffffffffffffffffffffffffffffffffffff1690602001909291905050506118ff565b6040518082815260200191505060405180910390f35b3480156106bb57600080fd5b506106c4611bdd565b604051808273ffffffffffffffffffffffffffffffffffffffff1673ffffffffffffffffffffffffffffffffffffffff16815260200191505060405180910390f35b34801561071257600080fd5b5061073160048036038101908080359060200190929190505050611c07565b604051808215151515815260200191505060405180910390f35b34801561075757600080fd5b5061077660048036038101908080359060200190929190505050611fc4565b604051808273ffffffffffffffffffffffffffffffffffffffff1673ffffffffffffffffffffffffffffffffffffffff16815260200191505060405180910390f35b3480156107c457600080fd5b506107cd611ff7565b604051808273ffffffffffffffffffffffffffffffffffffffff1673ffffffffffffffffffffffffffffffffffffffff16815260200191505060405180910390f35b60003073ffffffffffffffffffffffffffffffffffffffff1631905090565b60056020528060005260406000206000915090505481565b600060076000600654815260200190815260200160002060009054906101000a900460ff1615156108df576040517f08c379a000000000000000000000000000000000000000000000000000000000815260040180806020018281038252601e8152602001807f6e6f74206f70656e696e6720696e63656e74697665207769746864726177000081525060200191505060405180910390fd5b6108e833611467565b15151561095d576040517f08c379a000000000000000000000000000000000000000000000000000000000815260040180806020018281038252601a8152602001807f616c726561647920726563656976656420696e63656e7469766500000000000081525060200191505060405180910390fd5b6064600160009054906101000a900473ffffffffffffffffffffffffffffffffffffffff1673ffffffffffffffffffffffffffffffffffffffff166370a08231336040518263ffffffff167c0100000000000000000000000000000000000000000000000000000000028152600401808273ffffffffffffffffffffffffffffffffffffffff1673ffffffffffffffffffffffffffffffffffffffff168152602001915050602060405180830381600087803b158015610a1c57600080fd5b505af1158015610a30573d6000803e3d6000fd5b505050506040513d6020811015610a4657600080fd5b810190808051906020019092919050505010151515610af3576040517f08c379a00000000000000000000000000000000000000000000000000000000081526004018080602001828103825260238152602001807f73686f7274206f6620746f6b656e20686f6c64696e6773206f6e20736e61707381526020017f686f74000000000000000000000000000000000000000000000000000000000081525060400191505060405180910390fd5b600160009054906101000a900473ffffffffffffffffffffffffffffffffffffffff1673ffffffffffffffffffffffffffffffffffffffff1663a9059cbb33610b3b336115ed565b6040518363ffffffff167c0100000000000000000000000000000000000000000000000000000000028152600401808373ffffffffffffffffffffffffffffffffffffffff1673ffffffffffffffffffffffffffffffffffffffff16815260200182815260200192505050602060405180830381600087803b158015610bc057600080fd5b505af1158015610bd4573d6000803e3d6000fd5b505050506040513d6020811015610bea57600080fd5b810190808051906020019092919050505050600360009054906101000a900473ffffffffffffffffffffffffffffffffffffffff1673ffffffffffffffffffffffffffffffffffffffff1663f102378e3360008060016040518563ffffffff167c0100000000000000000000000000000000000000000000000000000000028152600401808573ffffffffffffffffffffffffffffffffffffffff1673ffffffffffffffffffffffffffffffffffffffff168152602001846002811115610cad57fe5b60ff16815260200183815260200182151515158152602001945050505050602060405180830381600087803b158015610ce557600080fd5b505af1158015610cf9573d6000803e3d6000fd5b505050506040513d6020811015610d0f57600080fd5b81019080805190602001909291905050501515610d2b57600080fd5b3373ffffffffffffffffffffffffffffffffffffffff166006547f6c0baadb611b09bbbeb41adc5f2f5c161dac3528165cdea6653d596313a78ea3610d6f336115ed565b6040518082815260200191505060405180910390a390565b60006004600084815260200190815260200160002060009054906101000a900473ffffffffffffffffffffffffffffffffffffffff1673ffffffffffffffffffffffffffffffffffffffff1663fef23ae7836040518263ffffffff167c0100000000000000000000000000000000000000000000000000000000028152600401808273ffffffffffffffffffffffffffffffffffffffff1673ffffffffffffffffffffffffffffffffffffffff168152602001915050606060405180830381600087803b158015610e5757600080fd5b505af1158015610e6b573d6000803e3d6000fd5b505050506040513d6060811015610e8157600080fd5b8101908080519060200190929190805190602001909291908051906020019092919050505090915090508091505080905092915050565b6000600160009054906101000a900473ffffffffffffffffffffffffffffffffffffffff16905090565b6000600260009054906101000a900473ffffffffffffffffffffffffffffffffffffffff1660003373ffffffffffffffffffffffffffffffffffffffff1614151515610f2d57600080fd5b8073ffffffffffffffffffffffffffffffffffffffff163373ffffffffffffffffffffffffffffffffffffffff16141515610f6757600080fd5b600160076000600654815260200190815260200160002060006101000a81548160ff02191690831515021790555082600560006006548152602001908152602001600020819055506001915050919050565b60008060009054906101000a900473ffffffffffffffffffffffffffffffffffffffff1673ffffffffffffffffffffffffffffffffffffffff16638da5cb5b6040518163ffffffff167c0100000000000000000000000000000000000000000000000000000000028152600401602060405180830381600087803b15801561104057600080fd5b505af1158015611054573d6000803e3d6000fd5b505050506040513d602081101561106a57600080fd5b810190808051906020019092919050505073ffffffffffffffffffffffffffffffffffffffff168273ffffffffffffffffffffffffffffffffffffffff16149050919050565b60008060009054906101000a900473ffffffffffffffffffffffffffffffffffffffff1673ffffffffffffffffffffffffffffffffffffffff166339c2cf8e836040518263ffffffff167c0100000000000000000000000000000000000000000000000000000000028152600401808273ffffffffffffffffffffffffffffffffffffffff1673ffffffffffffffffffffffffffffffffffffffff168152602001915050602060405180830381600087803b15801561116e57600080fd5b505af1158015611182573d6000803e3d6000fd5b505050506040513d602081101561119857600080fd5b81019080805190602001909291905050509050919050565b600360009054906101000a900473ffffffffffffffffffffffffffffffffffffffff1681565b6000600260009054906101000a900473ffffffffffffffffffffffffffffffffffffffff1660003373ffffffffffffffffffffffffffffffffffffffff161415151561122157600080fd5b8073ffffffffffffffffffffffffffffffffffffffff163373ffffffffffffffffffffffffffffffffffffffff1614151561125b57600080fd5b60008373ffffffffffffffffffffffffffffffffffffffff161415151561128157600080fd5b6006600081548092919060010191905055508260046000600654815260200190815260200160002060006101000a81548173ffffffffffffffffffffffffffffffffffffffff021916908373ffffffffffffffffffffffffffffffffffffffff16021790555060046000600654815260200190815260200160002060009054906101000a900473ffffffffffffffffffffffffffffffffffffffff16600360006101000a81548173ffffffffffffffffffffffffffffffffffffffff021916908373ffffffffffffffffffffffffffffffffffffffff1602179055506001915050919050565b60008060009054906101000a900473ffffffffffffffffffffffffffffffffffffffff1673ffffffffffffffffffffffffffffffffffffffff16635eca4a70836040518263ffffffff167c0100000000000000000000000000000000000000000000000000000000028152600401808273ffffffffffffffffffffffffffffffffffffffff1673ffffffffffffffffffffffffffffffffffffffff168152602001915050602060405180830381600087803b15801561142557600080fd5b505af1158015611439573d6000803e3d6000fd5b505050506040513d602081101561144f57600080fd5b81019080805190602001909291905050509050919050565b6000600360009054906101000a900473ffffffffffffffffffffffffffffffffffffffff1673ffffffffffffffffffffffffffffffffffffffff1663fef23ae7836040518263ffffffff167c0100000000000000000000000000000000000000000000000000000000028152600401808273ffffffffffffffffffffffffffffffffffffffff1673ffffffffffffffffffffffffffffffffffffffff168152602001915050606060405180830381600087803b15801561152657600080fd5b505af115801561153a573d6000803e3d6000fd5b505050506040513d606081101561155057600080fd5b81019080805190602001909291908051906020019092919080519060200190929190505050909150905080915050809050919050565b60006004600083815260200190815260200160002060009054906101000a900473ffffffffffffffffffffffffffffffffffffffff169050919050565b6000600260009054906101000a900473ffffffffffffffffffffffffffffffffffffffff16905090565b6000806000806000808673ffffffffffffffffffffffffffffffffffffffff161415151561161a57600080fd5b6000600360009054906101000a900473ffffffffffffffffffffffffffffffffffffffff1673ffffffffffffffffffffffffffffffffffffffff161415151561166257600080fd5b600360009054906101000a900473ffffffffffffffffffffffffffffffffffffffff1673ffffffffffffffffffffffffffffffffffffffff1663fef23ae7876040518263ffffffff167c0100000000000000000000000000000000000000000000000000000000028152600401808273ffffffffffffffffffffffffffffffffffffffff1673ffffffffffffffffffffffffffffffffffffffff168152602001915050606060405180830381600087803b15801561171f57600080fd5b505af1158015611733573d6000803e3d6000fd5b505050506040513d606081101561174957600080fd5b810190808051906020019092919080519060200190929190805190602001909291905050509091505080945050600360009054906101000a900473ffffffffffffffffffffffffffffffffffffffff1673ffffffffffffffffffffffffffffffffffffffff166353976a266040518163ffffffff167c0100000000000000000000000000000000000000000000000000000000028152600401602060405180830381600087803b1580156117fc57600080fd5b505af1158015611810573d6000803e3d6000fd5b505050506040513d602081101561182657600080fd5b8101908080519060200190929190505050925061186260646005600060065481526020019081526020016000205461201d90919063ffffffff16565b91506118cc836118be6907f0e10af47c1c7000006118b0886118a2600560006006548152602001908152602001600020548961203890919063ffffffff16565b61203890919063ffffffff16565b61201d90919063ffffffff16565b61201d90919063ffffffff16565b905080945050505050919050565b6000809054906101000a900473ffffffffffffffffffffffffffffffffffffffff1681565b6000806000806000808673ffffffffffffffffffffffffffffffffffffffff161415151561192c57600080fd5b60008714156119455761193e866115ed565b9450611bd3565b6004600088815260200190815260200160002060009054906101000a900473ffffffffffffffffffffffffffffffffffffffff1673ffffffffffffffffffffffffffffffffffffffff1663fef23ae7876040518263ffffffff167c0100000000000000000000000000000000000000000000000000000000028152600401808273ffffffffffffffffffffffffffffffffffffffff1673ffffffffffffffffffffffffffffffffffffffff168152602001915050606060405180830381600087803b158015611a1357600080fd5b505af1158015611a27573d6000803e3d6000fd5b505050506040513d6060811015611a3d57600080fd5b8101908080519060200190929190805190602001909291908051906020019092919050505090915050809450506004600088815260200190815260200160002060009054906101000a900473ffffffffffffffffffffffffffffffffffffffff1673ffffffffffffffffffffffffffffffffffffffff166353976a266040518163ffffffff167c0100000000000000000000000000000000000000000000000000000000028152600401602060405180830381600087803b158015611b0157600080fd5b505af1158015611b15573d6000803e3d6000fd5b505050506040513d6020811015611b2b57600080fd5b81019080805190602001909291905050509250611b656064600560008a81526020019081526020016000205461201d90919063ffffffff16565b9150611bcd83611bbf6907f0e10af47c1c700000611bb188611ba3600560008f8152602001908152602001600020548961203890919063ffffffff16565b61203890919063ffffffff16565b61201d90919063ffffffff16565b61201d90919063ffffffff16565b90508094505b5050505092915050565b6000600360009054906101000a900473ffffffffffffffffffffffffffffffffffffffff16905090565b60006007600083815260200190815260200160002060009054906101000a900460ff161515611c9e576040517f08c379a000000000000000000000000000000000000000000000000000000000815260040180806020018281038252601e8152602001807f6e6f74206f70656e696e6720696e63656e74697665207769746864726177000081525060200191505060405180910390fd5b611ca88233610d87565b151515611d1d576040517f08c379a000000000000000000000000000000000000000000000000000000000815260040180806020018281038252601a8152602001807f616c726561647920726563656976656420696e63656e7469766500000000000081525060200191505060405180910390fd5b600160009054906101000a900473ffffffffffffffffffffffffffffffffffffffff1673ffffffffffffffffffffffffffffffffffffffff1663a9059cbb33611d6685336118ff565b6040518363ffffffff167c0100000000000000000000000000000000000000000000000000000000028152600401808373ffffffffffffffffffffffffffffffffffffffff1673ffffffffffffffffffffffffffffffffffffffff16815260200182815260200192505050602060405180830381600087803b158015611deb57600080fd5b505af1158015611dff573d6000803e3d6000fd5b505050506040513d6020811015611e1557600080fd5b8101908080519060200190929190505050506004600083815260200190815260200160002060009054906101000a900473ffffffffffffffffffffffffffffffffffffffff1673ffffffffffffffffffffffffffffffffffffffff1663f102378e3360008060016040518563ffffffff167c0100000000000000000000000000000000000000000000000000000000028152600401808573ffffffffffffffffffffffffffffffffffffffff1673ffffffffffffffffffffffffffffffffffffffff168152602001846002811115611ee957fe5b60ff16815260200183815260200182151515158152602001945050505050602060405180830381600087803b158015611f2157600080fd5b505af1158015611f35573d6000803e3d6000fd5b505050506040513d6020811015611f4b57600080fd5b81019080805190602001909291905050501515611f6757600080fd5b3373ffffffffffffffffffffffffffffffffffffffff16827f6c0baadb611b09bbbeb41adc5f2f5c161dac3528165cdea6653d596313a78ea3611faa85336118ff565b6040518082815260200191505060405180910390a3919050565b60046020528060005260406000206000915054906101000a900473ffffffffffffffffffffffffffffffffffffffff1681565b600160009054906101000a900473ffffffffffffffffffffffffffffffffffffffff1681565b600080828481151561202b57fe5b0490508091505092915050565b600080600084141561204d576000915061206c565b828402905082848281151561205e57fe5b0414151561206857fe5b8091505b50929150505600a165627a7a723058209785c2470e427779da1d7fa646ab5d73f22201da1bb6fd99347bb605ccefdc8b0029a165627a7a723058204507d397329374b431bc20836c56cd981d480ed368fa2f004d3f28573913bc0b0029",
  "source": "/*\n * This contract is about manipulating funded ether.\n * After DAICO, funded ether follows this contract.\n */\npragma solidity ^0.4.23;\n\nimport \"../fund/IFund.sol\";\nimport \"../fund/IncentivePool.sol\";\nimport \"../fund/ReservePool.sol\";\nimport \"../token/ICustomToken.sol\";\nimport \"../token/IVestingTokens.sol\";\nimport \"../ownership/Ownable.sol\";\nimport \"../vote/IVotingFactory.sol\";\nimport \"../lib/Param.sol\";\n\ncontract Fund is IFund, Ownable, Param {\n    /* Library and Typedefs */\n    /* Global Variables */\n    // totalEther = [contract_account].balance\n    FUNDSTATE state;\n    ICustomToken token;\n    IVestingTokens vestingTokens;\n    address teamWallet; // no restriction for withdrawing\n    address mCrowdsaleAddress;\n    uint256 tap;\n    uint256 public lastWithdrawTime;\n\n    bool private switch__constructor = false;\n    bool private switch__dividePoolAfterSale = false;\n    bool private switch__lock_fund = false;\n\n\n    IVotingFactory votingFactory;\n    ReservePool res_pool;\n    IncentivePool inc_pool;\n\n    /* Modifiers */\n    modifier period(FUNDSTATE _state) {\n        require(state == _state);\n        _;\n    }\n\n    modifier unlock {\n        require(!switch__lock_fund);\n        _;\n    }\n\n    modifier lock {\n        require(switch__lock_fund);\n        _;\n    }\n\n    modifier allset {\n        require(address(token) != 0x0);\n        require(address(vestingTokens) != 0x0);\n        require(teamWallet != 0x0);\n        require(address(members) != 0x0);\n        require(address(inc_pool) != 0x0);\n        require(address(res_pool) != 0x0);\n        _;\n    }\n\n    /* Constructor */\n    constructor(\n        address _token,\n        address _teamWallet,\n        address _membersAddress\n        ) public Ownable(_membersAddress) {\n            require(!switch__constructor);\n            require(_token != 0x0);\n            require(_teamWallet != 0x0);\n            require(_membersAddress != 0x0);\n            switch__constructor = true;\n            state = FUNDSTATE.BEFORE_SALE;\n            // setFundAddress(address(this)); //FIXIT: set fund address in Members.fundAddress\n            token = ICustomToken(_token);\n            teamWallet = _teamWallet;\n            tap = INITIAL_TAP;\n            lastWithdrawTime = now;\n    }\n    /* View Function */\n    // function getVestingRate() view public //FIXIT: is it needed? => I think No\n    //     returns(uint256) {\n    //         uint256 term = now.sub(SALE_START_TIME);\n    //         return term.div(DEV_VESTING_PERIOD);\n    // }\n    // // the total supply of unlocked token\n    function publicSupply() public view\n        returns(uint256) {\n            require(address(token) != 0x0);\n            return token.totalSupply().sub(token.balanceOf(address(vestingTokens)));\n    }\n\n    // function getState() view public\n    //     returns(FUNDSTATE) {\n    //         return state;\n    // }\n\n    // function getToken() view public\n    //     returns(address) {\n    //         return address(token);\n    // }\n\n    // function getTeamWallet() view public\n    //     returns(address) {\n    //         return teamWallet;\n    // }\n\n    // function getTap() view public\n    //     returns(uint256) {\n    //         return tap;\n    // }\n\n    // function getVotingFactoryAddress() view public\n    //     returns(address) {\n    //         return address(votingFactory);\n    // }\n\n    // function getIncentiveAddress() view public\n    //     returns(address) {\n    //         return address(inc_pool);\n    // }\n\n    // function getReserveAddress() view public\n    //     returns(address) {\n    //         return address(res_pool);\n    // }\n\n    function getWithdrawable() view public\n        returns(uint256) {\n            return tap.mul(now.sub(lastWithdrawTime));\n    }\n\n    function getLocked() view public\n        returns(bool) {\n            return switch__lock_fund;\n    }\n\n    /* Set Function */\n    function setIncentivePoolAddress(address _addr) external\n        onlyDevelopers\n        unlock\n        returns(bool) {\n            require(_addr != 0x0);\n            require(address(inc_pool) == 0x0);\n\n            inc_pool = new IncentivePool(address(token), address(this), address(members));\n            // emit SetIncentivePoolAddress(_addr, msg.sender);\n            return true;\n    }\n    function setReservePoolAddress(address _addr) external\n        onlyDevelopers\n        unlock\n        returns(bool) {\n            require(_addr != 0x0);\n            require(address(res_pool) == 0x0);\n\n            res_pool = new ReservePool(address(token), address(this), teamWallet, address(members));\n            // emit SetReservePoolAddress(_addr, msg.sender);\n            return true;\n    }\n    function setVotingFactoryAddress(address _votingfacaddr) external\n        onlyDevelopers\n        unlock\n        returns(bool) {\n            require(_votingfacaddr != 0x0);\n            require(address(votingFactory) == 0x0);\n\n            votingFactory = IVotingFactory(_votingfacaddr);\n            // emit SetVotingFactoryAddress(_votingfacaddr, msg.sender);\n            return true;\n    }\n\n    function setCrowdsaleAddress(address _crowdsaleAddress) external\n        onlyDevelopers\n        unlock\n        returns(bool) {\n            require(_crowdsaleAddress != 0x0);\n            require(mCrowdsaleAddress == 0x0);\n\n            mCrowdsaleAddress = _crowdsaleAddress;\n            // emit SetCrowdsaleAddress(_crowdsale, msg.sender);\n            return true;\n    }\n\n    function setVestingTokensAddress(address _vestingTokensAddr) external\n        onlyDevelopers\n        unlock\n        returns(bool) {\n            require(_vestingTokensAddr != 0x0);\n            require(address(vestingTokens) == 0x0);\n\n            vestingTokens = IVestingTokens(_vestingTokensAddr);\n            // emit SetVestingTokensAddress(_vestingTokensAddr, msg.sender);\n            return true;\n    }\n\n    /* Fallback Function */\n    function () external payable {}\n\n    /* State Function */\n    function startSale() public\n        period(FUNDSTATE.BEFORE_SALE)\n        only(mCrowdsaleAddress) {\n            state = FUNDSTATE.CROWDSALE;\n            emit ChangeFundState(now, state);\n    }\n\n    function finalizeSale() public\n        period(FUNDSTATE.CROWDSALE)\n        only(mCrowdsaleAddress) {\n            state = FUNDSTATE.WORKING;\n            emit ChangeFundState(now, state);\n    }\n\n    function lockFund() public\n        period(FUNDSTATE.WORKING)\n        only(address(votingFactory.mRefundVotingAddress()))\n        unlock\n        returns(bool) {\n            state = FUNDSTATE.LOCKED;\n            switch__lock_fund = true;\n            if(!vestingTokens.lock()) { revert(); }\n            emit ChangeFundState(now, state);\n            return true;\n    }\n\n    /* Tap Function */\n    function changeTap(uint _tap) public\n        period(FUNDSTATE.WORKING)\n        only(address(votingFactory.mTapVotingAddress()))\n        unlock\n        returns(bool) {\n            tap = _tap;\n            emit ChangeTap(now, tap);\n            return true; \n    }\n    // We should compress below two funcs in one\n\n    // function increaseTap(uint256 change) public\n    //     period(FUNDSTATE.WORKING)\n    //     only(address(votingFactory.mTapVotingAddress()))\n    //     unlock\n    //     returns(bool) {\n    //         tap = tap.add(change);\n    //         emit ChangeTap(now, tap);\n    //         return true;\n    // }\n\n    // function decreaseTap(uint256 change) public\n    //     period(FUNDSTATE.WORKING)\n    //     only(address(votingFactory.mTapVotingAddress()))\n    //     unlock\n    //     returns(bool) {\n    //         tap = tap.sub(change);\n    //         emit ChangeTap(now, tap);\n    //         return true;\n    // }\n\n    // /* Withdraw Function */\n    function dividePoolAfterSale(uint256[3] asset_percent) public\n        period(FUNDSTATE.WORKING)\n        only(mCrowdsaleAddress) {\n            //asset_percent = [public, incentive, reserve] = total 100\n            require(!switch__dividePoolAfterSale);\n\n            switch__dividePoolAfterSale = true; // this function is called only once.\n            token.transfer(address(inc_pool), address(this).balance.mul(asset_percent[1]).div(100));\n            token.transfer(address(res_pool), address(this).balance.mul(asset_percent[2]).div(100));\n            emit DividePoolAfterSale(address(inc_pool), address(res_pool));\n    }\n\n    function withdrawTap() public\n        period(FUNDSTATE.WORKING)\n        only(address(votingFactory.mTapVotingAddress()))\n        unlock\n        payable\n        returns(bool) {\n            require(teamWallet != 0x0);\n            require(getWithdrawable() != 0);\n\n            uint256 withdraw_amount = getWithdrawable();\n            teamWallet.transfer(withdraw_amount); //payable\n            if(!_withdrawFromIncentive(withdraw_amount)) {revert();}\n            emit WithdrawTap(now, teamWallet);\n            return true;\n    }\n    function _withdrawFromIncentive(uint256 withdraw_amt) private\n        period(FUNDSTATE.WORKING)\n        unlock\n        returns(bool) {\n            require(address(inc_pool) != 0x0);\n\n            if(!inc_pool.withdraw(withdraw_amt)) {revert();}\n            emit WithdrawFromIncentive(now, msg.sender);\n            return true;\n    }\n\n    // function withdrawFromReserve(uint256 weiAmount) external\n    //     onlyDevelopers\n    //     period(FUNDSTATE.WORKING)\n    //     unlock\n    //     returns(bool) {\n    //         require(address(res_pool) != 0x0);\n    //         require(weiAmount > 0);\n    //         require(weiAmount <= address(res_pool).balance);\n\n    //         //TODO: not implemented\n    //         uint256 tokenAmount = 100;\n    //         if(!res_pool.withdraw(tokenAmount)) {revert();}\n    //         emit WithdrawFromReserve(now, teamWallet);\n    //         return true;\n    // }\n    // Just withdraw from reserve contract, not here\n\n    /* Refund Function */\n    function refund() external\n        period(FUNDSTATE.LOCKED)\n        lock\n        allset\n        returns(bool) {\n\n            uint256 refundETH = address(this).balance.mul(token.balanceOf(msg.sender)).div(publicSupply()); // refund ETH = remained ETH * (Token Amount) / (Public Token Supply)\n            if(!msg.sender.send(refundETH)) {revert(); }\n            emit Refund(now, msg.sender, refundETH);\n            return true;\n    }\n\n    function dead() external\n        period(FUNDSTATE.LOCKED)\n        lock\n        allset\n        returns(bool) {\n            require(address(this).balance <= 10 ether);\n            state = FUNDSTATE.COLLAPSED;\n            return true;\n        }\n}\n\n",
  "sourcePath": "/Users/pyo/blockchain/ICO2.0/contracts/fund/Fund.sol",
  "compiler": {
    "name": "solc",
    "version": "0.4.23+commit.124ca40d.Emscripten.clang"
  },
  "schemaVersion": "2.0.0",
  "updatedAt": "2018-05-22T12:40:37.749Z"
}