{
  "contractName": "IncentivePool",
  "abi": [
    {
      "constant": true,
      "inputs": [
        {
          "name": "",
          "type": "uint256"
        }
      ],
      "name": "withdrawnByDev",
      "outputs": [
        {
          "name": "",
          "type": "uint256"
        }
      ],
      "payable": false,
      "stateMutability": "view",
      "type": "function"
    },
    {
      "constant": true,
      "inputs": [
        {
          "name": "account",
          "type": "address"
        }
      ],
      "name": "isOwner",
      "outputs": [
        {
          "name": "",
          "type": "bool"
        }
      ],
      "payable": false,
      "stateMutability": "view",
      "type": "function"
    },
    {
      "constant": true,
      "inputs": [
        {
          "name": "account",
          "type": "address"
        }
      ],
      "name": "isLockedGroup",
      "outputs": [
        {
          "name": "",
          "type": "bool"
        }
      ],
      "payable": false,
      "stateMutability": "view",
      "type": "function"
    },
    {
      "constant": true,
      "inputs": [],
      "name": "tapvoting",
      "outputs": [
        {
          "name": "",
          "type": "address"
        }
      ],
      "payable": false,
      "stateMutability": "view",
      "type": "function"
    },
    {
      "constant": true,
      "inputs": [
        {
          "name": "account",
          "type": "address"
        }
      ],
      "name": "isDeveloper",
      "outputs": [
        {
          "name": "",
          "type": "bool"
        }
      ],
      "payable": false,
      "stateMutability": "view",
      "type": "function"
    },
    {
      "constant": true,
      "inputs": [],
      "name": "members",
      "outputs": [
        {
          "name": "",
          "type": "address"
        }
      ],
      "payable": false,
      "stateMutability": "view",
      "type": "function"
    },
    {
      "constant": true,
      "inputs": [
        {
          "name": "",
          "type": "uint256"
        }
      ],
      "name": "prevTapVotingList",
      "outputs": [
        {
          "name": "",
          "type": "address"
        }
      ],
      "payable": false,
      "stateMutability": "view",
      "type": "function"
    },
    {
      "constant": true,
      "inputs": [],
      "name": "token",
      "outputs": [
        {
          "name": "",
          "type": "address"
        }
      ],
      "payable": false,
      "stateMutability": "view",
      "type": "function"
    },
    {
      "inputs": [
        {
          "name": "_token",
          "type": "address"
        },
        {
          "name": "_fund",
          "type": "address"
        },
        {
          "name": "_membersAddress",
          "type": "address"
        }
      ],
      "payable": false,
      "stateMutability": "nonpayable",
      "type": "constructor"
    },
    {
      "anonymous": false,
      "inputs": [
        {
          "indexed": true,
          "name": "vote_number",
          "type": "uint256"
        },
        {
          "indexed": true,
          "name": "receiver",
          "type": "address"
        },
        {
          "indexed": false,
          "name": "incentive_amount",
          "type": "uint256"
        }
      ],
      "name": "ReceiveIncentive",
      "type": "event"
    },
    {
      "constant": true,
      "inputs": [],
      "name": "getBalance",
      "outputs": [
        {
          "name": "",
          "type": "uint256"
        }
      ],
      "payable": false,
      "stateMutability": "view",
      "type": "function"
    },
    {
      "constant": true,
      "inputs": [],
      "name": "getFund",
      "outputs": [
        {
          "name": "",
          "type": "address"
        }
      ],
      "payable": false,
      "stateMutability": "view",
      "type": "function"
    },
    {
      "constant": true,
      "inputs": [],
      "name": "getToken",
      "outputs": [
        {
          "name": "",
          "type": "address"
        }
      ],
      "payable": false,
      "stateMutability": "view",
      "type": "function"
    },
    {
      "constant": true,
      "inputs": [],
      "name": "getCurrentTapVoting",
      "outputs": [
        {
          "name": "",
          "type": "address"
        }
      ],
      "payable": false,
      "stateMutability": "view",
      "type": "function"
    },
    {
      "constant": true,
      "inputs": [
        {
          "name": "_votingNumber",
          "type": "uint256"
        }
      ],
      "name": "getPrevTapVoting",
      "outputs": [
        {
          "name": "",
          "type": "address"
        }
      ],
      "payable": false,
      "stateMutability": "view",
      "type": "function"
    },
    {
      "constant": true,
      "inputs": [
        {
          "name": "account",
          "type": "address"
        }
      ],
      "name": "getIncentiveAmountPerOne",
      "outputs": [
        {
          "name": "",
          "type": "uint256"
        }
      ],
      "payable": false,
      "stateMutability": "view",
      "type": "function"
    },
    {
      "constant": true,
      "inputs": [
        {
          "name": "_votingNumber",
          "type": "uint256"
        },
        {
          "name": "account",
          "type": "address"
        }
      ],
      "name": "getPrevIncentiveAmountPerOne",
      "outputs": [
        {
          "name": "",
          "type": "uint256"
        }
      ],
      "payable": false,
      "stateMutability": "view",
      "type": "function"
    },
    {
      "constant": true,
      "inputs": [
        {
          "name": "account",
          "type": "address"
        }
      ],
      "name": "hasReceived",
      "outputs": [
        {
          "name": "ret",
          "type": "bool"
        }
      ],
      "payable": false,
      "stateMutability": "view",
      "type": "function"
    },
    {
      "constant": true,
      "inputs": [
        {
          "name": "_votingNumber",
          "type": "uint256"
        },
        {
          "name": "account",
          "type": "address"
        }
      ],
      "name": "hasPrevReceived",
      "outputs": [
        {
          "name": "ret",
          "type": "bool"
        }
      ],
      "payable": false,
      "stateMutability": "view",
      "type": "function"
    },
    {
      "constant": false,
      "inputs": [
        {
          "name": "_tapvoting",
          "type": "address"
        }
      ],
      "name": "setTapVotingAddr",
      "outputs": [
        {
          "name": "",
          "type": "bool"
        }
      ],
      "payable": false,
      "stateMutability": "nonpayable",
      "type": "function"
    },
    {
      "constant": false,
      "inputs": [
        {
          "name": "withdraw_by_dev",
          "type": "uint256"
        }
      ],
      "name": "withdraw",
      "outputs": [
        {
          "name": "",
          "type": "bool"
        }
      ],
      "payable": false,
      "stateMutability": "nonpayable",
      "type": "function"
    },
    {
      "constant": false,
      "inputs": [],
      "name": "receiveIncentiveItself",
      "outputs": [
        {
          "name": "",
          "type": "bool"
        }
      ],
      "payable": false,
      "stateMutability": "nonpayable",
      "type": "function"
    },
    {
      "constant": false,
      "inputs": [
        {
          "name": "_votingNumber",
          "type": "uint256"
        }
      ],
      "name": "receivePrevIncentiveItself",
      "outputs": [
        {
          "name": "",
          "type": "bool"
        }
      ],
      "payable": false,
      "stateMutability": "nonpayable",
      "type": "function"
    }
  ],
  "bytecode": "0x608060405234801561001057600080fd5b506040516060806122728339810180604052810190808051906020019092919080519060200190929190805190602001909291905050508060008173ffffffffffffffffffffffffffffffffffffffff161415151561006e57600080fd5b806000806101000a81548173ffffffffffffffffffffffffffffffffffffffff021916908373ffffffffffffffffffffffffffffffffffffffff160217905550508160003373ffffffffffffffffffffffffffffffffffffffff16141515156100d657600080fd5b8073ffffffffffffffffffffffffffffffffffffffff163373ffffffffffffffffffffffffffffffffffffffff1614151561011057600080fd5b60008273ffffffffffffffffffffffffffffffffffffffff161415151561013657600080fd5b83600160006101000a81548173ffffffffffffffffffffffffffffffffffffffff021916908373ffffffffffffffffffffffffffffffffffffffff16021790555082600260006101000a81548173ffffffffffffffffffffffffffffffffffffffff021916908373ffffffffffffffffffffffffffffffffffffffff16021790555060006006819055505050505061209f806101d36000396000f30060806040526004361061011d576000357c0100000000000000000000000000000000000000000000000000000000900463ffffffff16806312065fe01461012257806316c2f3771461014d5780631a4514be1461018e5780631d947f93146101bd57806321df0da7146102225780632e1a7d4d146102795780632f54bf6e146102be57806339c2cf8e146103195780633bf5eb16146103745780634c4117bb146103cb5780635eca4a701461042657806367327ecc146104815780636d721122146104dc5780638edd6eb6146105495780639afb05d4146105a0578063bdd4d18d146105f7578063c3a3abf71461064e578063c4b41fdc146106af578063c78da92714610706578063d02005821461074b578063fc0c546a146107b8575b600080fd5b34801561012e57600080fd5b5061013761080f565b6040518082815260200191505060405180910390f35b34801561015957600080fd5b506101786004803603810190808035906020019092919050505061082e565b6040518082815260200191505060405180910390f35b34801561019a57600080fd5b506101a3610846565b604051808215151515815260200191505060405180910390f35b3480156101c957600080fd5b5061020860048036038101908080359060200190929190803573ffffffffffffffffffffffffffffffffffffffff169060200190929190505050610d87565b604051808215151515815260200191505060405180910390f35b34801561022e57600080fd5b50610237610eb8565b604051808273ffffffffffffffffffffffffffffffffffffffff1673ffffffffffffffffffffffffffffffffffffffff16815260200191505060405180910390f35b34801561028557600080fd5b506102a460048036038101908080359060200190929190505050610ee2565b604051808215151515815260200191505060405180910390f35b3480156102ca57600080fd5b506102ff600480360381019080803573ffffffffffffffffffffffffffffffffffffffff169060200190929190505050610fb9565b604051808215151515815260200191505060405180910390f35b34801561032557600080fd5b5061035a600480360381019080803573ffffffffffffffffffffffffffffffffffffffff1690602001909291905050506110b0565b604051808215151515815260200191505060405180910390f35b34801561038057600080fd5b506103896111b0565b604051808273ffffffffffffffffffffffffffffffffffffffff1673ffffffffffffffffffffffffffffffffffffffff16815260200191505060405180910390f35b3480156103d757600080fd5b5061040c600480360381019080803573ffffffffffffffffffffffffffffffffffffffff1690602001909291905050506111d6565b604051808215151515815260200191505060405180910390f35b34801561043257600080fd5b50610467600480360381019080803573ffffffffffffffffffffffffffffffffffffffff169060200190929190505050611367565b604051808215151515815260200191505060405180910390f35b34801561048d57600080fd5b506104c2600480360381019080803573ffffffffffffffffffffffffffffffffffffffff169060200190929190505050611467565b604051808215151515815260200191505060405180910390f35b3480156104e857600080fd5b5061050760048036038101908080359060200190929190505050611586565b604051808273ffffffffffffffffffffffffffffffffffffffff1673ffffffffffffffffffffffffffffffffffffffff16815260200191505060405180910390f35b34801561055557600080fd5b5061055e6115c3565b604051808273ffffffffffffffffffffffffffffffffffffffff1673ffffffffffffffffffffffffffffffffffffffff16815260200191505060405180910390f35b3480156105ac57600080fd5b506105e1600480360381019080803573ffffffffffffffffffffffffffffffffffffffff1690602001909291905050506115ed565b6040518082815260200191505060405180910390f35b34801561060357600080fd5b5061060c6118da565b604051808273ffffffffffffffffffffffffffffffffffffffff1673ffffffffffffffffffffffffffffffffffffffff16815260200191505060405180910390f35b34801561065a57600080fd5b5061069960048036038101908080359060200190929190803573ffffffffffffffffffffffffffffffffffffffff1690602001909291905050506118ff565b6040518082815260200191505060405180910390f35b3480156106bb57600080fd5b506106c4611bdd565b604051808273ffffffffffffffffffffffffffffffffffffffff1673ffffffffffffffffffffffffffffffffffffffff16815260200191505060405180910390f35b34801561071257600080fd5b5061073160048036038101908080359060200190929190505050611c07565b604051808215151515815260200191505060405180910390f35b34801561075757600080fd5b5061077660048036038101908080359060200190929190505050611fc4565b604051808273ffffffffffffffffffffffffffffffffffffffff1673ffffffffffffffffffffffffffffffffffffffff16815260200191505060405180910390f35b3480156107c457600080fd5b506107cd611ff7565b604051808273ffffffffffffffffffffffffffffffffffffffff1673ffffffffffffffffffffffffffffffffffffffff16815260200191505060405180910390f35b60003073ffffffffffffffffffffffffffffffffffffffff1631905090565b60056020528060005260406000206000915090505481565b600060076000600654815260200190815260200160002060009054906101000a900460ff1615156108df576040517f08c379a000000000000000000000000000000000000000000000000000000000815260040180806020018281038252601e8152602001807f6e6f74206f70656e696e6720696e63656e74697665207769746864726177000081525060200191505060405180910390fd5b6108e833611467565b15151561095d576040517f08c379a000000000000000000000000000000000000000000000000000000000815260040180806020018281038252601a8152602001807f616c726561647920726563656976656420696e63656e7469766500000000000081525060200191505060405180910390fd5b6064600160009054906101000a900473ffffffffffffffffffffffffffffffffffffffff1673ffffffffffffffffffffffffffffffffffffffff166370a08231336040518263ffffffff167c0100000000000000000000000000000000000000000000000000000000028152600401808273ffffffffffffffffffffffffffffffffffffffff1673ffffffffffffffffffffffffffffffffffffffff168152602001915050602060405180830381600087803b158015610a1c57600080fd5b505af1158015610a30573d6000803e3d6000fd5b505050506040513d6020811015610a4657600080fd5b810190808051906020019092919050505010151515610af3576040517f08c379a00000000000000000000000000000000000000000000000000000000081526004018080602001828103825260238152602001807f73686f7274206f6620746f6b656e20686f6c64696e6773206f6e20736e61707381526020017f686f74000000000000000000000000000000000000000000000000000000000081525060400191505060405180910390fd5b600160009054906101000a900473ffffffffffffffffffffffffffffffffffffffff1673ffffffffffffffffffffffffffffffffffffffff1663a9059cbb33610b3b336115ed565b6040518363ffffffff167c0100000000000000000000000000000000000000000000000000000000028152600401808373ffffffffffffffffffffffffffffffffffffffff1673ffffffffffffffffffffffffffffffffffffffff16815260200182815260200192505050602060405180830381600087803b158015610bc057600080fd5b505af1158015610bd4573d6000803e3d6000fd5b505050506040513d6020811015610bea57600080fd5b810190808051906020019092919050505050600360009054906101000a900473ffffffffffffffffffffffffffffffffffffffff1673ffffffffffffffffffffffffffffffffffffffff1663f102378e3360008060016040518563ffffffff167c0100000000000000000000000000000000000000000000000000000000028152600401808573ffffffffffffffffffffffffffffffffffffffff1673ffffffffffffffffffffffffffffffffffffffff168152602001846002811115610cad57fe5b60ff16815260200183815260200182151515158152602001945050505050602060405180830381600087803b158015610ce557600080fd5b505af1158015610cf9573d6000803e3d6000fd5b505050506040513d6020811015610d0f57600080fd5b81019080805190602001909291905050501515610d2b57600080fd5b3373ffffffffffffffffffffffffffffffffffffffff166006547f6c0baadb611b09bbbeb41adc5f2f5c161dac3528165cdea6653d596313a78ea3610d6f336115ed565b6040518082815260200191505060405180910390a390565b60006004600084815260200190815260200160002060009054906101000a900473ffffffffffffffffffffffffffffffffffffffff1673ffffffffffffffffffffffffffffffffffffffff1663fef23ae7836040518263ffffffff167c0100000000000000000000000000000000000000000000000000000000028152600401808273ffffffffffffffffffffffffffffffffffffffff1673ffffffffffffffffffffffffffffffffffffffff168152602001915050606060405180830381600087803b158015610e5757600080fd5b505af1158015610e6b573d6000803e3d6000fd5b505050506040513d6060811015610e8157600080fd5b8101908080519060200190929190805190602001909291908051906020019092919050505090915090508091505080905092915050565b6000600160009054906101000a900473ffffffffffffffffffffffffffffffffffffffff16905090565b6000600260009054906101000a900473ffffffffffffffffffffffffffffffffffffffff1660003373ffffffffffffffffffffffffffffffffffffffff1614151515610f2d57600080fd5b8073ffffffffffffffffffffffffffffffffffffffff163373ffffffffffffffffffffffffffffffffffffffff16141515610f6757600080fd5b600160076000600654815260200190815260200160002060006101000a81548160ff02191690831515021790555082600560006006548152602001908152602001600020819055506001915050919050565b60008060009054906101000a900473ffffffffffffffffffffffffffffffffffffffff1673ffffffffffffffffffffffffffffffffffffffff16638da5cb5b6040518163ffffffff167c0100000000000000000000000000000000000000000000000000000000028152600401602060405180830381600087803b15801561104057600080fd5b505af1158015611054573d6000803e3d6000fd5b505050506040513d602081101561106a57600080fd5b810190808051906020019092919050505073ffffffffffffffffffffffffffffffffffffffff168273ffffffffffffffffffffffffffffffffffffffff16149050919050565b60008060009054906101000a900473ffffffffffffffffffffffffffffffffffffffff1673ffffffffffffffffffffffffffffffffffffffff166339c2cf8e836040518263ffffffff167c0100000000000000000000000000000000000000000000000000000000028152600401808273ffffffffffffffffffffffffffffffffffffffff1673ffffffffffffffffffffffffffffffffffffffff168152602001915050602060405180830381600087803b15801561116e57600080fd5b505af1158015611182573d6000803e3d6000fd5b505050506040513d602081101561119857600080fd5b81019080805190602001909291905050509050919050565b600360009054906101000a900473ffffffffffffffffffffffffffffffffffffffff1681565b6000600260009054906101000a900473ffffffffffffffffffffffffffffffffffffffff1660003373ffffffffffffffffffffffffffffffffffffffff161415151561122157600080fd5b8073ffffffffffffffffffffffffffffffffffffffff163373ffffffffffffffffffffffffffffffffffffffff1614151561125b57600080fd5b60008373ffffffffffffffffffffffffffffffffffffffff161415151561128157600080fd5b6006600081548092919060010191905055508260046000600654815260200190815260200160002060006101000a81548173ffffffffffffffffffffffffffffffffffffffff021916908373ffffffffffffffffffffffffffffffffffffffff16021790555060046000600654815260200190815260200160002060009054906101000a900473ffffffffffffffffffffffffffffffffffffffff16600360006101000a81548173ffffffffffffffffffffffffffffffffffffffff021916908373ffffffffffffffffffffffffffffffffffffffff1602179055506001915050919050565b60008060009054906101000a900473ffffffffffffffffffffffffffffffffffffffff1673ffffffffffffffffffffffffffffffffffffffff16635eca4a70836040518263ffffffff167c0100000000000000000000000000000000000000000000000000000000028152600401808273ffffffffffffffffffffffffffffffffffffffff1673ffffffffffffffffffffffffffffffffffffffff168152602001915050602060405180830381600087803b15801561142557600080fd5b505af1158015611439573d6000803e3d6000fd5b505050506040513d602081101561144f57600080fd5b81019080805190602001909291905050509050919050565b6000600360009054906101000a900473ffffffffffffffffffffffffffffffffffffffff1673ffffffffffffffffffffffffffffffffffffffff1663fef23ae7836040518263ffffffff167c0100000000000000000000000000000000000000000000000000000000028152600401808273ffffffffffffffffffffffffffffffffffffffff1673ffffffffffffffffffffffffffffffffffffffff168152602001915050606060405180830381600087803b15801561152657600080fd5b505af115801561153a573d6000803e3d6000fd5b505050506040513d606081101561155057600080fd5b81019080805190602001909291908051906020019092919080519060200190929190505050909150905080915050809050919050565b60006004600083815260200190815260200160002060009054906101000a900473ffffffffffffffffffffffffffffffffffffffff169050919050565b6000600260009054906101000a900473ffffffffffffffffffffffffffffffffffffffff16905090565b6000806000806000808673ffffffffffffffffffffffffffffffffffffffff161415151561161a57600080fd5b6000600360009054906101000a900473ffffffffffffffffffffffffffffffffffffffff1673ffffffffffffffffffffffffffffffffffffffff161415151561166257600080fd5b600360009054906101000a900473ffffffffffffffffffffffffffffffffffffffff1673ffffffffffffffffffffffffffffffffffffffff1663fef23ae7876040518263ffffffff167c0100000000000000000000000000000000000000000000000000000000028152600401808273ffffffffffffffffffffffffffffffffffffffff1673ffffffffffffffffffffffffffffffffffffffff168152602001915050606060405180830381600087803b15801561171f57600080fd5b505af1158015611733573d6000803e3d6000fd5b505050506040513d606081101561174957600080fd5b810190808051906020019092919080519060200190929190805190602001909291905050509091505080945050600360009054906101000a900473ffffffffffffffffffffffffffffffffffffffff1673ffffffffffffffffffffffffffffffffffffffff166353976a266040518163ffffffff167c0100000000000000000000000000000000000000000000000000000000028152600401602060405180830381600087803b1580156117fc57600080fd5b505af1158015611810573d6000803e3d6000fd5b505050506040513d602081101561182657600080fd5b8101908080519060200190929190505050925061186260646005600060065481526020019081526020016000205461201d90919063ffffffff16565b91506118cc836118be6907f0e10af47c1c7000006118b0886118a2600560006006548152602001908152602001600020548961203890919063ffffffff16565b61203890919063ffffffff16565b61201d90919063ffffffff16565b61201d90919063ffffffff16565b905080945050505050919050565b6000809054906101000a900473ffffffffffffffffffffffffffffffffffffffff1681565b6000806000806000808673ffffffffffffffffffffffffffffffffffffffff161415151561192c57600080fd5b60008714156119455761193e866115ed565b9450611bd3565b6004600088815260200190815260200160002060009054906101000a900473ffffffffffffffffffffffffffffffffffffffff1673ffffffffffffffffffffffffffffffffffffffff1663fef23ae7876040518263ffffffff167c0100000000000000000000000000000000000000000000000000000000028152600401808273ffffffffffffffffffffffffffffffffffffffff1673ffffffffffffffffffffffffffffffffffffffff168152602001915050606060405180830381600087803b158015611a1357600080fd5b505af1158015611a27573d6000803e3d6000fd5b505050506040513d6060811015611a3d57600080fd5b8101908080519060200190929190805190602001909291908051906020019092919050505090915050809450506004600088815260200190815260200160002060009054906101000a900473ffffffffffffffffffffffffffffffffffffffff1673ffffffffffffffffffffffffffffffffffffffff166353976a266040518163ffffffff167c0100000000000000000000000000000000000000000000000000000000028152600401602060405180830381600087803b158015611b0157600080fd5b505af1158015611b15573d6000803e3d6000fd5b505050506040513d6020811015611b2b57600080fd5b81019080805190602001909291905050509250611b656064600560008a81526020019081526020016000205461201d90919063ffffffff16565b9150611bcd83611bbf6907f0e10af47c1c700000611bb188611ba3600560008f8152602001908152602001600020548961203890919063ffffffff16565b61203890919063ffffffff16565b61201d90919063ffffffff16565b61201d90919063ffffffff16565b90508094505b5050505092915050565b6000600360009054906101000a900473ffffffffffffffffffffffffffffffffffffffff16905090565b60006007600083815260200190815260200160002060009054906101000a900460ff161515611c9e576040517f08c379a000000000000000000000000000000000000000000000000000000000815260040180806020018281038252601e8152602001807f6e6f74206f70656e696e6720696e63656e74697665207769746864726177000081525060200191505060405180910390fd5b611ca88233610d87565b151515611d1d576040517f08c379a000000000000000000000000000000000000000000000000000000000815260040180806020018281038252601a8152602001807f616c726561647920726563656976656420696e63656e7469766500000000000081525060200191505060405180910390fd5b600160009054906101000a900473ffffffffffffffffffffffffffffffffffffffff1673ffffffffffffffffffffffffffffffffffffffff1663a9059cbb33611d6685336118ff565b6040518363ffffffff167c0100000000000000000000000000000000000000000000000000000000028152600401808373ffffffffffffffffffffffffffffffffffffffff1673ffffffffffffffffffffffffffffffffffffffff16815260200182815260200192505050602060405180830381600087803b158015611deb57600080fd5b505af1158015611dff573d6000803e3d6000fd5b505050506040513d6020811015611e1557600080fd5b8101908080519060200190929190505050506004600083815260200190815260200160002060009054906101000a900473ffffffffffffffffffffffffffffffffffffffff1673ffffffffffffffffffffffffffffffffffffffff1663f102378e3360008060016040518563ffffffff167c0100000000000000000000000000000000000000000000000000000000028152600401808573ffffffffffffffffffffffffffffffffffffffff1673ffffffffffffffffffffffffffffffffffffffff168152602001846002811115611ee957fe5b60ff16815260200183815260200182151515158152602001945050505050602060405180830381600087803b158015611f2157600080fd5b505af1158015611f35573d6000803e3d6000fd5b505050506040513d6020811015611f4b57600080fd5b81019080805190602001909291905050501515611f6757600080fd5b3373ffffffffffffffffffffffffffffffffffffffff16827f6c0baadb611b09bbbeb41adc5f2f5c161dac3528165cdea6653d596313a78ea3611faa85336118ff565b6040518082815260200191505060405180910390a3919050565b60046020528060005260406000206000915054906101000a900473ffffffffffffffffffffffffffffffffffffffff1681565b600160009054906101000a900473ffffffffffffffffffffffffffffffffffffffff1681565b600080828481151561202b57fe5b0490508091505092915050565b600080600084141561204d576000915061206c565b828402905082848281151561205e57fe5b0414151561206857fe5b8091505b50929150505600a165627a7a723058209785c2470e427779da1d7fa646ab5d73f22201da1bb6fd99347bb605ccefdc8b0029",
  "source": "pragma solidity ^0.4.23;\n\nimport \"../fund/Fund.sol\";\nimport \"../token/ERC20.sol\";\nimport \"../ownership/Ownable.sol\";\nimport \"../vote/TapVoting.sol\";\nimport \"../crowdsale/Crowdsale.sol\";\nimport \"../lib/SafeMath.sol\";\nimport \"../lib/Param.sol\";\n\ncontract IncentivePool is Ownable, Param {\n    using SafeMath for uint256;\n\n    ERC20 public token;\n    Fund private fund;\n    TapVoting public tapvoting;\n    mapping(uint256 => TapVoting) public prevTapVotingList;\n    mapping(uint256 => uint256) public withdrawnByDev;\n    uint256 currentTapVotingNumber;\n    mapping(uint256 => bool) switch__withdraw;\n\n    constructor(address _token, address _fund, address _membersAddress) public\n        only(_fund)\n        Ownable(_membersAddress) {\n            require(_membersAddress != 0x0);\n            token = ERC20(_token);\n            fund = Fund(_fund);\n            currentTapVotingNumber = 0;\n    }\n\n    event ReceiveIncentive(uint256 indexed vote_number, address indexed receiver, uint256 incentive_amount);\n    //TODO: must cover the previous tap voting incentive\n    function getBalance() public view\n        returns(uint256) {\n            return address(this).balance;\n    }\n\n    function getFund() public view\n        returns(Fund) {\n            return fund;\n    }\n\n    function getToken() public view\n        returns(address) {\n            return address(token);\n    }\n\n    function getCurrentTapVoting() public view\n        returns(address) {\n            return address(tapvoting);\n    }\n\n    function getPrevTapVoting(uint256 _votingNumber) public view\n        returns(address) {\n            return address(prevTapVotingList[_votingNumber]);\n    }\n\n    function getIncentiveAmountPerOne(address account) public view\n        returns(uint256) {\n            //TODO: put the formula in this func\n            require(account != 0x0);\n            require(address(tapvoting) != 0x0);\n\n            uint256 my_stake;\n            (,my_stake,) = tapvoting.readPartyDict(account); //power\n            uint256 total_stake = tapvoting.getTotalPower();\n            uint256 total_incentive = withdrawnByDev[currentTapVotingNumber].div(100); // FIXIT: 1%, but the withdrawn currency by dev is ETH and incentivised currency is Token\n            uint256 ret = total_incentive.mul(withdrawnByDev[currentTapVotingNumber]).mul(my_stake).div(HARD_CAP).div(total_stake);\n            return ret;\n    }\n    function getPrevIncentiveAmountPerOne(uint256 _votingNumber, address account) public view\n        returns(uint256) {\n            //TODO: put the formula in this func\n            require(account != 0x0);\n\n            if(_votingNumber == 0) { return getIncentiveAmountPerOne(account); }\n\n            uint256 my_stake;\n            (,my_stake,) = prevTapVotingList[_votingNumber].readPartyDict(account);\n            uint256 total_stake = prevTapVotingList[_votingNumber].getTotalPower();\n            uint256 total_incentive = withdrawnByDev[_votingNumber].div(100); // FIXIT: 1%, but the withdrawn currency by dev is ETH and incentivised currency is Token\n            uint256 ret = total_incentive.mul(withdrawnByDev[_votingNumber]).mul(my_stake).div(HARD_CAP).div(total_stake);\n            return ret;\n    }\n\n    function hasReceived(address account) public view\n        returns(bool ret) {\n            (,,ret) = tapvoting.readPartyDict(account);\n            return ret;\n    }\n    function hasPrevReceived(uint256 _votingNumber, address account) public view\n        returns(bool ret) {\n            (,,ret) = prevTapVotingList[_votingNumber].readPartyDict(account);\n            return ret;\n    }\n\n    //should make function on Fund.sol which calls this function\n    function setTapVotingAddr(address _tapvoting) public\n        only(fund)\n        returns(bool) {\n            require(_tapvoting != 0x0);\n\n            currentTapVotingNumber++;\n            prevTapVotingList[currentTapVotingNumber] = TapVoting(_tapvoting);\n            tapvoting = prevTapVotingList[currentTapVotingNumber];\n            return true;\n    }\n\n    function withdraw(uint256 withdraw_by_dev) public\n        only(fund)\n        returns (bool) {\n            switch__withdraw[currentTapVotingNumber] = true;\n            withdrawnByDev[currentTapVotingNumber] = withdraw_by_dev;\n            return true;\n    }\n    /*\n    the incentivised holder should call this function directly.\n    */\n    function receiveIncentiveItself() public\n        returns(bool) {\n            require(switch__withdraw[currentTapVotingNumber], \"not opening incentive withdraw\");\n            require(!hasReceived(msg.sender), \"already received incentive\");\n            require(token.balanceOf(msg.sender) >= MIN_RECEIVABLE_TOKEN, \"short of token holdings on snapshot\"); //should be changed from token balance to snapshot holdings.\n\n            token.transfer(msg.sender, getIncentiveAmountPerOne(msg.sender)); // ??\n            if(!tapvoting.writePartyDict(msg.sender,BaseVoting.VOTE_STATE.NONE,0,true)) { revert(); }\n            emit ReceiveIncentive(currentTapVotingNumber, msg.sender, getIncentiveAmountPerOne(msg.sender));\n    }\n\n    function receivePrevIncentiveItself(uint256 _votingNumber) public\n        returns(bool) {\n            require(switch__withdraw[_votingNumber], \"not opening incentive withdraw\");\n            require(!hasPrevReceived(_votingNumber, msg.sender), \"already received incentive\");\n\n            token.transfer(msg.sender, getPrevIncentiveAmountPerOne(_votingNumber, msg.sender));\n            if(!prevTapVotingList[_votingNumber].writePartyDict(msg.sender,BaseVoting.VOTE_STATE.NONE,0,true)) { revert(); }\n            emit ReceiveIncentive(_votingNumber, msg.sender, getPrevIncentiveAmountPerOne(_votingNumber, msg.sender));\n    }\n\n\n    /*\n    function _sendIncentivePerOne(address account) internal returns(uint256) {\n        //TODO: sender must be the contract\n        token.transfer(account, getIncentiveAmountPerOne(account));\n    }\n    function sendIncentive() external onlyDevelopers returns(bool) {\n\n        for(uint i=0; i<___.length; i++){\n            _sendIncentivePerOne(___[i]);\n        }\n    }\n    */\n}\n",
  "sourcePath": "/Users/pyo/blockchain/ICO2.0/contracts/fund/IncentivePool.sol",
  "compiler": {
    "name": "solc",
    "version": "0.4.23+commit.124ca40d.Emscripten.clang"
  },
  "schemaVersion": "2.0.0",
  "updatedAt": "2018-05-22T12:40:15.181Z"
}