{
  "contractName": "LockedTokens",
  "abi": [
    {
      "constant": true,
      "inputs": [
        {
          "name": "",
          "type": "address"
        },
        {
          "name": "",
          "type": "uint256"
        }
      ],
      "name": "mWalletTokens",
      "outputs": [
        {
          "name": "amount",
          "type": "uint256"
        },
        {
          "name": "lockEndTime",
          "type": "uint256"
        },
        {
          "name": "released",
          "type": "bool"
        }
      ],
      "payable": false,
      "stateMutability": "view",
      "type": "function"
    },
    {
      "inputs": [
        {
          "name": "_token",
          "type": "address"
        },
        {
          "name": "_fundAddress",
          "type": "address"
        }
      ],
      "payable": false,
      "stateMutability": "nonpayable",
      "type": "constructor"
    },
    {
      "anonymous": false,
      "inputs": [
        {
          "indexed": true,
          "name": "_to",
          "type": "address"
        },
        {
          "indexed": false,
          "name": "_value",
          "type": "uint256"
        },
        {
          "indexed": false,
          "name": "_lockEndTime",
          "type": "uint256"
        }
      ],
      "name": "TokensLocked",
      "type": "event"
    },
    {
      "anonymous": false,
      "inputs": [
        {
          "indexed": true,
          "name": "_to",
          "type": "address"
        },
        {
          "indexed": false,
          "name": "_value",
          "type": "uint256"
        }
      ],
      "name": "TokensUnlocked",
      "type": "event"
    },
    {
      "constant": false,
      "inputs": [
        {
          "name": "_crowdsaleAddress",
          "type": "address"
        }
      ],
      "name": "setCrowdsaleAddress",
      "outputs": [
        {
          "name": "",
          "type": "bool"
        }
      ],
      "payable": false,
      "stateMutability": "nonpayable",
      "type": "function"
    },
    {
      "constant": false,
      "inputs": [],
      "name": "releaseTokens",
      "outputs": [
        {
          "name": "",
          "type": "bool"
        }
      ],
      "payable": false,
      "stateMutability": "nonpayable",
      "type": "function"
    },
    {
      "constant": false,
      "inputs": [],
      "name": "lock",
      "outputs": [
        {
          "name": "",
          "type": "bool"
        }
      ],
      "payable": false,
      "stateMutability": "nonpayable",
      "type": "function"
    }
  ],
  "bytecode": "0x60806040526001600460006101000a81548160ff02191690831515021790555034801561002b57600080fd5b506040516040806108bc833981018060405281019080805190602001909291908051906020019092919050505060008273ffffffffffffffffffffffffffffffffffffffff161415151561007e57600080fd5b60008173ffffffffffffffffffffffffffffffffffffffff16141515156100a457600080fd5b816000806101000a81548173ffffffffffffffffffffffffffffffffffffffff021916908373ffffffffffffffffffffffffffffffffffffffff16021790555080600260006101000a81548173ffffffffffffffffffffffffffffffffffffffff021916908373ffffffffffffffffffffffffffffffffffffffff1602179055506001600460006101000a81548160ff021916908315150217905550505061076b806101516000396000f300608060405260043610610062576000357c0100000000000000000000000000000000000000000000000000000000900463ffffffff1680631f35bc4014610067578063a96f8668146100c2578063d711a7aa146100f1578063f83d08ba14610164575b600080fd5b34801561007357600080fd5b506100a8600480360381019080803573ffffffffffffffffffffffffffffffffffffffff169060200190929190505050610193565b604051808215151515815260200191505060405180910390f35b3480156100ce57600080fd5b506100d7610225565b604051808215151515815260200191505060405180910390f35b3480156100fd57600080fd5b5061013c600480360381019080803573ffffffffffffffffffffffffffffffffffffffff16906020019092919080359060200190929190505050610651565b6040518084815260200183815260200182151515158152602001935050505060405180910390f35b34801561017057600080fd5b506101796106a4565b604051808215151515815260200191505060405180910390f35b600080600160009054906101000a900473ffffffffffffffffffffffffffffffffffffffff1673ffffffffffffffffffffffffffffffffffffffff161415156101db57600080fd5b81600160006101000a81548173ffffffffffffffffffffffffffffffffffffffff021916908373ffffffffffffffffffffffffffffffffffffffff16021790555060019050919050565b600080600460009054906101000a900460ff16151561024357600080fd5b6000600360003373ffffffffffffffffffffffffffffffffffffffff1673ffffffffffffffffffffffffffffffffffffffff1681526020019081526020016000208054905011151561029457600080fd5b600090505b600360003373ffffffffffffffffffffffffffffffffffffffff1673ffffffffffffffffffffffffffffffffffffffff1681526020019081526020016000208054905081101561064957600360003373ffffffffffffffffffffffffffffffffffffffff1673ffffffffffffffffffffffffffffffffffffffff1681526020019081526020016000208181548110151561032f57fe5b906000526020600020906003020160020160009054906101000a900460ff161580156103b85750600360003373ffffffffffffffffffffffffffffffffffffffff1673ffffffffffffffffffffffffffffffffffffffff168152602001908152602001600020818154811015156103a257fe5b9060005260206000209060030201600101544210155b1561063c576001600360003373ffffffffffffffffffffffffffffffffffffffff1673ffffffffffffffffffffffffffffffffffffffff1681526020019081526020016000208281548110151561040b57fe5b906000526020600020906003020160020160006101000a81548160ff0219169083151502179055506000809054906101000a900473ffffffffffffffffffffffffffffffffffffffff1673ffffffffffffffffffffffffffffffffffffffff1663a9059cbb33600360003373ffffffffffffffffffffffffffffffffffffffff1673ffffffffffffffffffffffffffffffffffffffff168152602001908152602001600020848154811015156104bd57fe5b9060005260206000209060030201600001546040518363ffffffff167c0100000000000000000000000000000000000000000000000000000000028152600401808373ffffffffffffffffffffffffffffffffffffffff1673ffffffffffffffffffffffffffffffffffffffff16815260200182815260200192505050602060405180830381600087803b15801561055457600080fd5b505af1158015610568573d6000803e3d6000fd5b505050506040513d602081101561057e57600080fd5b8101908080519060200190929190505050503373ffffffffffffffffffffffffffffffffffffffff167fe7b379c6c1fa169e9079c25e9143b127637eef8ec8c9d5c06ddb4ab3e1195888600360003373ffffffffffffffffffffffffffffffffffffffff1673ffffffffffffffffffffffffffffffffffffffff1681526020019081526020016000208381548110151561061457fe5b9060005260206000209060030201600001546040518082815260200191505060405180910390a25b8080600101915050610299565b600191505090565b60036020528160005260406000208181548110151561066c57fe5b9060005260206000209060030201600091509150508060000154908060010154908060020160009054906101000a900460ff16905083565b6000600460009054906101000a900460ff1615156106c157600080fd5b600260009054906101000a900473ffffffffffffffffffffffffffffffffffffffff1673ffffffffffffffffffffffffffffffffffffffff163373ffffffffffffffffffffffffffffffffffffffff1614151561071d57600080fd5b6000600460006101000a81548160ff02191690831515021790555060019050905600a165627a7a723058202d9c7cacc03133b4bc6238d9702963314037d68050a4502fff5c5fe5998516e50029",
  "source": "pragma solidity ^0.4.23;\n\nimport \"../lib/SafeMath.sol\";\nimport \"../lib/Param.sol\";\nimport \"./IERC20.sol\";\nimport \"./ILockedTokens.sol\";\nimport \"../fund/Fund.sol\";\n\n\n/**\n * @title LockedTokens\n * @dev Lock tokens for certain period of time\n */\ncontract LockedTokens is ILockedTokens, Param {\n    using SafeMath for uint256;\n    struct Tokens {\n        uint256 amount;\n        uint256 lockEndTime;\n        bool released;\n    }\n\n    IERC20 mToken;\n    address mCrowdsaleAddress;\n    Fund mFund;\n    mapping(address => Tokens[]) public mWalletTokens;\n    bool workable = true;\n\n\n    modifier available {\n        require(workable);\n        _;\n    }\n    /**\n     * @dev LockedTokens constructor\n     * @param _token ERC20 compatible token contract\n     * @param _fundAddress Fund contract address\n     */\n    constructor(\n        address _token,\n        address _fundAddress) public {\n            require(_token != 0x0);\n            require(_fundAddress != 0x0);\n\n            mToken = IERC20(_token);\n            mFund = Fund(_fundAddress);\n            workable = true;\n    }\n\n    function setCrowdsaleAddress(address _crowdsaleAddress) public\n        returns(bool) {\n            require(mCrowdsaleAddress == 0x0);\n            mCrowdsaleAddress = _crowdsaleAddress;\n            return true;\n        }\n\n    /**\n     * @dev Functions locks tokens\n     * @param _to Wallet address to transfer tokens after _lockEndTime\n     * @param _amount Amount of tokens to lock\n     * @param _lockEndTime End of lock period\n     */\n    function addTokens(\n        address _to,\n        uint256 _amount,\n        uint256 _lockEndTime) internal\n        returns(bool) {\n            require(msg.sender == mCrowdsaleAddress);\n\n            mWalletTokens[_to].push(Tokens({amount: _amount, lockEndTime: _lockEndTime, released: false}));\n            emit TokensLocked(_to, _amount, _lockEndTime);\n            return true;\n    }\n\n    /**\n     * @dev Called by owner of locked tokens to release them\n     */\n    function releaseTokens() external\n        available\n        returns(bool) {\n            require(mWalletTokens[msg.sender].length > 0);\n\n            for(uint256 i = 0; i < mWalletTokens[msg.sender].length; i++) {\n                if(!mWalletTokens[msg.sender][i].released && now >= mWalletTokens[msg.sender][i].lockEndTime) {\n                    mWalletTokens[msg.sender][i].released = true;\n                    mToken.transfer(msg.sender, mWalletTokens[msg.sender][i].amount);\n                    emit TokensUnlocked(msg.sender, mWalletTokens[msg.sender][i].amount);\n                }\n            }\n            return true;\n    }\n\n    function lock() public\n        available\n        returns(bool) {\n            require(msg.sender == address(mFund));\n\n            workable = false;\n            return true;\n    }\n}\n",
  "sourcePath": "/Users/pyo/blockchain/ICO2.0/contracts/token/LockedTokens.sol",
  "compiler": {
    "name": "solc",
    "version": "0.4.23+commit.124ca40d.Emscripten.clang"
  },
  "schemaVersion": "2.0.0",
  "updatedAt": "2018-05-22T12:40:15.269Z"
}