{
  "contractName": "Members",
  "abi": [
    {
      "inputs": [],
      "payable": false,
      "stateMutability": "nonpayable",
      "type": "constructor"
    },
    {
      "anonymous": false,
      "inputs": [
        {
          "indexed": true,
          "name": "_owner",
          "type": "address"
        }
      ],
      "name": "CreateOwnership",
      "type": "event"
    },
    {
      "anonymous": false,
      "inputs": [
        {
          "indexed": true,
          "name": "_previousOwner",
          "type": "address"
        },
        {
          "indexed": true,
          "name": "_newOwner",
          "type": "address"
        }
      ],
      "name": "OwnershipTransferred",
      "type": "event"
    },
    {
      "anonymous": false,
      "inputs": [
        {
          "indexed": true,
          "name": "_devAddress",
          "type": "address"
        }
      ],
      "name": "EnrollDeveloper",
      "type": "event"
    },
    {
      "anonymous": false,
      "inputs": [
        {
          "indexed": true,
          "name": "_advAddress",
          "type": "address"
        }
      ],
      "name": "EnrollAdvisor",
      "type": "event"
    },
    {
      "anonymous": false,
      "inputs": [
        {
          "indexed": true,
          "name": "_privAddress",
          "type": "address"
        }
      ],
      "name": "EnrollPrivsale",
      "type": "event"
    },
    {
      "anonymous": false,
      "inputs": [
        {
          "indexed": true,
          "name": "_devAddress",
          "type": "address"
        }
      ],
      "name": "DeleteDeveloper",
      "type": "event"
    },
    {
      "anonymous": false,
      "inputs": [
        {
          "indexed": true,
          "name": "_advAddress",
          "type": "address"
        }
      ],
      "name": "DeleteAdvisor",
      "type": "event"
    },
    {
      "anonymous": false,
      "inputs": [
        {
          "indexed": true,
          "name": "_privAddress",
          "type": "address"
        }
      ],
      "name": "DeletePrivsale",
      "type": "event"
    },
    {
      "constant": true,
      "inputs": [],
      "name": "owner",
      "outputs": [
        {
          "name": "",
          "type": "address"
        }
      ],
      "payable": false,
      "stateMutability": "view",
      "type": "function"
    },
    {
      "constant": true,
      "inputs": [
        {
          "name": "addr",
          "type": "address"
        }
      ],
      "name": "isLockedGroup",
      "outputs": [
        {
          "name": "",
          "type": "bool"
        }
      ],
      "payable": false,
      "stateMutability": "view",
      "type": "function"
    },
    {
      "constant": true,
      "inputs": [
        {
          "name": "addr",
          "type": "address"
        }
      ],
      "name": "isDeveloper",
      "outputs": [
        {
          "name": "",
          "type": "bool"
        }
      ],
      "payable": false,
      "stateMutability": "view",
      "type": "function"
    },
    {
      "constant": true,
      "inputs": [
        {
          "name": "_addr",
          "type": "address"
        }
      ],
      "name": "getMemberLevel",
      "outputs": [
        {
          "name": "",
          "type": "uint8"
        }
      ],
      "payable": false,
      "stateMutability": "view",
      "type": "function"
    },
    {
      "constant": false,
      "inputs": [
        {
          "name": "newOwner",
          "type": "address"
        }
      ],
      "name": "transferOwnership",
      "outputs": [],
      "payable": false,
      "stateMutability": "nonpayable",
      "type": "function"
    },
    {
      "constant": false,
      "inputs": [
        {
          "name": "_saleAddr",
          "type": "address"
        }
      ],
      "name": "setCrowdsale",
      "outputs": [],
      "payable": false,
      "stateMutability": "nonpayable",
      "type": "function"
    },
    {
      "constant": false,
      "inputs": [
        {
          "name": "_devAddr",
          "type": "address"
        }
      ],
      "name": "enroll_developer",
      "outputs": [],
      "payable": false,
      "stateMutability": "nonpayable",
      "type": "function"
    },
    {
      "constant": false,
      "inputs": [
        {
          "name": "_advAddr",
          "type": "address"
        }
      ],
      "name": "enroll_advisor",
      "outputs": [],
      "payable": false,
      "stateMutability": "nonpayable",
      "type": "function"
    },
    {
      "constant": false,
      "inputs": [
        {
          "name": "_privAddr",
          "type": "address"
        }
      ],
      "name": "enroll_privsale",
      "outputs": [],
      "payable": false,
      "stateMutability": "nonpayable",
      "type": "function"
    },
    {
      "constant": false,
      "inputs": [
        {
          "name": "_devAddr",
          "type": "address"
        }
      ],
      "name": "delete_developer",
      "outputs": [],
      "payable": false,
      "stateMutability": "nonpayable",
      "type": "function"
    },
    {
      "constant": false,
      "inputs": [
        {
          "name": "_advAddr",
          "type": "address"
        }
      ],
      "name": "delete_advisor",
      "outputs": [],
      "payable": false,
      "stateMutability": "nonpayable",
      "type": "function"
    },
    {
      "constant": false,
      "inputs": [
        {
          "name": "_privAddr",
          "type": "address"
        }
      ],
      "name": "delete_privsale",
      "outputs": [],
      "payable": false,
      "stateMutability": "nonpayable",
      "type": "function"
    }
  ],
  "bytecode": "0x608060405234801561001057600080fd5b50336000806101000a81548173ffffffffffffffffffffffffffffffffffffffff021916908373ffffffffffffffffffffffffffffffffffffffff1602179055506000809054906101000a900473ffffffffffffffffffffffffffffffffffffffff1673ffffffffffffffffffffffffffffffffffffffff167f07ac3de9d826f78d6930925497690a5033ac541a6f5568b35cc5a1518e34a7d960405160405180910390a26004600260008060009054906101000a900473ffffffffffffffffffffffffffffffffffffffff1673ffffffffffffffffffffffffffffffffffffffff1673ffffffffffffffffffffffffffffffffffffffff16815260200190815260200160002060006101000a81548160ff0219169083600481111561013257fe5b021790555060036000809054906101000a900473ffffffffffffffffffffffffffffffffffffffff1690806001815401808255809150509060018203906000526020600020016000909192909190916101000a81548173ffffffffffffffffffffffffffffffffffffffff021916908373ffffffffffffffffffffffffffffffffffffffff16021790555050611632806101cd6000396000f3006080604052600436106100ba576000357c0100000000000000000000000000000000000000000000000000000000900463ffffffff1680631cfaf8ec146100bf57806339c2cf8e14610102578063483a20b21461015d57806359269e67146101a057806359aa3f31146102055780635eca4a70146102485780638da5cb5b146102a3578063a88230e1146102fa578063b548ab3a1461033d578063e6d14f7a14610380578063f2fde38b146103c3578063f43203a114610406575b600080fd5b3480156100cb57600080fd5b50610100600480360381019080803573ffffffffffffffffffffffffffffffffffffffff169060200190929190505050610449565b005b34801561010e57600080fd5b50610143600480360381019080803573ffffffffffffffffffffffffffffffffffffffff16906020019092919050505061066d565b604051808215151515815260200191505060405180910390f35b34801561016957600080fd5b5061019e600480360381019080803573ffffffffffffffffffffffffffffffffffffffff1690602001909291905050506106db565b005b3480156101ac57600080fd5b506101e1600480360381019080803573ffffffffffffffffffffffffffffffffffffffff16906020019092919050505061081f565b604051808260048111156101f157fe5b60ff16815260200191505060405180910390f35b34801561021157600080fd5b50610246600480360381019080803573ffffffffffffffffffffffffffffffffffffffff169060200190929190505050610875565b005b34801561025457600080fd5b50610289600480360381019080803573ffffffffffffffffffffffffffffffffffffffff1690602001909291905050506109d4565b604051808215151515815260200191505060405180910390f35b3480156102af57600080fd5b506102b8610a44565b604051808273ffffffffffffffffffffffffffffffffffffffff1673ffffffffffffffffffffffffffffffffffffffff16815260200191505060405180910390f35b34801561030657600080fd5b5061033b600480360381019080803573ffffffffffffffffffffffffffffffffffffffff169060200190929190505050610a6d565b005b34801561034957600080fd5b5061037e600480360381019080803573ffffffffffffffffffffffffffffffffffffffff169060200190929190505050610bcc565b005b34801561038c57600080fd5b506103c1600480360381019080803573ffffffffffffffffffffffffffffffffffffffff169060200190929190505050610d2b565b005b3480156103cf57600080fd5b50610404600480360381019080803573ffffffffffffffffffffffffffffffffffffffff169060200190929190505050610f4e565b005b34801561041257600080fd5b50610447600480360381019080803573ffffffffffffffffffffffffffffffffffffffff16906020019092919050505061126c565b005b600073ffffffffffffffffffffffffffffffffffffffff168173ffffffffffffffffffffffffffffffffffffffff161415151561048557600080fd5b6001600481111561049257fe5b600260008373ffffffffffffffffffffffffffffffffffffffff1673ffffffffffffffffffffffffffffffffffffffff16815260200190815260200160002060009054906101000a900460ff1660048111156104ea57fe5b14151515610560576040517f08c379a000000000000000000000000000000000000000000000000000000000815260040180806020018281038252601f8152602001807f497420697320616c726561647920696e207072697673616c652067726f75700081525060200191505060405180910390fd5b8073ffffffffffffffffffffffffffffffffffffffff167fc04dcc8f9204d8957fa50fe56fc09bb3e76705ffc836cada37e740a52253ef2860405160405180910390a260058190806001815401808255809150509060018203906000526020600020016000909192909190916101000a81548173ffffffffffffffffffffffffffffffffffffffff021916908373ffffffffffffffffffffffffffffffffffffffff160217905550506001600260008373ffffffffffffffffffffffffffffffffffffffff1673ffffffffffffffffffffffffffffffffffffffff16815260200190815260200160002060006101000a81548160ff0219169083600481111561066557fe5b021790555050565b600080600481111561067b57fe5b600260008473ffffffffffffffffffffffffffffffffffffffff1673ffffffffffffffffffffffffffffffffffffffff16815260200190815260200160002060009054906101000a900460ff1660048111156106d357fe5b119050919050565b6000809054906101000a900473ffffffffffffffffffffffffffffffffffffffff1673ffffffffffffffffffffffffffffffffffffffff163373ffffffffffffffffffffffffffffffffffffffff1614151561079f576040517f08c379a00000000000000000000000000000000000000000000000000000000081526004018080602001828103825260098152602001807f4e6f74204f776e6572000000000000000000000000000000000000000000000081525060200191505060405180910390fd5b600073ffffffffffffffffffffffffffffffffffffffff168173ffffffffffffffffffffffffffffffffffffffff16141515156107db57600080fd5b80600160006101000a81548173ffffffffffffffffffffffffffffffffffffffff021916908373ffffffffffffffffffffffffffffffffffffffff16021790555050565b6000600260008373ffffffffffffffffffffffffffffffffffffffff1673ffffffffffffffffffffffffffffffffffffffff16815260200190815260200160002060009054906101000a900460ff169050919050565b600073ffffffffffffffffffffffffffffffffffffffff168173ffffffffffffffffffffffffffffffffffffffff16141515156108b157600080fd5b600360048111156108be57fe5b600260008373ffffffffffffffffffffffffffffffffffffffff1673ffffffffffffffffffffffffffffffffffffffff16815260200190815260200160002060009054906101000a900460ff16600481111561091657fe5b14151561092257600080fd5b8073ffffffffffffffffffffffffffffffffffffffff167f7646e79b8fbba87e3fb9fda79f5f72b0bd60644261c90a3b2531a9fefd3baa4760405160405180910390a26000600260008373ffffffffffffffffffffffffffffffffffffffff1673ffffffffffffffffffffffffffffffffffffffff16815260200190815260200160002060006101000a81548160ff021916908360048111156109c157fe5b02179055506109d1600382611433565b50565b6000600360048111156109e357fe5b600260008473ffffffffffffffffffffffffffffffffffffffff1673ffffffffffffffffffffffffffffffffffffffff16815260200190815260200160002060009054906101000a900460ff166004811115610a3b57fe5b10159050919050565b60008060009054906101000a900473ffffffffffffffffffffffffffffffffffffffff16905090565b600073ffffffffffffffffffffffffffffffffffffffff168173ffffffffffffffffffffffffffffffffffffffff1614151515610aa957600080fd5b60016004811115610ab657fe5b600260008373ffffffffffffffffffffffffffffffffffffffff1673ffffffffffffffffffffffffffffffffffffffff16815260200190815260200160002060009054906101000a900460ff166004811115610b0e57fe5b141515610b1a57600080fd5b8073ffffffffffffffffffffffffffffffffffffffff167f19f0558b4c770ae6e9df0df6fb5e07d15dcd5519db4e0e926aeb20418d31fc2860405160405180910390a26000600260008373ffffffffffffffffffffffffffffffffffffffff1673ffffffffffffffffffffffffffffffffffffffff16815260200190815260200160002060006101000a81548160ff02191690836004811115610bb957fe5b0217905550610bc9600582611433565b50565b600073ffffffffffffffffffffffffffffffffffffffff168173ffffffffffffffffffffffffffffffffffffffff1614151515610c0857600080fd5b60026004811115610c1557fe5b600260008373ffffffffffffffffffffffffffffffffffffffff1673ffffffffffffffffffffffffffffffffffffffff16815260200190815260200160002060009054906101000a900460ff166004811115610c6d57fe5b141515610c7957600080fd5b8073ffffffffffffffffffffffffffffffffffffffff167f8121a131295270fa37b6102bdd45c9d6ff5cbd49c623f66e3b92d8eb9711021860405160405180910390a26000600260008373ffffffffffffffffffffffffffffffffffffffff1673ffffffffffffffffffffffffffffffffffffffff16815260200190815260200160002060006101000a81548160ff02191690836004811115610d1857fe5b0217905550610d28600482611433565b50565b600073ffffffffffffffffffffffffffffffffffffffff168173ffffffffffffffffffffffffffffffffffffffff1614151515610d6757600080fd5b60026004811115610d7457fe5b600260008373ffffffffffffffffffffffffffffffffffffffff1673ffffffffffffffffffffffffffffffffffffffff16815260200190815260200160002060009054906101000a900460ff166004811115610dcc57fe5b14151515610e42576040517f08c379a000000000000000000000000000000000000000000000000000000000815260040180806020018281038252601e8152602001807f497420697320616c726561647920696e2061647669736f722067726f7570000081525060200191505060405180910390fd5b8073ffffffffffffffffffffffffffffffffffffffff167fa61eebc6bfa93d8e39c212b8fadefa2a3738ec23c235b9c625e316cda1347ee260405160405180910390a260048190806001815401808255809150509060018203906000526020600020016000909192909190916101000a81548173ffffffffffffffffffffffffffffffffffffffff021916908373ffffffffffffffffffffffffffffffffffffffff1602179055505060028060008373ffffffffffffffffffffffffffffffffffffffff1673ffffffffffffffffffffffffffffffffffffffff16815260200190815260200160002060006101000a81548160ff02191690836004811115610f4657fe5b021790555050565b6000809054906101000a900473ffffffffffffffffffffffffffffffffffffffff1673ffffffffffffffffffffffffffffffffffffffff163373ffffffffffffffffffffffffffffffffffffffff16141515611012576040517f08c379a00000000000000000000000000000000000000000000000000000000081526004018080602001828103825260098152602001807f4e6f74204f776e6572000000000000000000000000000000000000000000000081525060200191505060405180910390fd5b600073ffffffffffffffffffffffffffffffffffffffff168173ffffffffffffffffffffffffffffffffffffffff161415151561104e57600080fd5b611057816109d4565b15156110cb576040517f08c379a000000000000000000000000000000000000000000000000000000000815260040180806020018281038252600e8152602001807f4e6f7420446576656c6f7065727300000000000000000000000000000000000081525060200191505060405180910390fd5b8073ffffffffffffffffffffffffffffffffffffffff166000809054906101000a900473ffffffffffffffffffffffffffffffffffffffff1673ffffffffffffffffffffffffffffffffffffffff167f8be0079c531659141344cd1fd0a4f28419497f9722a3daafe3b4186f6b6457e060405160405180910390a36004600260008373ffffffffffffffffffffffffffffffffffffffff1673ffffffffffffffffffffffffffffffffffffffff16815260200190815260200160002060006101000a81548160ff021916908360048111156111a257fe5b02179055506003600260008060009054906101000a900473ffffffffffffffffffffffffffffffffffffffff1673ffffffffffffffffffffffffffffffffffffffff1673ffffffffffffffffffffffffffffffffffffffff16815260200190815260200160002060006101000a81548160ff0219169083600481111561122457fe5b0217905550806000806101000a81548173ffffffffffffffffffffffffffffffffffffffff021916908373ffffffffffffffffffffffffffffffffffffffff16021790555050565b600073ffffffffffffffffffffffffffffffffffffffff168173ffffffffffffffffffffffffffffffffffffffff16141515156112a857600080fd5b6112b1816109d4565b151515611326576040517f08c379a000000000000000000000000000000000000000000000000000000000815260040180806020018281038252600f8152602001807f497420697320646576656c6f706572000000000000000000000000000000000081525060200191505060405180910390fd5b8073ffffffffffffffffffffffffffffffffffffffff167fe09bce35f84e9915258f40e2e21e7b18c09e9f405cfd1560907f40a922f6091b60405160405180910390a260038190806001815401808255809150509060018203906000526020600020016000909192909190916101000a81548173ffffffffffffffffffffffffffffffffffffffff021916908373ffffffffffffffffffffffffffffffffffffffff160217905550506003600260008373ffffffffffffffffffffffffffffffffffffffff1673ffffffffffffffffffffffffffffffffffffffff16815260200190815260200160002060006101000a81548160ff0219169083600481111561142b57fe5b021790555050565b60008090505b82805490508110156115b0578173ffffffffffffffffffffffffffffffffffffffff16838281548110151561146a57fe5b9060005260206000200160009054906101000a900473ffffffffffffffffffffffffffffffffffffffff1673ffffffffffffffffffffffffffffffffffffffff1614156115a3578260018480549050038154811015156114c657fe5b9060005260206000200160009054906101000a900473ffffffffffffffffffffffffffffffffffffffff1683828154811015156114ff57fe5b9060005260206000200160006101000a81548173ffffffffffffffffffffffffffffffffffffffff021916908373ffffffffffffffffffffffffffffffffffffffff16021790555082600184805490500381548110151561155c57fe5b9060005260206000200160006101000a81549073ffffffffffffffffffffffffffffffffffffffff02191690558280548091906001900361159d91906115b5565b506115b0565b8080600101915050611439565b505050565b8154818355818111156115dc578183600052602060002091820191016115db91906115e1565b5b505050565b61160391905b808211156115ff5760008160009055506001016115e7565b5090565b905600a165627a7a72305820e35307d6f1377899879aee7a893fe3d02332358e910a7055d911af1e103f17ee0029",
  "source": "pragma solidity ^0.4.23;\n\nimport \"../ownership/IMembers.sol\";\n\ncontract Members is IMembers {\n    /* \n        Remember we seperated accounts,\n        so it should never receive duplicated address\n    */\n\n    address owner_;\n    address mCrowdsaleAddress;\n    mapping(address => MEMBER_LEVEL) mMemberLevel;\n\n    address[] mDevelopers; // we should define owner is a member of dev\n    address[] mAdvisors;\n    address[] mPrivsale;\n\n    /* Modifier */\n    modifier onlyOwner() {\n        require(msg.sender == owner_, \"Not Owner\");\n        _;\n    }\n\n    modifier only(address addr) {\n        require(msg.sender != address(0));\n        require(msg.sender == addr, \"Not corresponding address\");\n        _;\n    }\n\n\n\n    /* Functions */\n    // Constructor\n    constructor() public {\n            owner_ = msg.sender;\n            emit CreateOwnership(owner_);\n            mMemberLevel[owner_] = MEMBER_LEVEL.OWNER;\n            mDevelopers.push(owner_);\n    }\n\n\n    // View functions\n    function owner() public view\n        returns(address) {\n            return owner_;\n    }\n\n    function isLockedGroup(address addr) public view\n        returns(bool) {\n            return (uint(mMemberLevel[addr]) > uint(MEMBER_LEVEL.NONE));\n    }\n\n    function isDeveloper(address addr) public view\n        returns(bool) {\n            return (uint(mMemberLevel[addr]) >= uint(MEMBER_LEVEL.DEV));\n    }\n    \n    function getMemberLevel(address _addr) public view\n        returns(MEMBER_LEVEL) {\n            return mMemberLevel[_addr];\n    }\n\n\n    // Ownership functions\n    function transferOwnership(address newOwner) public\n        onlyOwner {\n            require(newOwner != address(0));\n            require(isDeveloper(newOwner), \"Not Developers\");\n\n            emit OwnershipTransferred(owner_, newOwner);\n            mMemberLevel[newOwner] = MEMBER_LEVEL.OWNER;\n            mMemberLevel[owner_] = MEMBER_LEVEL.DEV; // we should define owner is a member of dev\n            owner_ = newOwner;\n    }\n\n\n    // Set functions\n    function setCrowdsale(address _saleAddr) public\n        onlyOwner {\n            require(_saleAddr != address(0));\n            mCrowdsaleAddress = _saleAddr;\n    }\n\n    function enroll_developer(address _devAddr) public\n    {\n            require(_devAddr != address(0));\n            require(!isDeveloper(_devAddr), \"It is developer\");\n            emit EnrollDeveloper(_devAddr);\n            mDevelopers.push(_devAddr);\n            mMemberLevel[_devAddr] = MEMBER_LEVEL.DEV;\n    }\n\n    function enroll_advisor(address _advAddr) public\n    {\n            require(_advAddr != address(0));\n            require(mMemberLevel[_advAddr] != MEMBER_LEVEL.ADV, \"It is already in advisor group\");\n            emit EnrollAdvisor(_advAddr);\n            mAdvisors.push(_advAddr);\n            mMemberLevel[_advAddr] = MEMBER_LEVEL.ADV;\n    }\n\n    function enroll_privsale(address _privAddr) public\n    {\n            require(_privAddr != address(0));\n            require(mMemberLevel[_privAddr] != MEMBER_LEVEL.PRIV, \"It is already in privsale group\");\n            emit EnrollPrivsale(_privAddr);\n            mPrivsale.push(_privAddr);\n            mMemberLevel[_privAddr] = MEMBER_LEVEL.PRIV;\n    }\n\n    function delete_developer(address _devAddr) public\n    {\n            require(_devAddr != address(0));\n            require(mMemberLevel[_devAddr] == MEMBER_LEVEL.DEV);\n            emit DeleteDeveloper(_devAddr);\n            mMemberLevel[_devAddr] = MEMBER_LEVEL.NONE;\n            _reorganizeArray(mDevelopers, _devAddr);\n    }\n\n    function delete_advisor(address _advAddr) public\n    {\n            require(_advAddr != address(0));\n            require(mMemberLevel[_advAddr] == MEMBER_LEVEL.ADV);\n            emit DeleteAdvisor(_advAddr);\n            mMemberLevel[_advAddr] = MEMBER_LEVEL.NONE;\n            _reorganizeArray(mAdvisors, _advAddr);\n    }\n    \n    function delete_privsale(address _privAddr) public\n    {\n            require(_privAddr != address(0));\n            require(mMemberLevel[_privAddr] == MEMBER_LEVEL.PRIV);\n            emit DeletePrivsale(_privAddr);\n            mMemberLevel[_privAddr] = MEMBER_LEVEL.NONE;\n            _reorganizeArray(mPrivsale, _privAddr);\n    }\n\n\n    // Internal functions\n\n    // to minimize gas : delete => void = length-1\n    function _reorganizeArray(\n        address[] storage _array,\n        address _deleteAddr) private {\n            for(uint i = 0; i < _array.length; i++){\n                if(_array[i] == _deleteAddr){\n                    _array[i] = _array[_array.length - 1];\n                    delete _array[_array.length - 1];\n                    _array.length--;\n                    break;\n                }\n            }\n    }\n}\n",
  "sourcePath": "/Users/pyo/blockchain/ICO2.0/contracts/ownership/Members.sol",
  "compiler": {
    "name": "solc",
    "version": "0.4.23+commit.124ca40d.Emscripten.clang"
  },
  "schemaVersion": "2.0.0",
  "updatedAt": "2018-05-22T12:40:37.728Z"
}