{
  "contractName": "Ownable",
  "abi": [
    {
      "constant": true,
      "inputs": [],
      "name": "members",
      "outputs": [
        {
          "name": "",
          "type": "address"
        }
      ],
      "payable": false,
      "stateMutability": "view",
      "type": "function"
    },
    {
      "inputs": [
        {
          "name": "_membersAddress",
          "type": "address"
        }
      ],
      "payable": false,
      "stateMutability": "nonpayable",
      "type": "constructor"
    },
    {
      "constant": true,
      "inputs": [
        {
          "name": "account",
          "type": "address"
        }
      ],
      "name": "isOwner",
      "outputs": [
        {
          "name": "",
          "type": "bool"
        }
      ],
      "payable": false,
      "stateMutability": "view",
      "type": "function"
    },
    {
      "constant": true,
      "inputs": [
        {
          "name": "account",
          "type": "address"
        }
      ],
      "name": "isDeveloper",
      "outputs": [
        {
          "name": "",
          "type": "bool"
        }
      ],
      "payable": false,
      "stateMutability": "view",
      "type": "function"
    },
    {
      "constant": true,
      "inputs": [
        {
          "name": "account",
          "type": "address"
        }
      ],
      "name": "isLockedGroup",
      "outputs": [
        {
          "name": "",
          "type": "bool"
        }
      ],
      "payable": false,
      "stateMutability": "view",
      "type": "function"
    }
  ],
  "bytecode": "0x608060405234801561001057600080fd5b506040516020806105c08339810180604052810190808051906020019092919050505060008173ffffffffffffffffffffffffffffffffffffffff161415151561005957600080fd5b806000806101000a81548173ffffffffffffffffffffffffffffffffffffffff021916908373ffffffffffffffffffffffffffffffffffffffff16021790555050610517806100a96000396000f300608060405260043610610062576000357c0100000000000000000000000000000000000000000000000000000000900463ffffffff1680632f54bf6e1461006757806339c2cf8e146100c25780635eca4a701461011d578063bdd4d18d14610178575b600080fd5b34801561007357600080fd5b506100a8600480360381019080803573ffffffffffffffffffffffffffffffffffffffff1690602001909291905050506101cf565b604051808215151515815260200191505060405180910390f35b3480156100ce57600080fd5b50610103600480360381019080803573ffffffffffffffffffffffffffffffffffffffff1690602001909291905050506102c6565b604051808215151515815260200191505060405180910390f35b34801561012957600080fd5b5061015e600480360381019080803573ffffffffffffffffffffffffffffffffffffffff1690602001909291905050506103c6565b604051808215151515815260200191505060405180910390f35b34801561018457600080fd5b5061018d6104c6565b604051808273ffffffffffffffffffffffffffffffffffffffff1673ffffffffffffffffffffffffffffffffffffffff16815260200191505060405180910390f35b60008060009054906101000a900473ffffffffffffffffffffffffffffffffffffffff1673ffffffffffffffffffffffffffffffffffffffff16638da5cb5b6040518163ffffffff167c0100000000000000000000000000000000000000000000000000000000028152600401602060405180830381600087803b15801561025657600080fd5b505af115801561026a573d6000803e3d6000fd5b505050506040513d602081101561028057600080fd5b810190808051906020019092919050505073ffffffffffffffffffffffffffffffffffffffff168273ffffffffffffffffffffffffffffffffffffffff16149050919050565b60008060009054906101000a900473ffffffffffffffffffffffffffffffffffffffff1673ffffffffffffffffffffffffffffffffffffffff166339c2cf8e836040518263ffffffff167c0100000000000000000000000000000000000000000000000000000000028152600401808273ffffffffffffffffffffffffffffffffffffffff1673ffffffffffffffffffffffffffffffffffffffff168152602001915050602060405180830381600087803b15801561038457600080fd5b505af1158015610398573d6000803e3d6000fd5b505050506040513d60208110156103ae57600080fd5b81019080805190602001909291905050509050919050565b60008060009054906101000a900473ffffffffffffffffffffffffffffffffffffffff1673ffffffffffffffffffffffffffffffffffffffff16635eca4a70836040518263ffffffff167c0100000000000000000000000000000000000000000000000000000000028152600401808273ffffffffffffffffffffffffffffffffffffffff1673ffffffffffffffffffffffffffffffffffffffff168152602001915050602060405180830381600087803b15801561048457600080fd5b505af1158015610498573d6000803e3d6000fd5b505050506040513d60208110156104ae57600080fd5b81019080805190602001909291905050509050919050565b6000809054906101000a900473ffffffffffffffffffffffffffffffffffffffff16815600a165627a7a72305820b6b0852aff73668fb2ff50360a30e489dcf60304f31af7883d9e47ea5eb0fb9a0029",
  "source": "pragma solidity ^0.4.23;\n\nimport \"./IMembers.sol\";\n\ncontract Ownable {\n    IMembers public members;\n\n    /* CONSTRUCTOR */\n    constructor(address _membersAddress) public {\n        require(_membersAddress != 0x0);\n        members = IMembers(_membersAddress);\n    }\n\n    /*MODIFIER*/\n    modifier only(address account) {\n        require(msg.sender != 0x0);\n        require(msg.sender == account);\n        _;\n    }\n    modifier onlyOwner() {\n        require(msg.sender == members.owner());\n        _;\n    }\n\n    modifier onlyDevelopers() {\n        require(members.isDeveloper(msg.sender));\n        _;\n    }\n    \n    function isOwner(address account) public view\n        returns(bool) {\n            return (account == members.owner());\n    }\n\n    function isDeveloper(address account) public view\n        returns(bool) {\n            return members.isDeveloper(account);\n    }\n\n    function isLockedGroup(address account) public view\n        returns(bool) {\n            return members.isLockedGroup(account);\n    }\n\n}\n",
  "sourcePath": "/Users/pyo/blockchain/ICO2.0/contracts/ownership/Ownable.sol",
  "compiler": {
    "name": "solc",
    "version": "0.4.23+commit.124ca40d.Emscripten.clang"
  },
  "schemaVersion": "2.0.0",
  "updatedAt": "2018-05-22T12:40:15.189Z"
}