{
  "contractName": "RefundVoting",
  "abi": [
    {
      "constant": true,
      "inputs": [],
      "name": "getAgreePower",
      "outputs": [
        {
          "name": "",
          "type": "uint256"
        }
      ],
      "payable": false,
      "stateMutability": "view",
      "type": "function"
    },
    {
      "constant": true,
      "inputs": [],
      "name": "getName",
      "outputs": [
        {
          "name": "",
          "type": "string"
        }
      ],
      "payable": false,
      "stateMutability": "view",
      "type": "function"
    },
    {
      "constant": true,
      "inputs": [
        {
          "name": "account",
          "type": "address"
        }
      ],
      "name": "isOwner",
      "outputs": [
        {
          "name": "",
          "type": "bool"
        }
      ],
      "payable": false,
      "stateMutability": "view",
      "type": "function"
    },
    {
      "constant": true,
      "inputs": [],
      "name": "getParticipatingPerc",
      "outputs": [
        {
          "name": "",
          "type": "uint256"
        }
      ],
      "payable": false,
      "stateMutability": "view",
      "type": "function"
    },
    {
      "constant": true,
      "inputs": [
        {
          "name": "account",
          "type": "address"
        }
      ],
      "name": "isLockedGroup",
      "outputs": [
        {
          "name": "",
          "type": "bool"
        }
      ],
      "payable": false,
      "stateMutability": "view",
      "type": "function"
    },
    {
      "constant": true,
      "inputs": [],
      "name": "getDiscardTime",
      "outputs": [
        {
          "name": "",
          "type": "uint256"
        }
      ],
      "payable": false,
      "stateMutability": "view",
      "type": "function"
    },
    {
      "constant": true,
      "inputs": [],
      "name": "isActivated",
      "outputs": [
        {
          "name": "",
          "type": "bool"
        }
      ],
      "payable": false,
      "stateMutability": "view",
      "type": "function"
    },
    {
      "constant": true,
      "inputs": [],
      "name": "getTotalPower",
      "outputs": [
        {
          "name": "",
          "type": "uint256"
        }
      ],
      "payable": false,
      "stateMutability": "view",
      "type": "function"
    },
    {
      "constant": true,
      "inputs": [
        {
          "name": "account",
          "type": "address"
        }
      ],
      "name": "isDeveloper",
      "outputs": [
        {
          "name": "",
          "type": "bool"
        }
      ],
      "payable": false,
      "stateMutability": "view",
      "type": "function"
    },
    {
      "constant": true,
      "inputs": [
        {
          "name": "",
          "type": "uint256"
        }
      ],
      "name": "locked_party_list",
      "outputs": [
        {
          "name": "",
          "type": "address"
        }
      ],
      "payable": false,
      "stateMutability": "view",
      "type": "function"
    },
    {
      "constant": true,
      "inputs": [],
      "name": "getMinVotingPerc",
      "outputs": [
        {
          "name": "",
          "type": "uint256"
        }
      ],
      "payable": false,
      "stateMutability": "pure",
      "type": "function"
    },
    {
      "constant": true,
      "inputs": [],
      "name": "getDisagreePower",
      "outputs": [
        {
          "name": "",
          "type": "uint256"
        }
      ],
      "payable": false,
      "stateMutability": "view",
      "type": "function"
    },
    {
      "constant": true,
      "inputs": [
        {
          "name": "",
          "type": "uint256"
        }
      ],
      "name": "public_party_list",
      "outputs": [
        {
          "name": "",
          "type": "address"
        }
      ],
      "payable": false,
      "stateMutability": "view",
      "type": "function"
    },
    {
      "constant": true,
      "inputs": [],
      "name": "getDisagreeCount",
      "outputs": [
        {
          "name": "",
          "type": "uint256"
        }
      ],
      "payable": false,
      "stateMutability": "view",
      "type": "function"
    },
    {
      "constant": true,
      "inputs": [],
      "name": "getAbsentPower",
      "outputs": [
        {
          "name": "",
          "type": "uint256"
        }
      ],
      "payable": false,
      "stateMutability": "view",
      "type": "function"
    },
    {
      "constant": true,
      "inputs": [],
      "name": "members",
      "outputs": [
        {
          "name": "",
          "type": "address"
        }
      ],
      "payable": false,
      "stateMutability": "view",
      "type": "function"
    },
    {
      "constant": true,
      "inputs": [
        {
          "name": "",
          "type": "address"
        }
      ],
      "name": "party_dict",
      "outputs": [
        {
          "name": "state",
          "type": "uint8"
        },
        {
          "name": "group",
          "type": "uint8"
        },
        {
          "name": "power",
          "type": "uint256"
        },
        {
          "name": "isReceivedIncentive",
          "type": "bool"
        }
      ],
      "payable": false,
      "stateMutability": "view",
      "type": "function"
    },
    {
      "constant": true,
      "inputs": [],
      "name": "getParticipantPower",
      "outputs": [
        {
          "name": "",
          "type": "uint256"
        }
      ],
      "payable": false,
      "stateMutability": "view",
      "type": "function"
    },
    {
      "constant": true,
      "inputs": [
        {
          "name": "",
          "type": "uint256"
        }
      ],
      "name": "party_list",
      "outputs": [
        {
          "name": "",
          "type": "address"
        }
      ],
      "payable": false,
      "stateMutability": "view",
      "type": "function"
    },
    {
      "constant": true,
      "inputs": [],
      "name": "getAgreeCount",
      "outputs": [
        {
          "name": "",
          "type": "uint256"
        }
      ],
      "payable": false,
      "stateMutability": "view",
      "type": "function"
    },
    {
      "constant": true,
      "inputs": [],
      "name": "getPublicPerc",
      "outputs": [
        {
          "name": "",
          "type": "uint256"
        }
      ],
      "payable": false,
      "stateMutability": "view",
      "type": "function"
    },
    {
      "constant": false,
      "inputs": [
        {
          "name": "account",
          "type": "address"
        },
        {
          "name": "a",
          "type": "uint8"
        },
        {
          "name": "b",
          "type": "uint256"
        },
        {
          "name": "c",
          "type": "bool"
        }
      ],
      "name": "writePartyDict",
      "outputs": [
        {
          "name": "",
          "type": "bool"
        }
      ],
      "payable": false,
      "stateMutability": "nonpayable",
      "type": "function"
    },
    {
      "constant": true,
      "inputs": [
        {
          "name": "account",
          "type": "address"
        }
      ],
      "name": "readPartyDict",
      "outputs": [
        {
          "name": "",
          "type": "uint8"
        },
        {
          "name": "",
          "type": "uint256"
        },
        {
          "name": "",
          "type": "bool"
        }
      ],
      "payable": false,
      "stateMutability": "view",
      "type": "function"
    },
    {
      "inputs": [
        {
          "name": "_votingName",
          "type": "string"
        },
        {
          "name": "_tokenAddress",
          "type": "address"
        },
        {
          "name": "_fundAddress",
          "type": "address"
        },
        {
          "name": "_vestingTokens",
          "type": "address"
        },
        {
          "name": "_membersAddress",
          "type": "address"
        }
      ],
      "payable": false,
      "stateMutability": "nonpayable",
      "type": "constructor"
    },
    {
      "anonymous": false,
      "inputs": [
        {
          "indexed": true,
          "name": "time",
          "type": "uint256"
        }
      ],
      "name": "DiscardRefundVoting",
      "type": "event"
    },
    {
      "anonymous": false,
      "inputs": [
        {
          "indexed": true,
          "name": "vote_account",
          "type": "address"
        },
        {
          "indexed": true,
          "name": "voting_name",
          "type": "string"
        },
        {
          "indexed": false,
          "name": "startTime",
          "type": "uint256"
        },
        {
          "indexed": false,
          "name": "endTime",
          "type": "uint256"
        }
      ],
      "name": "InitializeVote",
      "type": "event"
    },
    {
      "anonymous": false,
      "inputs": [
        {
          "indexed": true,
          "name": "opener",
          "type": "address"
        },
        {
          "indexed": false,
          "name": "open_time",
          "type": "uint256"
        }
      ],
      "name": "OpenVote",
      "type": "event"
    },
    {
      "anonymous": false,
      "inputs": [
        {
          "indexed": true,
          "name": "closer",
          "type": "address"
        },
        {
          "indexed": false,
          "name": "close_time",
          "type": "uint256"
        }
      ],
      "name": "CloseVote",
      "type": "event"
    },
    {
      "anonymous": false,
      "inputs": [
        {
          "indexed": true,
          "name": "finalizer",
          "type": "address"
        },
        {
          "indexed": false,
          "name": "finalize_time",
          "type": "uint256"
        }
      ],
      "name": "FinalizeVote",
      "type": "event"
    },
    {
      "anonymous": false,
      "inputs": [
        {
          "indexed": true,
          "name": "vote_account",
          "type": "address"
        },
        {
          "indexed": false,
          "name": "discard_time",
          "type": "uint256"
        }
      ],
      "name": "DiscardVote",
      "type": "event"
    },
    {
      "constant": true,
      "inputs": [],
      "name": "canDiscard",
      "outputs": [
        {
          "name": "",
          "type": "bool"
        }
      ],
      "payable": false,
      "stateMutability": "view",
      "type": "function"
    },
    {
      "constant": true,
      "inputs": [],
      "name": "isDiscarded",
      "outputs": [
        {
          "name": "",
          "type": "bool"
        }
      ],
      "payable": false,
      "stateMutability": "view",
      "type": "function"
    },
    {
      "constant": false,
      "inputs": [],
      "name": "initializeVote",
      "outputs": [
        {
          "name": "",
          "type": "bool"
        }
      ],
      "payable": false,
      "stateMutability": "nonpayable",
      "type": "function"
    },
    {
      "constant": false,
      "inputs": [
        {
          "name": "_term",
          "type": "uint256"
        }
      ],
      "name": "initializeVote",
      "outputs": [
        {
          "name": "",
          "type": "bool"
        }
      ],
      "payable": false,
      "stateMutability": "nonpayable",
      "type": "function"
    },
    {
      "constant": false,
      "inputs": [],
      "name": "openVote",
      "outputs": [
        {
          "name": "",
          "type": "bool"
        }
      ],
      "payable": false,
      "stateMutability": "nonpayable",
      "type": "function"
    },
    {
      "constant": false,
      "inputs": [],
      "name": "closeVote",
      "outputs": [
        {
          "name": "",
          "type": "bool"
        }
      ],
      "payable": false,
      "stateMutability": "nonpayable",
      "type": "function"
    },
    {
      "constant": false,
      "inputs": [],
      "name": "finalizeVote",
      "outputs": [
        {
          "name": "",
          "type": "bool"
        }
      ],
      "payable": false,
      "stateMutability": "nonpayable",
      "type": "function"
    },
    {
      "constant": false,
      "inputs": [],
      "name": "discard",
      "outputs": [
        {
          "name": "",
          "type": "bool"
        }
      ],
      "payable": false,
      "stateMutability": "nonpayable",
      "type": "function"
    },
    {
      "constant": false,
      "inputs": [
        {
          "name": "agree",
          "type": "bool"
        }
      ],
      "name": "vote",
      "outputs": [
        {
          "name": "",
          "type": "bool"
        }
      ],
      "payable": false,
      "stateMutability": "nonpayable",
      "type": "function"
    },
    {
      "constant": false,
      "inputs": [],
      "name": "getBack",
      "outputs": [
        {
          "name": "",
          "type": "bool"
        }
      ],
      "payable": false,
      "stateMutability": "nonpayable",
      "type": "function"
    }
  ],
  "bytecode": "0x608060405260006009556000600a556000600b556000600c556001601160006101000a81548160ff0219169083151502179055503480156200004057600080fd5b506040516200348038038062003480833981018060405281019080805182019291906020018051906020019092919080519060200190929190805190602001909291908051906020019092919050505084848484848060008173ffffffffffffffffffffffffffffffffffffffff1614151515620000bd57600080fd5b806000806101000a81548173ffffffffffffffffffffffffffffffffffffffff021916908373ffffffffffffffffffffffffffffffffffffffff16021790555050600073ffffffffffffffffffffffffffffffffffffffff168473ffffffffffffffffffffffffffffffffffffffff16141515156200013b57600080fd5b600073ffffffffffffffffffffffffffffffffffffffff168373ffffffffffffffffffffffffffffffffffffffff16141515156200017857600080fd5b600073ffffffffffffffffffffffffffffffffffffffff168273ffffffffffffffffffffffffffffffffffffffff1614151515620001b557600080fd5b60008173ffffffffffffffffffffffffffffffffffffffff1614151515620001dc57600080fd5b8460019080519060200190620001f492919062000349565b5083600260016101000a81548173ffffffffffffffffffffffffffffffffffffffff021916908373ffffffffffffffffffffffffffffffffffffffff16021790555082600360006101000a81548173ffffffffffffffffffffffffffffffffffffffff021916908373ffffffffffffffffffffffffffffffffffffffff16021790555081600460006101000a81548173ffffffffffffffffffffffffffffffffffffffff021916908373ffffffffffffffffffffffffffffffffffffffff1602179055506000600260006101000a81548160ff02191690836005811115620002d857fe5b021790555033600560006101000a81548173ffffffffffffffffffffffffffffffffffffffff021916908373ffffffffffffffffffffffffffffffffffffffff1602179055506001601160006101000a81548160ff02191690831515021790555050505050505050505050620003f8565b828054600181600116156101000203166002900490600052602060002090601f016020900481019282601f106200038c57805160ff1916838001178555620003bd565b82800160010185558215620003bd579182015b82811115620003bc5782518255916020019190600101906200039f565b5b509050620003cc9190620003d0565b5090565b620003f591905b80821115620003f1576000816000905550600101620003d7565b5090565b90565b61307880620004086000396000f3006080604052600436106101a1576000357c0100000000000000000000000000000000000000000000000000000000900463ffffffff168063144c1242146101a6578063149dbea6146101d557806317d7de7c146102005780632f54bf6e14610290578063329d3346146102eb5780633797cd331461031a57806339c2cf8e146103455780633ba40c3f146103a05780634a8c1fb4146103cb5780634b9f5c98146103fa57806353976a261461044157806354ef7f2d1461046c5780635eca4a701461049b578063717fa966146104f65780637c61e763146105635780637eae16261461058e57806380e9409d146105bd5780638af73aaf146105ec5780639b44c04014610617578063a6b240ae14610684578063ae127d29146106b3578063aeba7d76146106de578063ba37ecf214610723578063bb702c8e1461074e578063bdd4d18d1461077d578063cf1829c3146107d4578063d107d8c214610860578063d7e4bcd81461088f578063e2b00231146108ba578063e417f7d314610927578063ef05c32a14610952578063f102378e1461097d578063fef23ae7146109fb575b600080fd5b3480156101b257600080fd5b506101bb610a72565b604051808215151515815260200191505060405180910390f35b3480156101e157600080fd5b506101ea610aa1565b6040518082815260200191505060405180910390f35b34801561020c57600080fd5b50610215610aab565b6040518080602001828103825283818151815260200191508051906020019080838360005b8381101561025557808201518184015260208101905061023a565b50505050905090810190601f1680156102825780820380516001836020036101000a031916815260200191505b509250505060405180910390f35b34801561029c57600080fd5b506102d1600480360381019080803573ffffffffffffffffffffffffffffffffffffffff169060200190929190505050610b4d565b604051808215151515815260200191505060405180910390f35b3480156102f757600080fd5b50610300610c44565b604051808215151515815260200191505060405180910390f35b34801561032657600080fd5b5061032f610d9c565b6040518082815260200191505060405180910390f35b34801561035157600080fd5b50610386600480360381019080803573ffffffffffffffffffffffffffffffffffffffff169060200190929190505050610ebd565b604051808215151515815260200191505060405180910390f35b3480156103ac57600080fd5b506103b5610fbd565b6040518082815260200191505060405180910390f35b3480156103d757600080fd5b506103e0611041565b604051808215151515815260200191505060405180910390f35b34801561040657600080fd5b50610427600480360381019080803515159060200190929190505050611071565b604051808215151515815260200191505060405180910390f35b34801561044d57600080fd5b5061045661112d565b6040518082815260200191505060405180910390f35b34801561047857600080fd5b50610481611354565b604051808215151515815260200191505060405180910390f35b3480156104a757600080fd5b506104dc600480360381019080803573ffffffffffffffffffffffffffffffffffffffff1690602001909291905050506114f6565b604051808215151515815260200191505060405180910390f35b34801561050257600080fd5b50610521600480360381019080803590602001909291905050506115f6565b604051808273ffffffffffffffffffffffffffffffffffffffff1673ffffffffffffffffffffffffffffffffffffffff16815260200191505060405180910390f35b34801561056f57600080fd5b50610578611634565b6040518082815260200191505060405180910390f35b34801561059a57600080fd5b506105a3611668565b604051808215151515815260200191505060405180910390f35b3480156105c957600080fd5b506105d2611721565b604051808215151515815260200191505060405180910390f35b3480156105f857600080fd5b5061060161187c565b6040518082815260200191505060405180910390f35b34801561062357600080fd5b5061064260048036038101908080359060200190929190505050611886565b604051808273ffffffffffffffffffffffffffffffffffffffff1673ffffffffffffffffffffffffffffffffffffffff16815260200191505060405180910390f35b34801561069057600080fd5b506106996118c4565b604051808215151515815260200191505060405180910390f35b3480156106bf57600080fd5b506106c86118f4565b6040518082815260200191505060405180910390f35b3480156106ea57600080fd5b50610709600480360381019080803590602001909291905050506118fe565b604051808215151515815260200191505060405180910390f35b34801561072f57600080fd5b50610738611b6f565b6040518082815260200191505060405180910390f35b34801561075a57600080fd5b50610763611b97565b604051808215151515815260200191505060405180910390f35b34801561078957600080fd5b50610792611f2c565b604051808273ffffffffffffffffffffffffffffffffffffffff1673ffffffffffffffffffffffffffffffffffffffff16815260200191505060405180910390f35b3480156107e057600080fd5b50610815600480360381019080803573ffffffffffffffffffffffffffffffffffffffff169060200190929190505050611f51565b6040518085600281111561082557fe5b60ff16815260200184600181111561083957fe5b60ff1681526020018381526020018215151515815260200194505050505060405180910390f35b34801561086c57600080fd5b50610875611fa8565b604051808215151515815260200191505060405180910390f35b34801561089b57600080fd5b506108a4612100565b6040518082815260200191505060405180910390f35b3480156108c657600080fd5b506108e56004803603810190808035906020019092919050505061211e565b604051808273ffffffffffffffffffffffffffffffffffffffff1673ffffffffffffffffffffffffffffffffffffffff16815260200191505060405180910390f35b34801561093357600080fd5b5061093c61215c565b6040518082815260200191505060405180910390f35b34801561095e57600080fd5b50610967612166565b6040518082815260200191505060405180910390f35b34801561098957600080fd5b506109e1600480360381019080803573ffffffffffffffffffffffffffffffffffffffff169060200190929190803560ff16906020019092919080359060200190929190803515159060200190929190505050612314565b604051808215151515815260200191505060405180910390f35b348015610a0757600080fd5b50610a3c600480360381019080803573ffffffffffffffffffffffffffffffffffffffff16906020019092919050505061250c565b60405180846002811115610a4c57fe5b60ff16815260200183815260200182151515158152602001935050505060405180910390f35b6000600260009054906101000a900460ff166005811115610a8f57fe5b600580811115610a9b57fe5b14905090565b6000600954905090565b606060018054600181600116156101000203166002900480601f016020809104026020016040519081016040528092919081815260200182805460018160011615610100020316600290048015610b435780601f10610b1857610100808354040283529160200191610b43565b820191906000526020600020905b815481529060010190602001808311610b2657829003601f168201915b5050505050905090565b60008060009054906101000a900473ffffffffffffffffffffffffffffffffffffffff1673ffffffffffffffffffffffffffffffffffffffff16638da5cb5b6040518163ffffffff167c0100000000000000000000000000000000000000000000000000000000028152600401602060405180830381600087803b158015610bd457600080fd5b505af1158015610be8573d6000803e3d6000fd5b505050506040513d6020811015610bfe57600080fd5b810190808051906020019092919050505073ffffffffffffffffffffffffffffffffffffffff168273ffffffffffffffffffffffffffffffffffffffff16149050919050565b60006002806005811115610c5457fe5b600260009054906101000a900460ff166005811115610c6f57fe5b141515610ce4576040517f08c379a00000000000000000000000000000000000000000000000000000000081526004018080602001828103825260168152602001807f564f54455f504552494f44206e6f74206d617463682e0000000000000000000081525060200191505060405180910390fd5b601160009054906101000a900460ff161515610d8e576040517f08c379a00000000000000000000000000000000000000000000000000000000081526004018080602001828103825260268152602001807f7468697320726566756e6420766f74696e6720686173206265656e206469736381526020017f61726465642e000000000000000000000000000000000000000000000000000081525060400191505060405180910390fd5b610d96612601565b91505090565b600080610e876103e8610e796041600260019054906101000a900473ffffffffffffffffffffffffffffffffffffffff1673ffffffffffffffffffffffffffffffffffffffff166318160ddd6040518163ffffffff167c0100000000000000000000000000000000000000000000000000000000028152600401602060405180830381600087803b158015610e3057600080fd5b505af1158015610e44573d6000803e3d6000fd5b505050506040513d6020811015610e5a57600080fd5b81019080805190602001909291905050506127d690919063ffffffff16565b61281190919063ffffffff16565b9050610eb781610ea96103e8610e9b612100565b6127d690919063ffffffff16565b61281190919063ffffffff16565b91505090565b60008060009054906101000a900473ffffffffffffffffffffffffffffffffffffffff1673ffffffffffffffffffffffffffffffffffffffff166339c2cf8e836040518263ffffffff167c0100000000000000000000000000000000000000000000000000000000028152600401808273ffffffffffffffffffffffffffffffffffffffff1673ffffffffffffffffffffffffffffffffffffffff168152602001915050602060405180830381600087803b158015610f7b57600080fd5b505af1158015610f8f573d6000803e3d6000fd5b505050506040513d6020811015610fa557600080fd5b81019080805190602001909291905050509050919050565b60008060125414151515611039576040517f08c379a000000000000000000000000000000000000000000000000000000000815260040180806020018281038252601b8152602001807f7468697320766f7465206973206e6f74206469736361726465642e000000000081525060200191505060405180910390fd5b601254905090565b60006002600581111561105057fe5b600260009054906101000a900460ff16600581111561106b57fe5b14905090565b6000601160009054906101000a900460ff16151561111d576040517f08c379a00000000000000000000000000000000000000000000000000000000081526004018080602001828103825260268152602001807f7468697320726566756e6420766f74696e6720686173206265656e206469736381526020017f61726465642e000000000000000000000000000000000000000000000000000081525060400191505060405180910390fd5b6111268261282c565b9050919050565b60008060006112346103e8611226611157611146612166565b6103e8612a9a90919063ffffffff16565b600260019054906101000a900473ffffffffffffffffffffffffffffffffffffffff1673ffffffffffffffffffffffffffffffffffffffff166318160ddd6040518163ffffffff167c0100000000000000000000000000000000000000000000000000000000028152600401602060405180830381600087803b1580156111dd57600080fd5b505af11580156111f1573d6000803e3d6000fd5b505050506040513d602081101561120757600080fd5b81019080805190602001909291905050506127d690919063ffffffff16565b61281190919063ffffffff16565b91506113386103e861132a6102bc61131c61124d612166565b600260019054906101000a900473ffffffffffffffffffffffffffffffffffffffff1673ffffffffffffffffffffffffffffffffffffffff166318160ddd6040518163ffffffff167c0100000000000000000000000000000000000000000000000000000000028152600401602060405180830381600087803b1580156112d357600080fd5b505af11580156112e7573d6000803e3d6000fd5b505050506040513d60208110156112fd57600080fd5b81019080805190602001909291905050506127d690919063ffffffff16565b6127d690919063ffffffff16565b61281190919063ffffffff16565b905061134d8183612ab390919063ffffffff16565b9250505090565b600080600380600581111561136557fe5b600260009054906101000a900460ff16600581111561138057fe5b1415156113f5576040517f08c379a00000000000000000000000000000000000000000000000000000000081526004018080602001828103825260168152602001807f564f54455f504552494f44206e6f74206d617463682e0000000000000000000081525060200191505060405180910390fd5b601160009054906101000a900460ff16151561149f576040517f08c379a00000000000000000000000000000000000000000000000000000000081526004018080602001828103825260268152602001807f7468697320726566756e6420766f74696e6720686173206265656e206469736381526020017f61726465642e000000000000000000000000000000000000000000000000000081525060400191505060405180910390fd5b600091503373ffffffffffffffffffffffffffffffffffffffff167f7647aedaafa7f1b7392d18d7799845c386e257e2387a560f8aa9f7903d320261426040518082815260200191505060405180910390a2505090565b60008060009054906101000a900473ffffffffffffffffffffffffffffffffffffffff1673ffffffffffffffffffffffffffffffffffffffff16635eca4a70836040518263ffffffff167c0100000000000000000000000000000000000000000000000000000000028152600401808273ffffffffffffffffffffffffffffffffffffffff1673ffffffffffffffffffffffffffffffffffffffff168152602001915050602060405180830381600087803b1580156115b457600080fd5b505af11580156115c8573d6000803e3d6000fd5b505050506040513d60208110156115de57600080fd5b81019080805190602001909291905050509050919050565b60108181548110151561160557fe5b906000526020600020016000915054906101000a900473ffffffffffffffffffffffffffffffffffffffff1681565b600080600080600080603294506050935060149250605091506014905061165e8585858585612ad1565b9550505050505090565b6000601160009054906101000a900460ff161515611714576040517f08c379a00000000000000000000000000000000000000000000000000000000081526004018080602001828103825260268152602001807f7468697320726566756e6420766f74696e6720686173206265656e206469736381526020017f61726465642e000000000000000000000000000000000000000000000000000081525060400191505060405180910390fd5b61171c612adf565b905090565b60008080600581111561173057fe5b600260009054906101000a900460ff16600581111561174b57fe5b1415156117c0576040517f08c379a00000000000000000000000000000000000000000000000000000000081526004018080602001828103825260168152602001807f564f54455f504552494f44206e6f74206d617463682e0000000000000000000081525060200191505060405180910390fd5b601160009054906101000a900460ff16151561186a576040517f08c379a00000000000000000000000000000000000000000000000000000000081526004018080602001828103825260268152602001807f7468697320726566756e6420766f74696e6720686173206265656e206469736381526020017f61726465642e000000000000000000000000000000000000000000000000000081525060400191505060405180910390fd5b6118766224ea006118fe565b91505090565b6000600a54905090565b600f8181548110151561189557fe5b906000526020600020016000915054906101000a900473ffffffffffffffffffffffffffffffffffffffff1681565b600060085442101580156118ef57506118eb6224ea00600754612ab390919063ffffffff16565b4210155b905090565b6000600c54905090565b60008080600581111561190d57fe5b600260009054906101000a900460ff16600581111561192857fe5b14151561199d576040517f08c379a00000000000000000000000000000000000000000000000000000000081526004018080602001828103825260168152602001807f564f54455f504552494f44206e6f74206d617463682e0000000000000000000081525060200191505060405180910390fd5b601160009054906101000a900460ff161515611a47576040517f08c379a00000000000000000000000000000000000000000000000000000000081526004018080602001828103825260268152602001807f7468697320726566756e6420766f74696e6720686173206265656e206469736381526020017f61726465642e000000000000000000000000000000000000000000000000000081525060400191505060405180910390fd5b60003373ffffffffffffffffffffffffffffffffffffffff1614151515611a6d57600080fd5b426007819055508242016008819055506001600260006101000a81548160ff02191690836005811115611a9c57fe5b021790555060016040518082805460018160011615610100020316600290048015611afe5780601f10611adc576101008083540402835291820191611afe565b820191906000526020600020905b815481529060010190602001808311611aea575b505091505060405180910390203073ffffffffffffffffffffffffffffffffffffffff167f94b7d40ac167fe933cce8fd6393cb5ecd0702e01b177244062e37210b4baffd6600754600854604051808381526020018281526020019250505060405180910390a36001915050919050565b6000611b92611b7c612100565b611b8461112d565b612a9a90919063ffffffff16565b905090565b60006004806005811115611ba757fe5b600260009054906101000a900460ff166005811115611bc257fe5b141515611c37576040517f08c379a00000000000000000000000000000000000000000000000000000000081526004018080602001828103825260168152602001807f564f54455f504552494f44206e6f74206d617463682e0000000000000000000081525060200191505060405180910390fd5b601160009054906101000a900460ff161515611ce1576040517f08c379a00000000000000000000000000000000000000000000000000000000081526004018080602001828103825260268152602001807f7468697320726566756e6420766f74696e6720686173206265656e206469736381526020017f61726465642e000000000000000000000000000000000000000000000000000081525060400191505060405180910390fd5b600560009054906101000a900473ffffffffffffffffffffffffffffffffffffffff1660003373ffffffffffffffffffffffffffffffffffffffff1614151515611d2a57600080fd5b8073ffffffffffffffffffffffffffffffffffffffff163373ffffffffffffffffffffffffffffffffffffffff16141515611d6457600080fd5b6008544210158015611d8d5750611d896224ea00600754612ab390919063ffffffff16565b4210155b1515611e27576040517f08c379a00000000000000000000000000000000000000000000000000000000081526004018080602001828103825260358152602001807f636865636b207468617420726566756e6420766f74696e6720697320696e207481526020017f6865206469736361726461626c652073746174652e000000000000000000000081525060400191505060405180910390fd5b611e2f612dbb565b1515611ec9576040517f08c379a00000000000000000000000000000000000000000000000000000000081526004018080602001828103825260218152602001807f63616e6e6f7420646973636172642074686520726566756e6420766f74696e6781526020017f2e0000000000000000000000000000000000000000000000000000000000000081525060400191505060405180910390fd5b426012819055506005600260006101000a81548160ff02191690836005811115611eef57fe5b02179055506012547ffed7ff5d1aac95f750c17dd81dce1046a870292c64893f65f1693a6908d9aa8d60405160405180910390a260019250505090565b6000809054906101000a900473ffffffffffffffffffffffffffffffffffffffff1681565b600d6020528060005260406000206000915090508060000160009054906101000a900460ff16908060000160019054906101000a900460ff16908060010154908060020160009054906101000a900460ff16905084565b60006001806005811115611fb857fe5b600260009054906101000a900460ff166005811115611fd357fe5b141515612048576040517f08c379a00000000000000000000000000000000000000000000000000000000081526004018080602001828103825260168152602001807f564f54455f504552494f44206e6f74206d617463682e0000000000000000000081525060200191505060405180910390fd5b601160009054906101000a900460ff1615156120f2576040517f08c379a00000000000000000000000000000000000000000000000000000000081526004018080602001828103825260268152602001807f7468697320726566756e6420766f74696e6720686173206265656e206469736381526020017f61726465642e000000000000000000000000000000000000000000000000000081525060400191505060405180910390fd5b6120fa612e89565b91505090565b6000612119600a54600954612ab390919063ffffffff16565b905090565b600e8181548110151561212d57fe5b906000526020600020016000915054906101000a900473ffffffffffffffffffffffffffffffffffffffff1681565b6000600b54905090565b600061230f600260019054906101000a900473ffffffffffffffffffffffffffffffffffffffff1673ffffffffffffffffffffffffffffffffffffffff166318160ddd6040518163ffffffff167c0100000000000000000000000000000000000000000000000000000000028152600401602060405180830381600087803b1580156121f157600080fd5b505af1158015612205573d6000803e3d6000fd5b505050506040513d602081101561221b57600080fd5b81019080805190602001909291905050506123016103e8600360009054906101000a900473ffffffffffffffffffffffffffffffffffffffff1673ffffffffffffffffffffffffffffffffffffffff16635e84d7236040518163ffffffff167c0100000000000000000000000000000000000000000000000000000000028152600401602060405180830381600087803b1580156122b857600080fd5b505af11580156122cc573d6000803e3d6000fd5b505050506040513d60208110156122e257600080fd5b81019080805190602001909291905050506127d690919063ffffffff16565b61281190919063ffffffff16565b905090565b6000601160009054906101000a900460ff1615156123c0576040517f08c379a00000000000000000000000000000000000000000000000000000000081526004018080602001828103825260268152602001807f7468697320726566756e6420766f74696e6720686173206265656e206469736381526020017f61726465642e000000000000000000000000000000000000000000000000000081525060400191505060405180910390fd5b600060028111156123cd57fe5b8460028111156123d957fe5b1415156124445783600d60008773ffffffffffffffffffffffffffffffffffffffff1673ffffffffffffffffffffffffffffffffffffffff16815260200190815260200160002060000160006101000a81548160ff0219169083600281111561243e57fe5b02179055505b6000831415156124965782600d60008773ffffffffffffffffffffffffffffffffffffffff1673ffffffffffffffffffffffffffffffffffffffff168152602001908152602001600020600101819055505b60001515821515141515612500576001600d60008773ffffffffffffffffffffffffffffffffffffffff1673ffffffffffffffffffffffffffffffffffffffff16815260200190815260200160002060020160006101000a81548160ff0219169083151502179055505b60019050949350505050565b6000806000600d60008573ffffffffffffffffffffffffffffffffffffffff1673ffffffffffffffffffffffffffffffffffffffff16815260200190815260200160002060000160009054906101000a900460ff16600d60008673ffffffffffffffffffffffffffffffffffffffff1673ffffffffffffffffffffffffffffffffffffffff16815260200190815260200160002060010154600d60008773ffffffffffffffffffffffffffffffffffffffff1673ffffffffffffffffffffffffffffffffffffffff16815260200190815260200160002060020160009054906101000a900460ff169250925092509193909250565b6000600280600581111561261157fe5b600260009054906101000a900460ff16600581111561262c57fe5b1415156126a1576040517f08c379a00000000000000000000000000000000000000000000000000000000081526004018080602001828103825260168152602001807f564f54455f504552494f44206e6f74206d617463682e0000000000000000000081525060200191505060405180910390fd5b601160009054906101000a900460ff16151561274b576040517f08c379a00000000000000000000000000000000000000000000000000000000081526004018080602001828103825260268152602001807f7468697320726566756e6420766f74696e6720686173206265656e206469736381526020017f61726465642e000000000000000000000000000000000000000000000000000081525060400191505060405180910390fd5b600854421015151561275c57600080fd5b6003600260006101000a81548160ff0219169083600581111561277b57fe5b02179055503373ffffffffffffffffffffffffffffffffffffffff167f2a8e842584d30c3c752c76e93de00b254ad52e894a74c6eb92653f13777f6cca426040518082815260200191505060405180910390a2600191505090565b60008060008414156127eb576000915061280a565b82840290508284828115156127fc57fe5b0414151561280657fe5b8091505b5092915050565b600080828481151561281f57fe5b0490508091505092915050565b6000601160009054906101000a900460ff1615156128d8576040517f08c379a00000000000000000000000000000000000000000000000000000000081526004018080602001828103825260268152602001807f7468697320726566756e6420766f74696e6720686173206265656e206469736381526020017f61726465642e000000000000000000000000000000000000000000000000000081525060400191505060405180910390fd5b6128e0611041565b15156128eb57600080fd5b60003373ffffffffffffffffffffffffffffffffffffffff161415151561291157600080fd5b6000600281111561291e57fe5b600d60003373ffffffffffffffffffffffffffffffffffffffff1673ffffffffffffffffffffffffffffffffffffffff16815260200190815260200160002060000160009054906101000a900460ff16600281111561297957fe5b14151561298557600080fd5b8115612a10576001600d60003373ffffffffffffffffffffffffffffffffffffffff1673ffffffffffffffffffffffffffffffffffffffff16815260200190815260200160002060000160006101000a81548160ff021916908360028111156129ea57fe5b0217905550612a056001600b54612ab390919063ffffffff16565b600b81905550612a91565b6002600d60003373ffffffffffffffffffffffffffffffffffffffff1673ffffffffffffffffffffffffffffffffffffffff16815260200190815260200160002060000160006101000a81548160ff02191690836002811115612a6f57fe5b0217905550612a8a6001600c54612ab390919063ffffffff16565b600c819055505b60019050919050565b6000828211151515612aa857fe5b818303905092915050565b6000808284019050838110151515612ac757fe5b8091505092915050565b600080905095945050505050565b6000601160009054906101000a900460ff161515612b8b576040517f08c379a00000000000000000000000000000000000000000000000000000000081526004018080602001828103825260268152602001807f7468697320726566756e6420766f74696e6720686173206265656e206469736381526020017f61726465642e000000000000000000000000000000000000000000000000000081525060400191505060405180910390fd5b612b93611041565b1515612b9e57600080fd5b60003373ffffffffffffffffffffffffffffffffffffffff1614151515612bc457600080fd5b60016002811115612bd157fe5b600d60003373ffffffffffffffffffffffffffffffffffffffff1673ffffffffffffffffffffffffffffffffffffffff16815260200190815260200160002060000160009054906101000a900460ff166002811115612c2c57fe5b1415612cb7576000600d60003373ffffffffffffffffffffffffffffffffffffffff1673ffffffffffffffffffffffffffffffffffffffff16815260200190815260200160002060000160006101000a81548160ff02191690836002811115612c9157fe5b0217905550612cac6001600b54612a9a90919063ffffffff16565b600b81905550612db3565b600280811115612cc357fe5b600d60003373ffffffffffffffffffffffffffffffffffffffff1673ffffffffffffffffffffffffffffffffffffffff16815260200190815260200160002060000160009054906101000a900460ff166002811115612d1e57fe5b1415612da9576000600d60003373ffffffffffffffffffffffffffffffffffffffff1673ffffffffffffffffffffffffffffffffffffffff16815260200190815260200160002060000160006101000a81548160ff02191690836002811115612d8357fe5b0217905550612d9e6001600c54612a9a90919063ffffffff16565b600c81905550612db2565b60009050612db8565b5b600190505b90565b6000601160009054906101000a900460ff161515612e67576040517f08c379a00000000000000000000000000000000000000000000000000000000081526004018080602001828103825260268152602001807f7468697320726566756e6420766f74696e6720686173206265656e206469736381526020017f61726465642e000000000000000000000000000000000000000000000000000081525060400191505060405180910390fd5b6000601160006101000a81548160ff0219169083151502179055506001905090565b60006001806005811115612e9957fe5b600260009054906101000a900460ff166005811115612eb457fe5b141515612f29576040517f08c379a00000000000000000000000000000000000000000000000000000000081526004018080602001828103825260168152602001807f564f54455f504552494f44206e6f74206d617463682e0000000000000000000081525060200191505060405180910390fd5b601160009054906101000a900460ff161515612fd3576040517f08c379a00000000000000000000000000000000000000000000000000000000081526004018080602001828103825260268152602001807f7468697320726566756e6420766f74696e6720686173206265656e206469736381526020017f61726465642e000000000000000000000000000000000000000000000000000081525060400191505060405180910390fd5b60028060006101000a81548160ff02191690836005811115612ff157fe5b02179055503373ffffffffffffffffffffffffffffffffffffffff167f222bd9ba4394dac689328faf99a19d1f846c37c44dfe8003e052565663db4cc3426040518082815260200191505060405180910390a26001915050905600a165627a7a7230582047f86568680853f159a27fd61915cb5f41126ca851f6e278ea100e622bf257df0029",
  "source": "pragma solidity ^0.4.23;\n\nimport \"./BaseVoting.sol\";\n\ncontract RefundVoting is BaseVoting {\n\n    event DiscardRefundVoting(uint256 indexed time);\n\n    constructor(\n        string _votingName,\n        address _tokenAddress,\n        address _fundAddress,\n        address _vestingTokens,\n        address _membersAddress\n        )\n        BaseVoting( _votingName,\n                    _tokenAddress,\n                    _fundAddress,\n                    _vestingTokens, \n                    _membersAddress) public {\n    }\n    \n    function canDiscard() public view\n        returns(bool) {\n            return (now >= endTime && now >= startTime.add(REFRESH_TERM));\n    }\n\n    function isDiscarded() public view\n        returns(bool) {\n            return (VOTE_PERIOD.DISCARDED == mPeriod) ;\n    }\n    \n    /* RefundVoting Period Function\n     * order: initialize -> open -> close -> finalize -> discard\n     */\n    function initializeVote() public\n        period(VOTE_PERIOD.NONE)\n        available\n        returns(bool) {\n            return super.initializeVote(REFRESH_TERM); //fixed term\n    }\n    \n    function openVote() public\n        period(VOTE_PERIOD.INITIALIZED)\n        available\n        returns(bool) {\n            return super.openVote();\n    }\n\n    function closeVote() public\n        period(VOTE_PERIOD.OPENED)\n        available\n        returns(bool) {\n            return super.closeVote();\n    }\n\n    function finalizeVote() public\n        period(VOTE_PERIOD.CLOSED) \n        available\n        returns (bool) { \n            //TODO: finalize the refund voting. call lockFund() if refund has approved\n            RESULT_STATE result = RESULT_STATE.NONE;\n\n\n            emit FinalizeVote(msg.sender, now);    \n    }\n    \n    function discard() public\n        period(VOTE_PERIOD.FINALIZED)\n        available\n        only(mFactoryAddress)\n        returns(bool) {\n            require(now >= endTime && now >= startTime.add(REFRESH_TERM), \"check that refund voting is in the discardable state.\");\n            \n            if(!_haltFunctions()) {revert(\"cannot discard the refund voting.\");}\n            \n            discardTime = now;\n            mPeriod = VOTE_PERIOD.DISCARDED;\n            emit DiscardRefundVoting(discardTime);\n            return true;\n    }\n    \n    /* Personal Voting function\n     * vote, getBack\n     */\n    function vote(bool agree) public\n        available\n        returns (bool) {\n            return super.vote(agree);\n    }\n    \n    function getBack() public\n        available\n        returns (bool) {\n            return super.getBack();\n    }\n    \n\n}\n",
  "sourcePath": "/Users/pyo/blockchain/ICO2.0/contracts/vote/RefundVoting.sol",
  "compiler": {
    "name": "solc",
    "version": "0.4.23+commit.124ca40d.Emscripten.clang"
  },
  "schemaVersion": "2.0.0",
  "updatedAt": "2018-05-15T07:55:57.426Z"
}