{
  "contractName": "TapVoting",
  "abi": [
    {
      "constant": true,
      "inputs": [],
      "name": "getAgreePower",
      "outputs": [
        {
          "name": "",
          "type": "uint256"
        }
      ],
      "payable": false,
      "stateMutability": "view",
      "type": "function"
    },
    {
      "constant": true,
      "inputs": [],
      "name": "getName",
      "outputs": [
        {
          "name": "",
          "type": "string"
        }
      ],
      "payable": false,
      "stateMutability": "view",
      "type": "function"
    },
    {
      "constant": true,
      "inputs": [
        {
          "name": "account",
          "type": "address"
        }
      ],
      "name": "isOwner",
      "outputs": [
        {
          "name": "",
          "type": "bool"
        }
      ],
      "payable": false,
      "stateMutability": "view",
      "type": "function"
    },
    {
      "constant": true,
      "inputs": [],
      "name": "getParticipatingPerc",
      "outputs": [
        {
          "name": "",
          "type": "uint256"
        }
      ],
      "payable": false,
      "stateMutability": "view",
      "type": "function"
    },
    {
      "constant": true,
      "inputs": [
        {
          "name": "account",
          "type": "address"
        }
      ],
      "name": "isLockedGroup",
      "outputs": [
        {
          "name": "",
          "type": "bool"
        }
      ],
      "payable": false,
      "stateMutability": "view",
      "type": "function"
    },
    {
      "constant": true,
      "inputs": [],
      "name": "getDiscardTime",
      "outputs": [
        {
          "name": "",
          "type": "uint256"
        }
      ],
      "payable": false,
      "stateMutability": "view",
      "type": "function"
    },
    {
      "constant": true,
      "inputs": [],
      "name": "isActivated",
      "outputs": [
        {
          "name": "",
          "type": "bool"
        }
      ],
      "payable": false,
      "stateMutability": "view",
      "type": "function"
    },
    {
      "constant": true,
      "inputs": [],
      "name": "getTotalPower",
      "outputs": [
        {
          "name": "",
          "type": "uint256"
        }
      ],
      "payable": false,
      "stateMutability": "view",
      "type": "function"
    },
    {
      "constant": true,
      "inputs": [
        {
          "name": "account",
          "type": "address"
        }
      ],
      "name": "isDeveloper",
      "outputs": [
        {
          "name": "",
          "type": "bool"
        }
      ],
      "payable": false,
      "stateMutability": "view",
      "type": "function"
    },
    {
      "constant": true,
      "inputs": [
        {
          "name": "",
          "type": "uint256"
        }
      ],
      "name": "locked_party_list",
      "outputs": [
        {
          "name": "",
          "type": "address"
        }
      ],
      "payable": false,
      "stateMutability": "view",
      "type": "function"
    },
    {
      "constant": true,
      "inputs": [],
      "name": "getMinVotingPerc",
      "outputs": [
        {
          "name": "",
          "type": "uint256"
        }
      ],
      "payable": false,
      "stateMutability": "pure",
      "type": "function"
    },
    {
      "constant": true,
      "inputs": [],
      "name": "getDisagreePower",
      "outputs": [
        {
          "name": "",
          "type": "uint256"
        }
      ],
      "payable": false,
      "stateMutability": "view",
      "type": "function"
    },
    {
      "constant": true,
      "inputs": [
        {
          "name": "",
          "type": "uint256"
        }
      ],
      "name": "public_party_list",
      "outputs": [
        {
          "name": "",
          "type": "address"
        }
      ],
      "payable": false,
      "stateMutability": "view",
      "type": "function"
    },
    {
      "constant": true,
      "inputs": [],
      "name": "getDisagreeCount",
      "outputs": [
        {
          "name": "",
          "type": "uint256"
        }
      ],
      "payable": false,
      "stateMutability": "view",
      "type": "function"
    },
    {
      "constant": true,
      "inputs": [],
      "name": "getAbsentPower",
      "outputs": [
        {
          "name": "",
          "type": "uint256"
        }
      ],
      "payable": false,
      "stateMutability": "view",
      "type": "function"
    },
    {
      "constant": false,
      "inputs": [],
      "name": "discard",
      "outputs": [
        {
          "name": "",
          "type": "bool"
        }
      ],
      "payable": false,
      "stateMutability": "nonpayable",
      "type": "function"
    },
    {
      "constant": true,
      "inputs": [],
      "name": "members",
      "outputs": [
        {
          "name": "",
          "type": "address"
        }
      ],
      "payable": false,
      "stateMutability": "view",
      "type": "function"
    },
    {
      "constant": true,
      "inputs": [
        {
          "name": "",
          "type": "address"
        }
      ],
      "name": "party_dict",
      "outputs": [
        {
          "name": "state",
          "type": "uint8"
        },
        {
          "name": "group",
          "type": "uint8"
        },
        {
          "name": "power",
          "type": "uint256"
        },
        {
          "name": "isReceivedIncentive",
          "type": "bool"
        }
      ],
      "payable": false,
      "stateMutability": "view",
      "type": "function"
    },
    {
      "constant": true,
      "inputs": [],
      "name": "getParticipantPower",
      "outputs": [
        {
          "name": "",
          "type": "uint256"
        }
      ],
      "payable": false,
      "stateMutability": "view",
      "type": "function"
    },
    {
      "constant": true,
      "inputs": [
        {
          "name": "",
          "type": "uint256"
        }
      ],
      "name": "party_list",
      "outputs": [
        {
          "name": "",
          "type": "address"
        }
      ],
      "payable": false,
      "stateMutability": "view",
      "type": "function"
    },
    {
      "constant": true,
      "inputs": [],
      "name": "getAgreeCount",
      "outputs": [
        {
          "name": "",
          "type": "uint256"
        }
      ],
      "payable": false,
      "stateMutability": "view",
      "type": "function"
    },
    {
      "constant": true,
      "inputs": [],
      "name": "getPublicPerc",
      "outputs": [
        {
          "name": "",
          "type": "uint256"
        }
      ],
      "payable": false,
      "stateMutability": "view",
      "type": "function"
    },
    {
      "constant": false,
      "inputs": [
        {
          "name": "account",
          "type": "address"
        },
        {
          "name": "a",
          "type": "uint8"
        },
        {
          "name": "b",
          "type": "uint256"
        },
        {
          "name": "c",
          "type": "bool"
        }
      ],
      "name": "writePartyDict",
      "outputs": [
        {
          "name": "",
          "type": "bool"
        }
      ],
      "payable": false,
      "stateMutability": "nonpayable",
      "type": "function"
    },
    {
      "constant": true,
      "inputs": [
        {
          "name": "account",
          "type": "address"
        }
      ],
      "name": "readPartyDict",
      "outputs": [
        {
          "name": "",
          "type": "uint8"
        },
        {
          "name": "",
          "type": "uint256"
        },
        {
          "name": "",
          "type": "bool"
        }
      ],
      "payable": false,
      "stateMutability": "view",
      "type": "function"
    },
    {
      "inputs": [
        {
          "name": "_votingName",
          "type": "string"
        },
        {
          "name": "_tokenAddress",
          "type": "address"
        },
        {
          "name": "_fundAddress",
          "type": "address"
        },
        {
          "name": "_vestingTokens",
          "type": "address"
        },
        {
          "name": "_membersAddress",
          "type": "address"
        }
      ],
      "payable": false,
      "stateMutability": "nonpayable",
      "type": "constructor"
    },
    {
      "anonymous": false,
      "inputs": [
        {
          "indexed": true,
          "name": "vote_account",
          "type": "address"
        },
        {
          "indexed": true,
          "name": "voting_name",
          "type": "string"
        },
        {
          "indexed": false,
          "name": "startTime",
          "type": "uint256"
        },
        {
          "indexed": false,
          "name": "endTime",
          "type": "uint256"
        }
      ],
      "name": "InitializeVote",
      "type": "event"
    },
    {
      "anonymous": false,
      "inputs": [
        {
          "indexed": true,
          "name": "opener",
          "type": "address"
        },
        {
          "indexed": false,
          "name": "open_time",
          "type": "uint256"
        }
      ],
      "name": "OpenVote",
      "type": "event"
    },
    {
      "anonymous": false,
      "inputs": [
        {
          "indexed": true,
          "name": "closer",
          "type": "address"
        },
        {
          "indexed": false,
          "name": "close_time",
          "type": "uint256"
        }
      ],
      "name": "CloseVote",
      "type": "event"
    },
    {
      "anonymous": false,
      "inputs": [
        {
          "indexed": true,
          "name": "finalizer",
          "type": "address"
        },
        {
          "indexed": false,
          "name": "finalize_time",
          "type": "uint256"
        }
      ],
      "name": "FinalizeVote",
      "type": "event"
    },
    {
      "anonymous": false,
      "inputs": [
        {
          "indexed": true,
          "name": "vote_account",
          "type": "address"
        },
        {
          "indexed": false,
          "name": "discard_time",
          "type": "uint256"
        }
      ],
      "name": "DiscardVote",
      "type": "event"
    },
    {
      "constant": false,
      "inputs": [
        {
          "name": "term",
          "type": "uint256"
        }
      ],
      "name": "initializeVote",
      "outputs": [
        {
          "name": "",
          "type": "bool"
        }
      ],
      "payable": false,
      "stateMutability": "nonpayable",
      "type": "function"
    },
    {
      "constant": false,
      "inputs": [],
      "name": "openVote",
      "outputs": [
        {
          "name": "",
          "type": "bool"
        }
      ],
      "payable": false,
      "stateMutability": "nonpayable",
      "type": "function"
    },
    {
      "constant": false,
      "inputs": [],
      "name": "closeVote",
      "outputs": [
        {
          "name": "",
          "type": "bool"
        }
      ],
      "payable": false,
      "stateMutability": "nonpayable",
      "type": "function"
    },
    {
      "constant": false,
      "inputs": [],
      "name": "finalizeVote",
      "outputs": [
        {
          "name": "",
          "type": "bool"
        }
      ],
      "payable": false,
      "stateMutability": "nonpayable",
      "type": "function"
    },
    {
      "constant": false,
      "inputs": [
        {
          "name": "agree",
          "type": "bool"
        }
      ],
      "name": "vote",
      "outputs": [
        {
          "name": "",
          "type": "bool"
        }
      ],
      "payable": false,
      "stateMutability": "nonpayable",
      "type": "function"
    },
    {
      "constant": false,
      "inputs": [],
      "name": "getBack",
      "outputs": [
        {
          "name": "",
          "type": "bool"
        }
      ],
      "payable": false,
      "stateMutability": "nonpayable",
      "type": "function"
    }
  ],
  "bytecode": "0x608060405260006009556000600a556000600b556000600c556001601160006101000a81548160ff0219169083151502179055503480156200004057600080fd5b5060405162003bd838038062003bd8833981018060405281019080805182019291906020018051906020019092919080519060200190929190805190602001909291908051906020019092919050505084848484848060008173ffffffffffffffffffffffffffffffffffffffff1614151515620000bd57600080fd5b806000806101000a81548173ffffffffffffffffffffffffffffffffffffffff021916908373ffffffffffffffffffffffffffffffffffffffff16021790555050600073ffffffffffffffffffffffffffffffffffffffff168473ffffffffffffffffffffffffffffffffffffffff16141515156200013b57600080fd5b600073ffffffffffffffffffffffffffffffffffffffff168373ffffffffffffffffffffffffffffffffffffffff16141515156200017857600080fd5b600073ffffffffffffffffffffffffffffffffffffffff168273ffffffffffffffffffffffffffffffffffffffff1614151515620001b557600080fd5b60008173ffffffffffffffffffffffffffffffffffffffff1614151515620001dc57600080fd5b8460019080519060200190620001f492919062000349565b5083600260016101000a81548173ffffffffffffffffffffffffffffffffffffffff021916908373ffffffffffffffffffffffffffffffffffffffff16021790555082600360006101000a81548173ffffffffffffffffffffffffffffffffffffffff021916908373ffffffffffffffffffffffffffffffffffffffff16021790555081600460006101000a81548173ffffffffffffffffffffffffffffffffffffffff021916908373ffffffffffffffffffffffffffffffffffffffff1602179055506000600260006101000a81548160ff02191690836005811115620002d857fe5b021790555033600560006101000a81548173ffffffffffffffffffffffffffffffffffffffff021916908373ffffffffffffffffffffffffffffffffffffffff1602179055506001601160006101000a81548160ff02191690831515021790555050505050505050505050620003f8565b828054600181600116156101000203166002900490600052602060002090601f016020900481019282601f106200038c57805160ff1916838001178555620003bd565b82800160010185558215620003bd579182015b82811115620003bc5782518255916020019190600101906200039f565b5b509050620003cc9190620003d0565b5090565b620003f591905b80821115620003f1576000816000905550600101620003d7565b5090565b90565b6137d080620004086000396000f300608060405260043610610180576000357c0100000000000000000000000000000000000000000000000000000000900463ffffffff168063149dbea61461018557806317d7de7c146101b05780632f54bf6e14610240578063329d33461461029b5780633797cd33146102ca57806339c2cf8e146102f55780633ba40c3f146103505780634a8c1fb41461037b5780634b9f5c98146103aa57806353976a26146103f157806354ef7f2d1461041c5780635eca4a701461044b578063717fa966146104a65780637c61e763146105135780637eae16261461053e5780638af73aaf1461056d5780639b44c04014610598578063ae127d2914610605578063aeba7d7614610630578063ba37ecf214610675578063bb702c8e146106a0578063bdd4d18d146106cf578063cf1829c314610726578063d107d8c2146107b2578063d7e4bcd8146107e1578063e2b002311461080c578063e417f7d314610879578063ef05c32a146108a4578063f102378e146108cf578063fef23ae71461094d575b600080fd5b34801561019157600080fd5b5061019a6109c4565b6040518082815260200191505060405180910390f35b3480156101bc57600080fd5b506101c56109ce565b6040518080602001828103825283818151815260200191508051906020019080838360005b838110156102055780820151818401526020810190506101ea565b50505050905090810190601f1680156102325780820380516001836020036101000a031916815260200191505b509250505060405180910390f35b34801561024c57600080fd5b50610281600480360381019080803573ffffffffffffffffffffffffffffffffffffffff169060200190929190505050610a70565b604051808215151515815260200191505060405180910390f35b3480156102a757600080fd5b506102b0610b67565b604051808215151515815260200191505060405180910390f35b3480156102d657600080fd5b506102df610cbe565b6040518082815260200191505060405180910390f35b34801561030157600080fd5b50610336600480360381019080803573ffffffffffffffffffffffffffffffffffffffff169060200190929190505050610ddf565b604051808215151515815260200191505060405180910390f35b34801561035c57600080fd5b50610365610edf565b6040518082815260200191505060405180910390f35b34801561038757600080fd5b50610390610f63565b604051808215151515815260200191505060405180910390f35b3480156103b657600080fd5b506103d7600480360381019080803515159060200190929190505050610f93565b604051808215151515815260200191505060405180910390f35b3480156103fd57600080fd5b506104066110ee565b6040518082815260200191505060405180910390f35b34801561042857600080fd5b50610431611315565b604051808215151515815260200191505060405180910390f35b34801561045757600080fd5b5061048c600480360381019080803573ffffffffffffffffffffffffffffffffffffffff1690602001909291905050506117de565b604051808215151515815260200191505060405180910390f35b3480156104b257600080fd5b506104d1600480360381019080803590602001909291905050506118de565b604051808273ffffffffffffffffffffffffffffffffffffffff1673ffffffffffffffffffffffffffffffffffffffff16815260200191505060405180910390f35b34801561051f57600080fd5b5061052861191c565b6040518082815260200191505060405180910390f35b34801561054a57600080fd5b50610553611950565b604051808215151515815260200191505060405180910390f35b34801561057957600080fd5b50610582611aa8565b6040518082815260200191505060405180910390f35b3480156105a457600080fd5b506105c360048036038101908080359060200190929190505050611ab2565b604051808273ffffffffffffffffffffffffffffffffffffffff1673ffffffffffffffffffffffffffffffffffffffff16815260200191505060405180910390f35b34801561061157600080fd5b5061061a611af0565b6040518082815260200191505060405180910390f35b34801561063c57600080fd5b5061065b60048036038101908080359060200190929190505050611afa565b604051808215151515815260200191505060405180910390f35b34801561068157600080fd5b5061068a611c72565b6040518082815260200191505060405180910390f35b3480156106ac57600080fd5b506106b5611c9a565b604051808215151515815260200191505060405180910390f35b3480156106db57600080fd5b506106e4611f43565b604051808273ffffffffffffffffffffffffffffffffffffffff1673ffffffffffffffffffffffffffffffffffffffff16815260200191505060405180910390f35b34801561073257600080fd5b50610767600480360381019080803573ffffffffffffffffffffffffffffffffffffffff169060200190929190505050611f68565b6040518085600281111561077757fe5b60ff16815260200184600181111561078b57fe5b60ff1681526020018381526020018215151515815260200194505050505060405180910390f35b3480156107be57600080fd5b506107c7611fbf565b604051808215151515815260200191505060405180910390f35b3480156107ed57600080fd5b506107f6612116565b6040518082815260200191505060405180910390f35b34801561081857600080fd5b5061083760048036038101908080359060200190929190505050612134565b604051808273ffffffffffffffffffffffffffffffffffffffff1673ffffffffffffffffffffffffffffffffffffffff16815260200191505060405180910390f35b34801561088557600080fd5b5061088e612172565b6040518082815260200191505060405180910390f35b3480156108b057600080fd5b506108b961217c565b6040518082815260200191505060405180910390f35b3480156108db57600080fd5b50610933600480360381019080803573ffffffffffffffffffffffffffffffffffffffff169060200190929190803560ff1690602001909291908035906020019092919080351515906020019092919050505061232a565b604051808215151515815260200191505060405180910390f35b34801561095957600080fd5b5061098e600480360381019080803573ffffffffffffffffffffffffffffffffffffffff169060200190929190505050612522565b6040518084600281111561099e57fe5b60ff16815260200183815260200182151515158152602001935050505060405180910390f35b6000600954905090565b606060018054600181600116156101000203166002900480601f016020809104026020016040519081016040528092919081815260200182805460018160011615610100020316600290048015610a665780601f10610a3b57610100808354040283529160200191610a66565b820191906000526020600020905b815481529060010190602001808311610a4957829003601f168201915b5050505050905090565b60008060009054906101000a900473ffffffffffffffffffffffffffffffffffffffff1673ffffffffffffffffffffffffffffffffffffffff16638da5cb5b6040518163ffffffff167c0100000000000000000000000000000000000000000000000000000000028152600401602060405180830381600087803b158015610af757600080fd5b505af1158015610b0b573d6000803e3d6000fd5b505050506040513d6020811015610b2157600080fd5b810190808051906020019092919050505073ffffffffffffffffffffffffffffffffffffffff168273ffffffffffffffffffffffffffffffffffffffff16149050919050565b60006002806005811115610b7757fe5b600260009054906101000a900460ff166005811115610b9257fe5b141515610c07576040517f08c379a00000000000000000000000000000000000000000000000000000000081526004018080602001828103825260168152602001807f564f54455f504552494f44206e6f74206d617463682e0000000000000000000081525060200191505060405180910390fd5b601160009054906101000a900460ff161515610cb1576040517f08c379a00000000000000000000000000000000000000000000000000000000081526004018080602001828103825260268152602001807f7468697320726566756e6420766f74696e6720686173206265656e206469736381526020017f61726465642e000000000000000000000000000000000000000000000000000081525060400191505060405180910390fd5b610cb9612617565b505090565b600080610da96103e8610d9b6041600260019054906101000a900473ffffffffffffffffffffffffffffffffffffffff1673ffffffffffffffffffffffffffffffffffffffff166318160ddd6040518163ffffffff167c0100000000000000000000000000000000000000000000000000000000028152600401602060405180830381600087803b158015610d5257600080fd5b505af1158015610d66573d6000803e3d6000fd5b505050506040513d6020811015610d7c57600080fd5b81019080805190602001909291905050506127ec90919063ffffffff16565b61282790919063ffffffff16565b9050610dd981610dcb6103e8610dbd612116565b6127ec90919063ffffffff16565b61282790919063ffffffff16565b91505090565b60008060009054906101000a900473ffffffffffffffffffffffffffffffffffffffff1673ffffffffffffffffffffffffffffffffffffffff166339c2cf8e836040518263ffffffff167c0100000000000000000000000000000000000000000000000000000000028152600401808273ffffffffffffffffffffffffffffffffffffffff1673ffffffffffffffffffffffffffffffffffffffff168152602001915050602060405180830381600087803b158015610e9d57600080fd5b505af1158015610eb1573d6000803e3d6000fd5b505050506040513d6020811015610ec757600080fd5b81019080805190602001909291905050509050919050565b60008060125414151515610f5b576040517f08c379a000000000000000000000000000000000000000000000000000000000815260040180806020018281038252601b8152602001807f7468697320766f7465206973206e6f74206469736361726465642e000000000081525060200191505060405180910390fd5b601254905090565b600060026005811115610f7257fe5b600260009054906101000a900460ff166005811115610f8d57fe5b14905090565b60006002806005811115610fa357fe5b600260009054906101000a900460ff166005811115610fbe57fe5b141515611033576040517f08c379a00000000000000000000000000000000000000000000000000000000081526004018080602001828103825260168152602001807f564f54455f504552494f44206e6f74206d617463682e0000000000000000000081525060200191505060405180910390fd5b601160009054906101000a900460ff1615156110dd576040517f08c379a00000000000000000000000000000000000000000000000000000000081526004018080602001828103825260268152602001807f7468697320726566756e6420766f74696e6720686173206265656e206469736381526020017f61726465642e000000000000000000000000000000000000000000000000000081525060400191505060405180910390fd5b6110e683612842565b915050919050565b60008060006111f56103e86111e761111861110761217c565b6103e8612ab090919063ffffffff16565b600260019054906101000a900473ffffffffffffffffffffffffffffffffffffffff1673ffffffffffffffffffffffffffffffffffffffff166318160ddd6040518163ffffffff167c0100000000000000000000000000000000000000000000000000000000028152600401602060405180830381600087803b15801561119e57600080fd5b505af11580156111b2573d6000803e3d6000fd5b505050506040513d60208110156111c857600080fd5b81019080805190602001909291905050506127ec90919063ffffffff16565b61282790919063ffffffff16565b91506112f96103e86112eb6102bc6112dd61120e61217c565b600260019054906101000a900473ffffffffffffffffffffffffffffffffffffffff1673ffffffffffffffffffffffffffffffffffffffff166318160ddd6040518163ffffffff167c0100000000000000000000000000000000000000000000000000000000028152600401602060405180830381600087803b15801561129457600080fd5b505af11580156112a8573d6000803e3d6000fd5b505050506040513d60208110156112be57600080fd5b81019080805190602001909291905050506127ec90919063ffffffff16565b6127ec90919063ffffffff16565b61282790919063ffffffff16565b905061130e8183612ac990919063ffffffff16565b9250505090565b600080600380600581111561132657fe5b600260009054906101000a900460ff16600581111561134157fe5b1415156113b6576040517f08c379a00000000000000000000000000000000000000000000000000000000081526004018080602001828103825260168152602001807f564f54455f504552494f44206e6f74206d617463682e0000000000000000000081525060200191505060405180910390fd5b601160009054906101000a900460ff161515611460576040517f08c379a00000000000000000000000000000000000000000000000000000000081526004018080602001828103825260268152602001807f7468697320726566756e6420766f74696e6720686173206265656e206469736381526020017f61726465642e000000000000000000000000000000000000000000000000000081525060400191505060405180910390fd5b6003600581111561146d57fe5b600260009054906101000a900460ff16600581111561148857fe5b14151561149457600080fd5b600091506114a0612ae7565b151561153a576040517f08c379a00000000000000000000000000000000000000000000000000000000081526004018080602001828103825260238152602001807f6661696c656420746f20736e617073686f7420696e207461702066696e616c6981526020017f7a652e000000000000000000000000000000000000000000000000000000000081525060400191505060405180910390fd5b61154261191c565b61154a610cbe565b10156115e4576040517f08c379a00000000000000000000000000000000000000000000000000000000081526004018080602001828103825260268152602001807f49742063616e6e6f742073617469736679206d696e696d756d20766f74696e6781526020017f20726174652e000000000000000000000000000000000000000000000000000081525060400191505060405180910390fd5b6115ec611aa8565b6115f46109c4565b11156116035760019150611608565b600291505b6004600260006101000a81548160ff0219169083600581111561162757fe5b02179055503373ffffffffffffffffffffffffffffffffffffffff167f7647aedaafa7f1b7392d18d7799845c386e257e2387a560f8aa9f7903d320261426040518082815260200191505060405180910390a2600360009054906101000a900473ffffffffffffffffffffffffffffffffffffffff1673ffffffffffffffffffffffffffffffffffffffff1663a29bcb356040518163ffffffff167c0100000000000000000000000000000000000000000000000000000000028152600401602060405180830381600087803b15801561170057600080fd5b505af1158015611714573d6000803e3d6000fd5b505050506040513d602081101561172a57600080fd5b810190808051906020019092919050505015156117d5576040517f08c379a000000000000000000000000000000000000000000000000000000000815260040180806020018281038252602b8152602001807f6661696c656420746f20776974686472617746726f6d46756e6420696e20746181526020017f702066696e616c697a652e00000000000000000000000000000000000000000081525060400191505060405180910390fd5b60019250505090565b60008060009054906101000a900473ffffffffffffffffffffffffffffffffffffffff1673ffffffffffffffffffffffffffffffffffffffff16635eca4a70836040518263ffffffff167c0100000000000000000000000000000000000000000000000000000000028152600401808273ffffffffffffffffffffffffffffffffffffffff1673ffffffffffffffffffffffffffffffffffffffff168152602001915050602060405180830381600087803b15801561189c57600080fd5b505af11580156118b0573d6000803e3d6000fd5b505050506040513d60208110156118c657600080fd5b81019080805190602001909291905050509050919050565b6010818154811015156118ed57fe5b906000526020600020016000915054906101000a900473ffffffffffffffffffffffffffffffffffffffff1681565b60008060008060008060329450605093506014925060509150601490506119468585858585612fb8565b9550505050505090565b6000600280600581111561196057fe5b600260009054906101000a900460ff16600581111561197b57fe5b1415156119f0576040517f08c379a00000000000000000000000000000000000000000000000000000000081526004018080602001828103825260168152602001807f564f54455f504552494f44206e6f74206d617463682e0000000000000000000081525060200191505060405180910390fd5b601160009054906101000a900460ff161515611a9a576040517f08c379a00000000000000000000000000000000000000000000000000000000081526004018080602001828103825260268152602001807f7468697320726566756e6420766f74696e6720686173206265656e206469736381526020017f61726465642e000000000000000000000000000000000000000000000000000081525060400191505060405180910390fd5b611aa2612fc6565b91505090565b6000600a54905090565b600f81815481101515611ac157fe5b906000526020600020016000915054906101000a900473ffffffffffffffffffffffffffffffffffffffff1681565b6000600c54905090565b600080806005811115611b0957fe5b600260009054906101000a900460ff166005811115611b2457fe5b141515611b99576040517f08c379a00000000000000000000000000000000000000000000000000000000081526004018080602001828103825260168152602001807f564f54455f504552494f44206e6f74206d617463682e0000000000000000000081525060200191505060405180910390fd5b601160009054906101000a900460ff161515611c43576040517f08c379a00000000000000000000000000000000000000000000000000000000081526004018080602001828103825260268152602001807f7468697320726566756e6420766f74696e6720686173206265656e206469736381526020017f61726465642e000000000000000000000000000000000000000000000000000081525060400191505060405180910390fd5b62093a8083118015611c5757508262127500115b1515611c6257600080fd5b611c6b836132a2565b5050919050565b6000611c95611c7f612116565b611c876110ee565b612ab090919063ffffffff16565b905090565b6000600560009054906101000a900473ffffffffffffffffffffffffffffffffffffffff1660003373ffffffffffffffffffffffffffffffffffffffff1614151515611ce557600080fd5b8073ffffffffffffffffffffffffffffffffffffffff163373ffffffffffffffffffffffffffffffffffffffff16141515611d1f57600080fd5b6004806005811115611d2d57fe5b600260009054906101000a900460ff166005811115611d4857fe5b141515611dbd576040517f08c379a00000000000000000000000000000000000000000000000000000000081526004018080602001828103825260168152602001807f564f54455f504552494f44206e6f74206d617463682e0000000000000000000081525060200191505060405180910390fd5b601160009054906101000a900460ff161515611e67576040517f08c379a00000000000000000000000000000000000000000000000000000000081526004018080602001828103825260268152602001807f7468697320726566756e6420766f74696e6720686173206265656e206469736381526020017f61726465642e000000000000000000000000000000000000000000000000000081525060400191505060405180910390fd5b611e6f613513565b1515611ee3576040517f08c379a000000000000000000000000000000000000000000000000000000000815260040180806020018281038252601d8152602001807f63616e6e6f74206469736361726420746869732066756e6374696f6e2e00000081525060200191505060405180910390fd5b426012819055503073ffffffffffffffffffffffffffffffffffffffff167f0f2d38195efd4deae4057e612ef087b49fdeb25c734f8b89490b15df5c0c6d256012546040518082815260200191505060405180910390a260019250505090565b6000809054906101000a900473ffffffffffffffffffffffffffffffffffffffff1681565b600d6020528060005260406000206000915090508060000160009054906101000a900460ff16908060000160019054906101000a900460ff16908060010154908060020160009054906101000a900460ff16905084565b60006001806005811115611fcf57fe5b600260009054906101000a900460ff166005811115611fea57fe5b14151561205f576040517f08c379a00000000000000000000000000000000000000000000000000000000081526004018080602001828103825260168152602001807f564f54455f504552494f44206e6f74206d617463682e0000000000000000000081525060200191505060405180910390fd5b601160009054906101000a900460ff161515612109576040517f08c379a00000000000000000000000000000000000000000000000000000000081526004018080602001828103825260268152602001807f7468697320726566756e6420766f74696e6720686173206265656e206469736381526020017f61726465642e000000000000000000000000000000000000000000000000000081525060400191505060405180910390fd5b6121116135e1565b505090565b600061212f600a54600954612ac990919063ffffffff16565b905090565b600e8181548110151561214357fe5b906000526020600020016000915054906101000a900473ffffffffffffffffffffffffffffffffffffffff1681565b6000600b54905090565b6000612325600260019054906101000a900473ffffffffffffffffffffffffffffffffffffffff1673ffffffffffffffffffffffffffffffffffffffff166318160ddd6040518163ffffffff167c0100000000000000000000000000000000000000000000000000000000028152600401602060405180830381600087803b15801561220757600080fd5b505af115801561221b573d6000803e3d6000fd5b505050506040513d602081101561223157600080fd5b81019080805190602001909291905050506123176103e8600360009054906101000a900473ffffffffffffffffffffffffffffffffffffffff1673ffffffffffffffffffffffffffffffffffffffff16635e84d7236040518163ffffffff167c0100000000000000000000000000000000000000000000000000000000028152600401602060405180830381600087803b1580156122ce57600080fd5b505af11580156122e2573d6000803e3d6000fd5b505050506040513d60208110156122f857600080fd5b81019080805190602001909291905050506127ec90919063ffffffff16565b61282790919063ffffffff16565b905090565b6000601160009054906101000a900460ff1615156123d6576040517f08c379a00000000000000000000000000000000000000000000000000000000081526004018080602001828103825260268152602001807f7468697320726566756e6420766f74696e6720686173206265656e206469736381526020017f61726465642e000000000000000000000000000000000000000000000000000081525060400191505060405180910390fd5b600060028111156123e357fe5b8460028111156123ef57fe5b14151561245a5783600d60008773ffffffffffffffffffffffffffffffffffffffff1673ffffffffffffffffffffffffffffffffffffffff16815260200190815260200160002060000160006101000a81548160ff0219169083600281111561245457fe5b02179055505b6000831415156124ac5782600d60008773ffffffffffffffffffffffffffffffffffffffff1673ffffffffffffffffffffffffffffffffffffffff168152602001908152602001600020600101819055505b60001515821515141515612516576001600d60008773ffffffffffffffffffffffffffffffffffffffff1673ffffffffffffffffffffffffffffffffffffffff16815260200190815260200160002060020160006101000a81548160ff0219169083151502179055505b60019050949350505050565b6000806000600d60008573ffffffffffffffffffffffffffffffffffffffff1673ffffffffffffffffffffffffffffffffffffffff16815260200190815260200160002060000160009054906101000a900460ff16600d60008673ffffffffffffffffffffffffffffffffffffffff1673ffffffffffffffffffffffffffffffffffffffff16815260200190815260200160002060010154600d60008773ffffffffffffffffffffffffffffffffffffffff1673ffffffffffffffffffffffffffffffffffffffff16815260200190815260200160002060020160009054906101000a900460ff169250925092509193909250565b6000600280600581111561262757fe5b600260009054906101000a900460ff16600581111561264257fe5b1415156126b7576040517f08c379a00000000000000000000000000000000000000000000000000000000081526004018080602001828103825260168152602001807f564f54455f504552494f44206e6f74206d617463682e0000000000000000000081525060200191505060405180910390fd5b601160009054906101000a900460ff161515612761576040517f08c379a00000000000000000000000000000000000000000000000000000000081526004018080602001828103825260268152602001807f7468697320726566756e6420766f74696e6720686173206265656e206469736381526020017f61726465642e000000000000000000000000000000000000000000000000000081525060400191505060405180910390fd5b600854421015151561277257600080fd5b6003600260006101000a81548160ff0219169083600581111561279157fe5b02179055503373ffffffffffffffffffffffffffffffffffffffff167f2a8e842584d30c3c752c76e93de00b254ad52e894a74c6eb92653f13777f6cca426040518082815260200191505060405180910390a2600191505090565b60008060008414156128015760009150612820565b828402905082848281151561281257fe5b0414151561281c57fe5b8091505b5092915050565b600080828481151561283557fe5b0490508091505092915050565b6000601160009054906101000a900460ff1615156128ee576040517f08c379a00000000000000000000000000000000000000000000000000000000081526004018080602001828103825260268152602001807f7468697320726566756e6420766f74696e6720686173206265656e206469736381526020017f61726465642e000000000000000000000000000000000000000000000000000081525060400191505060405180910390fd5b6128f6610f63565b151561290157600080fd5b60003373ffffffffffffffffffffffffffffffffffffffff161415151561292757600080fd5b6000600281111561293457fe5b600d60003373ffffffffffffffffffffffffffffffffffffffff1673ffffffffffffffffffffffffffffffffffffffff16815260200190815260200160002060000160009054906101000a900460ff16600281111561298f57fe5b14151561299b57600080fd5b8115612a26576001600d60003373ffffffffffffffffffffffffffffffffffffffff1673ffffffffffffffffffffffffffffffffffffffff16815260200190815260200160002060000160006101000a81548160ff02191690836002811115612a0057fe5b0217905550612a1b6001600b54612ac990919063ffffffff16565b600b81905550612aa7565b6002600d60003373ffffffffffffffffffffffffffffffffffffffff1673ffffffffffffffffffffffffffffffffffffffff16815260200190815260200160002060000160006101000a81548160ff02191690836002811115612a8557fe5b0217905550612aa06001600c54612ac990919063ffffffff16565b600c819055505b60019050919050565b6000828211151515612abe57fe5b818303905092915050565b6000808284019050838110151515612add57fe5b8091505092915050565b600080600080600092505b600e80549050831015612fae57612b41600e84815481101515612b1157fe5b9060005260206000200160009054906101000a900473ffffffffffffffffffffffffffffffffffffffff16610ddf565b612b4d576103e8612b51565b6102bc5b9150612caa6103e8612c9c84600260019054906101000a900473ffffffffffffffffffffffffffffffffffffffff1673ffffffffffffffffffffffffffffffffffffffff166370a08231600e89815481101515612baa57fe5b9060005260206000200160009054906101000a900473ffffffffffffffffffffffffffffffffffffffff166040518263ffffffff167c0100000000000000000000000000000000000000000000000000000000028152600401808273ffffffffffffffffffffffffffffffffffffffff1673ffffffffffffffffffffffffffffffffffffffff168152602001915050602060405180830381600087803b158015612c5357600080fd5b505af1158015612c67573d6000803e3d6000fd5b505050506040513d6020811015612c7d57600080fd5b81019080805190602001909291905050506127ec90919063ffffffff16565b61282790919063ffffffff16565b905080600d6000600e86815481101515612cc057fe5b9060005260206000200160009054906101000a900473ffffffffffffffffffffffffffffffffffffffff1673ffffffffffffffffffffffffffffffffffffffff1673ffffffffffffffffffffffffffffffffffffffff16815260200190815260200160002060010181905550612d6e600e84815481101515612d3e57fe5b9060005260206000200160009054906101000a900473ffffffffffffffffffffffffffffffffffffffff16610ddf565b612d79576000612d7c565b60015b600d6000600e86815481101515612d8f57fe5b9060005260206000200160009054906101000a900473ffffffffffffffffffffffffffffffffffffffff1673ffffffffffffffffffffffffffffffffffffffff1673ffffffffffffffffffffffffffffffffffffffff16815260200190815260200160002060000160016101000a81548160ff02191690836001811115612e1257fe5b021790555060016002811115612e2457fe5b600d6000600e86815481101515612e3757fe5b9060005260206000200160009054906101000a900473ffffffffffffffffffffffffffffffffffffffff1673ffffffffffffffffffffffffffffffffffffffff1673ffffffffffffffffffffffffffffffffffffffff16815260200190815260200160002060000160009054906101000a900460ff166002811115612eb857fe5b1415612ede57612ed381600954612ac990919063ffffffff16565b600981905550612fa1565b600280811115612eea57fe5b600d6000600e86815481101515612efd57fe5b9060005260206000200160009054906101000a900473ffffffffffffffffffffffffffffffffffffffff1673ffffffffffffffffffffffffffffffffffffffff1673ffffffffffffffffffffffffffffffffffffffff16815260200190815260200160002060000160009054906101000a900460ff166002811115612f7e57fe5b1415612fa057612f9981600a54612ac990919063ffffffff16565b600a819055505b5b8280600101935050612af2565b6001935050505090565b600080905095945050505050565b6000601160009054906101000a900460ff161515613072576040517f08c379a00000000000000000000000000000000000000000000000000000000081526004018080602001828103825260268152602001807f7468697320726566756e6420766f74696e6720686173206265656e206469736381526020017f61726465642e000000000000000000000000000000000000000000000000000081525060400191505060405180910390fd5b61307a610f63565b151561308557600080fd5b60003373ffffffffffffffffffffffffffffffffffffffff16141515156130ab57600080fd5b600160028111156130b857fe5b600d60003373ffffffffffffffffffffffffffffffffffffffff1673ffffffffffffffffffffffffffffffffffffffff16815260200190815260200160002060000160009054906101000a900460ff16600281111561311357fe5b141561319e576000600d60003373ffffffffffffffffffffffffffffffffffffffff1673ffffffffffffffffffffffffffffffffffffffff16815260200190815260200160002060000160006101000a81548160ff0219169083600281111561317857fe5b02179055506131936001600b54612ab090919063ffffffff16565b600b8190555061329a565b6002808111156131aa57fe5b600d60003373ffffffffffffffffffffffffffffffffffffffff1673ffffffffffffffffffffffffffffffffffffffff16815260200190815260200160002060000160009054906101000a900460ff16600281111561320557fe5b1415613290576000600d60003373ffffffffffffffffffffffffffffffffffffffff1673ffffffffffffffffffffffffffffffffffffffff16815260200190815260200160002060000160006101000a81548160ff0219169083600281111561326a57fe5b02179055506132856001600c54612ab090919063ffffffff16565b600c81905550613299565b6000905061329f565b5b600190505b90565b6000808060058111156132b157fe5b600260009054906101000a900460ff1660058111156132cc57fe5b141515613341576040517f08c379a00000000000000000000000000000000000000000000000000000000081526004018080602001828103825260168152602001807f564f54455f504552494f44206e6f74206d617463682e0000000000000000000081525060200191505060405180910390fd5b601160009054906101000a900460ff1615156133eb576040517f08c379a00000000000000000000000000000000000000000000000000000000081526004018080602001828103825260268152602001807f7468697320726566756e6420766f74696e6720686173206265656e206469736381526020017f61726465642e000000000000000000000000000000000000000000000000000081525060400191505060405180910390fd5b60003373ffffffffffffffffffffffffffffffffffffffff161415151561341157600080fd5b426007819055508242016008819055506001600260006101000a81548160ff0219169083600581111561344057fe5b0217905550600160405180828054600181600116156101000203166002900480156134a25780601f106134805761010080835404028352918201916134a2565b820191906000526020600020905b81548152906001019060200180831161348e575b505091505060405180910390203073ffffffffffffffffffffffffffffffffffffffff167f94b7d40ac167fe933cce8fd6393cb5ecd0702e01b177244062e37210b4baffd6600754600854604051808381526020018281526020019250505060405180910390a36001915050919050565b6000601160009054906101000a900460ff1615156135bf576040517f08c379a00000000000000000000000000000000000000000000000000000000081526004018080602001828103825260268152602001807f7468697320726566756e6420766f74696e6720686173206265656e206469736381526020017f61726465642e000000000000000000000000000000000000000000000000000081525060400191505060405180910390fd5b6000601160006101000a81548160ff0219169083151502179055506001905090565b600060018060058111156135f157fe5b600260009054906101000a900460ff16600581111561360c57fe5b141515613681576040517f08c379a00000000000000000000000000000000000000000000000000000000081526004018080602001828103825260168152602001807f564f54455f504552494f44206e6f74206d617463682e0000000000000000000081525060200191505060405180910390fd5b601160009054906101000a900460ff16151561372b576040517f08c379a00000000000000000000000000000000000000000000000000000000081526004018080602001828103825260268152602001807f7468697320726566756e6420766f74696e6720686173206265656e206469736381526020017f61726465642e000000000000000000000000000000000000000000000000000081525060400191505060405180910390fd5b60028060006101000a81548160ff0219169083600581111561374957fe5b02179055503373ffffffffffffffffffffffffffffffffffffffff167f222bd9ba4394dac689328faf99a19d1f846c37c44dfe8003e052565663db4cc3426040518082815260200191505060405180910390a26001915050905600a165627a7a72305820038efd9fe73101f7fda4c1a24e54ec452e4fafbc562a5ee0d1d6c70f08114b540029",
  "source": "pragma solidity ^0.4.23;\n\nimport \"./BaseVoting.sol\";\nimport \"../fund/Fund.sol\";\n\ncontract TapVoting is BaseVoting {\n\n    /* Constructor */\n    constructor(\n        string _votingName,\n        address _tokenAddress,\n        address _fundAddress,\n        address _vestingTokens,\n        address _membersAddress\n        )\n        BaseVoting( _votingName,\n                    _tokenAddress,\n                    _fundAddress,\n                    _vestingTokens, \n                    _membersAddress) public {\n    }\n\n    /* Voting Period Function\n     * order: initialize -> open -> close -> finalize\n     */\n    function initializeVote(uint256 term) public\n        period(VOTE_PERIOD.NONE)\n        available\n        returns(bool) {\n            require(term > MIN_TERM && MAX_TERM > term);\n            super.initializeVote(term);\n    }\n\n    function openVote() public\n        period(VOTE_PERIOD.INITIALIZED)\n        available\n        returns(bool) {\n            super.openVote();\n    }\n\n    function closeVote() public\n        period(VOTE_PERIOD.OPENED)\n        available\n        returns(bool) {\n            super.closeVote();\n    }\n    //TODO: should we move on to BaesVoting?\n    function _snapshot() internal\n        returns(bool){\n            //FIXIT: how to reduce the snapshot operation gas fee?\n            //WARNING: it might exceed the block gas limit.\n\n            for(uint256 i = 0; i < party_list.length; i++) {\n                uint256 weight = isLockedGroup(party_list[i]) ? DEV_POWER : 1000; // percent\n                uint256 vote_power = mToken.balanceOf(party_list[i]).mul(weight).div(1000);\n                party_dict[party_list[i]].power = vote_power; //snapshot each account's vote power\n                party_dict[party_list[i]].group = isLockedGroup(party_list[i]) ? GROUP.LOCKED : GROUP.PUBLIC;\n                if(party_dict[party_list[i]].state == VOTE_STATE.AGREE) {\n                    agree_power = agree_power.add(vote_power);\n                } else if(party_dict[party_list[i]].state == VOTE_STATE.DISAGREE) {\n                    disagree_power = disagree_power.add(vote_power);\n                }    // cumulate total power of agree and disagree parties.\n            }\n            return true;\n    }\n    //TODO: should we move on to BaseVoting?\n    function finalizeVote() public\n        period(VOTE_PERIOD.CLOSED)\n        available\n        returns(bool) {\n            // pass the vote if yes - no > 0\n            require(mPeriod == VOTE_PERIOD.CLOSED);\n            RESULT_STATE result = RESULT_STATE.NONE;\n\n            if(!_snapshot()){revert(\"failed to snapshot in tap finalize.\");}\n\n            if(getParticipatingPerc() < getMinVotingPerc()){revert(\"It cannot satisfy minimum voting rate.\");}\n            if(getAgreePower() > getDisagreePower()) {\n                result = RESULT_STATE.PASSED;\n            }\n            else {\n                result = RESULT_STATE.REJECTED;\n            }\n            mPeriod = VOTE_PERIOD.FINALIZED;\n            emit FinalizeVote(msg.sender, now);\n            if(!mFund.withdrawTap()){revert(\"failed to withdrawFromFund in tap finalize.\");}\n            return true;\n    }\n    /* Personal Voting function\n     * vote, getBack\n     */\n    function vote(bool agree) public\n        period(VOTE_PERIOD.OPENED)\n        available\n        returns(bool) {\n            return super.vote(agree);\n    }\n\n    function getBack() public\n        period(VOTE_PERIOD.OPENED)\n        available\n        returns (bool) {\n            return super.getBack();\n    }\n\n    //TODO: we should add(override) some meaningful function\n\n}\n",
  "sourcePath": "/Users/pyo/blockchain/ICO2.0/contracts/vote/TapVoting.sol",
  "compiler": {
    "name": "solc",
    "version": "0.4.23+commit.124ca40d.Emscripten.clang"
  },
  "schemaVersion": "2.0.0",
  "updatedAt": "2018-05-22T12:40:15.283Z"
}