{
  "contractName": "VestingTokens",
  "abi": [
    {
      "constant": false,
      "inputs": [],
      "name": "releaseTokens",
      "outputs": [
        {
          "name": "",
          "type": "bool"
        }
      ],
      "payable": false,
      "stateMutability": "nonpayable",
      "type": "function"
    },
    {
      "constant": true,
      "inputs": [
        {
          "name": "",
          "type": "address"
        },
        {
          "name": "",
          "type": "uint256"
        }
      ],
      "name": "mWalletTokens",
      "outputs": [
        {
          "name": "amount",
          "type": "uint256"
        },
        {
          "name": "lockEndTime",
          "type": "uint256"
        },
        {
          "name": "released",
          "type": "bool"
        }
      ],
      "payable": false,
      "stateMutability": "view",
      "type": "function"
    },
    {
      "constant": false,
      "inputs": [],
      "name": "lock",
      "outputs": [
        {
          "name": "",
          "type": "bool"
        }
      ],
      "payable": false,
      "stateMutability": "nonpayable",
      "type": "function"
    },
    {
      "inputs": [
        {
          "name": "_token",
          "type": "address"
        },
        {
          "name": "_fundAddress",
          "type": "address"
        }
      ],
      "payable": false,
      "stateMutability": "nonpayable",
      "type": "constructor"
    },
    {
      "anonymous": false,
      "inputs": [
        {
          "indexed": true,
          "name": "_to",
          "type": "address"
        },
        {
          "indexed": false,
          "name": "_value",
          "type": "uint256"
        },
        {
          "indexed": false,
          "name": "_lockEndTime",
          "type": "uint256"
        }
      ],
      "name": "TokensLocked",
      "type": "event"
    },
    {
      "anonymous": false,
      "inputs": [
        {
          "indexed": true,
          "name": "_to",
          "type": "address"
        },
        {
          "indexed": false,
          "name": "_value",
          "type": "uint256"
        }
      ],
      "name": "TokensUnlocked",
      "type": "event"
    },
    {
      "constant": false,
      "inputs": [
        {
          "name": "_crowdsaleAddress",
          "type": "address"
        }
      ],
      "name": "setCrowdsaleAddress",
      "outputs": [
        {
          "name": "",
          "type": "bool"
        }
      ],
      "payable": false,
      "stateMutability": "nonpayable",
      "type": "function"
    },
    {
      "constant": false,
      "inputs": [
        {
          "name": "_to",
          "type": "address"
        },
        {
          "name": "_amount",
          "type": "uint256"
        },
        {
          "name": "_type",
          "type": "uint8"
        }
      ],
      "name": "lockup",
      "outputs": [],
      "payable": false,
      "stateMutability": "nonpayable",
      "type": "function"
    }
  ],
  "bytecode": "0x60806040526001600460006101000a81548160ff02191690831515021790555034801561002b57600080fd5b50604051604080610e138339810180604052810190808051906020019092919080519060200190929190505050818160008273ffffffffffffffffffffffffffffffffffffffff161415151561008057600080fd5b60008173ffffffffffffffffffffffffffffffffffffffff16141515156100a657600080fd5b816000806101000a81548173ffffffffffffffffffffffffffffffffffffffff021916908373ffffffffffffffffffffffffffffffffffffffff16021790555080600260006101000a81548173ffffffffffffffffffffffffffffffffffffffff021916908373ffffffffffffffffffffffffffffffffffffffff1602179055506001600460006101000a81548160ff02191690831515021790555050505050610cbe806101556000396000f30060806040526004361061006d576000357c0100000000000000000000000000000000000000000000000000000000900463ffffffff1680631f35bc4014610072578063497ff7ce146100cd578063a96f866814610127578063d711a7aa14610156578063f83d08ba146101c9575b600080fd5b34801561007e57600080fd5b506100b3600480360381019080803573ffffffffffffffffffffffffffffffffffffffff1690602001909291905050506101f8565b604051808215151515815260200191505060405180910390f35b3480156100d957600080fd5b50610125600480360381019080803573ffffffffffffffffffffffffffffffffffffffff16906020019092919080359060200190929190803560ff16906020019092919050505061020a565b005b34801561013357600080fd5b5061013c6104f3565b604051808215151515815260200191505060405180910390f35b34801561016257600080fd5b506101a1600480360381019080803573ffffffffffffffffffffffffffffffffffffffff1690602001909291908035906020019092919050505061091f565b6040518084815260200183815260200182151515158152602001935050505060405180910390f35b3480156101d557600080fd5b506101de610972565b604051808215151515815260200191505060405180910390f35b600061020382610a0d565b9050919050565b600160009054906101000a900473ffffffffffffffffffffffffffffffffffffffff1673ffffffffffffffffffffffffffffffffffffffff163373ffffffffffffffffffffffffffffffffffffffff1614151561026657600080fd5b6000600281111561027357fe5b81600281111561027f57fe5b1415610319576102cb836102b060646102a2601e87610a9f90919063ffffffff16565b610ada90919063ffffffff16565b6102c6626ebe0042610af590919063ffffffff16565b610b13565b50610313836102f760646102e9604687610a9f90919063ffffffff16565b610ada90919063ffffffff16565b61030e6301e1338042610af590919063ffffffff16565b610b13565b506104ee565b6001600281111561032657fe5b81600281111561033257fe5b14156103cc5761037e836103636064610355601e87610a9f90919063ffffffff16565b610ada90919063ffffffff16565b610379626ebe0042610af590919063ffffffff16565b610b13565b506103c6836103aa606461039c604687610a9f90919063ffffffff16565b610ada90919063ffffffff16565b6103c16301e1338042610af590919063ffffffff16565b610b13565b506104ed565b6002808111156103d857fe5b8160028111156103e457fe5b141561047e57610430836104156064610407601e87610a9f90919063ffffffff16565b610ada90919063ffffffff16565b61042b626ebe0042610af590919063ffffffff16565b610b13565b506104788361045c606461044e604687610a9f90919063ffffffff16565b610ada90919063ffffffff16565b6104736301e1338042610af590919063ffffffff16565b610b13565b506104ec565b6040517f08c379a000000000000000000000000000000000000000000000000000000000815260040180806020018281038252600f8152602001807f576f726e67204c6f636b2054797065000000000000000000000000000000000081525060200191505060405180910390fd5b5b5b505050565b600080600460009054906101000a900460ff16151561051157600080fd5b6000600360003373ffffffffffffffffffffffffffffffffffffffff1673ffffffffffffffffffffffffffffffffffffffff1681526020019081526020016000208054905011151561056257600080fd5b600090505b600360003373ffffffffffffffffffffffffffffffffffffffff1673ffffffffffffffffffffffffffffffffffffffff1681526020019081526020016000208054905081101561091757600360003373ffffffffffffffffffffffffffffffffffffffff1673ffffffffffffffffffffffffffffffffffffffff168152602001908152602001600020818154811015156105fd57fe5b906000526020600020906003020160020160009054906101000a900460ff161580156106865750600360003373ffffffffffffffffffffffffffffffffffffffff1673ffffffffffffffffffffffffffffffffffffffff1681526020019081526020016000208181548110151561067057fe5b9060005260206000209060030201600101544210155b1561090a576001600360003373ffffffffffffffffffffffffffffffffffffffff1673ffffffffffffffffffffffffffffffffffffffff168152602001908152602001600020828154811015156106d957fe5b906000526020600020906003020160020160006101000a81548160ff0219169083151502179055506000809054906101000a900473ffffffffffffffffffffffffffffffffffffffff1673ffffffffffffffffffffffffffffffffffffffff1663a9059cbb33600360003373ffffffffffffffffffffffffffffffffffffffff1673ffffffffffffffffffffffffffffffffffffffff1681526020019081526020016000208481548110151561078b57fe5b9060005260206000209060030201600001546040518363ffffffff167c0100000000000000000000000000000000000000000000000000000000028152600401808373ffffffffffffffffffffffffffffffffffffffff1673ffffffffffffffffffffffffffffffffffffffff16815260200182815260200192505050602060405180830381600087803b15801561082257600080fd5b505af1158015610836573d6000803e3d6000fd5b505050506040513d602081101561084c57600080fd5b8101908080519060200190929190505050503373ffffffffffffffffffffffffffffffffffffffff167fe7b379c6c1fa169e9079c25e9143b127637eef8ec8c9d5c06ddb4ab3e1195888600360003373ffffffffffffffffffffffffffffffffffffffff1673ffffffffffffffffffffffffffffffffffffffff168152602001908152602001600020838154811015156108e257fe5b9060005260206000209060030201600001546040518082815260200191505060405180910390a25b8080600101915050610567565b600191505090565b60036020528160005260406000208181548110151561093a57fe5b9060005260206000209060030201600091509150508060000154908060010154908060020160009054906101000a900460ff16905083565b6000600460009054906101000a900460ff16151561098f57600080fd5b600260009054906101000a900473ffffffffffffffffffffffffffffffffffffffff1673ffffffffffffffffffffffffffffffffffffffff163373ffffffffffffffffffffffffffffffffffffffff161415156109eb57600080fd5b6000600460006101000a81548160ff0219169083151502179055506001905090565b600080600160009054906101000a900473ffffffffffffffffffffffffffffffffffffffff1673ffffffffffffffffffffffffffffffffffffffff16141515610a5557600080fd5b81600160006101000a81548173ffffffffffffffffffffffffffffffffffffffff021916908373ffffffffffffffffffffffffffffffffffffffff16021790555060019050919050565b6000806000841415610ab45760009150610ad3565b8284029050828482811515610ac557fe5b04141515610acf57fe5b8091505b5092915050565b6000808284811515610ae857fe5b0490508091505092915050565b6000808284019050838110151515610b0957fe5b8091505092915050565b6000600160009054906101000a900473ffffffffffffffffffffffffffffffffffffffff1673ffffffffffffffffffffffffffffffffffffffff163373ffffffffffffffffffffffffffffffffffffffff16141515610b7157600080fd5b600360008573ffffffffffffffffffffffffffffffffffffffff1673ffffffffffffffffffffffffffffffffffffffff1681526020019081526020016000206060604051908101604052808581526020018481526020016000151581525090806001815401808255809150509060018203906000526020600020906003020160009091929091909150600082015181600001556020820151816001015560408201518160020160006101000a81548160ff0219169083151502179055505050508373ffffffffffffffffffffffffffffffffffffffff167fd741e738a23fd18a03a26522320d9fc6cac1fed483e215ea9150fbc2fc43385d8484604051808381526020018281526020019250505060405180910390a26001905093925050505600a165627a7a72305820673907645bac889ff98bfaf2598315af3bbd00a1fdf2340be6f6e65ed89c964e0029",
  "source": "pragma solidity ^0.4.23;\n\nimport \"./LockedTokens.sol\";\nimport \"../token/IVestingTokens.sol\";\n\ncontract VestingTokens is IVestingTokens, LockedTokens {\n\n    uint constant DEV_VEST_PERIOD_1 = 12 weeks;\n    uint constant DEV_VEST_PERIOD_2 = 1 years;\n    uint constant DEV_VEST_PERC_1 = 30;\n    uint constant DEV_VEST_PERC_2 = 70;\n\n    uint constant ADV_VEST_PERIOD_1 = 12 weeks;\n    uint constant ADV_VEST_PERIOD_2 = 1 years;\n    uint constant ADV_VEST_PERC_1 = 30;\n    uint constant ADV_VEST_PERC_2 = 70;\n\n    uint constant PRIV_VEST_PERIOD_1 = 12 weeks;\n    uint constant PRIV_VEST_PERIOD_2 = 1 years;\n    uint constant PRIV_VEST_PERC_1 = 30;\n    uint constant PRIV_VEST_PERC_2 = 70;\n\n    constructor(address _token, address _fundAddress) public\n        LockedTokens(_token, _fundAddress) {\n    }\n\n    function setCrowdsaleAddress(address _crowdsaleAddress) public\n        returns(bool) {\n            return super.setCrowdsaleAddress(_crowdsaleAddress);\n    }\n\n    //divide this function with vesting type\n    function lockup(\n        address _to,\n        uint256 _amount,\n        LOCK_TYPE _type) external {\n            require(msg.sender == mCrowdsaleAddress);\n            if(_type == LOCK_TYPE.DEV){\n                super.addTokens(_to, _amount.mul(DEV_VEST_PERC_1).div(100), now.add(DEV_VEST_PERIOD_1));\n                super.addTokens(_to, _amount.mul(DEV_VEST_PERC_2).div(100), now.add(DEV_VEST_PERIOD_2));\n            } else if(_type == LOCK_TYPE.ADV){\n                super.addTokens(_to, _amount.mul(ADV_VEST_PERC_1).div(100), now.add(ADV_VEST_PERIOD_1));\n                super.addTokens(_to, _amount.mul(ADV_VEST_PERC_2).div(100), now.add(ADV_VEST_PERIOD_2));\n            } else if(_type == LOCK_TYPE.PRIV){\n                super.addTokens(_to, _amount.mul(PRIV_VEST_PERC_1).div(100), now.add(PRIV_VEST_PERIOD_1));\n                super.addTokens(_to, _amount.mul(PRIV_VEST_PERC_2).div(100), now.add(PRIV_VEST_PERIOD_2));\n            } else{\n                revert(\"Worng Lock Type\");\n            }\n    }\n\n}\n",
  "sourcePath": "/Users/pyo/blockchain/ICO2.0/contracts/token/VestingTokens.sol",
  "compiler": {
    "name": "solc",
    "version": "0.4.23+commit.124ca40d.Emscripten.clang"
  },
  "schemaVersion": "2.0.0",
  "updatedAt": "2018-05-22T12:40:37.732Z"
}