{
  "contractName": "VotingFactory",
  "abi": [
    {
      "constant": true,
      "inputs": [],
      "name": "mFundAddress",
      "outputs": [
        {
          "name": "",
          "type": "address"
        }
      ],
      "payable": false,
      "stateMutability": "view",
      "type": "function"
    },
    {
      "constant": true,
      "inputs": [
        {
          "name": "account",
          "type": "address"
        }
      ],
      "name": "isOwner",
      "outputs": [
        {
          "name": "",
          "type": "bool"
        }
      ],
      "payable": false,
      "stateMutability": "view",
      "type": "function"
    },
    {
      "constant": true,
      "inputs": [],
      "name": "mRefundVotingAddress",
      "outputs": [
        {
          "name": "",
          "type": "address"
        }
      ],
      "payable": false,
      "stateMutability": "view",
      "type": "function"
    },
    {
      "constant": true,
      "inputs": [
        {
          "name": "account",
          "type": "address"
        }
      ],
      "name": "isLockedGroup",
      "outputs": [
        {
          "name": "",
          "type": "bool"
        }
      ],
      "payable": false,
      "stateMutability": "view",
      "type": "function"
    },
    {
      "constant": true,
      "inputs": [
        {
          "name": "account",
          "type": "address"
        }
      ],
      "name": "isDeveloper",
      "outputs": [
        {
          "name": "",
          "type": "bool"
        }
      ],
      "payable": false,
      "stateMutability": "view",
      "type": "function"
    },
    {
      "constant": true,
      "inputs": [],
      "name": "members",
      "outputs": [
        {
          "name": "",
          "type": "address"
        }
      ],
      "payable": false,
      "stateMutability": "view",
      "type": "function"
    },
    {
      "constant": true,
      "inputs": [],
      "name": "mVestingTokensAddress",
      "outputs": [
        {
          "name": "",
          "type": "address"
        }
      ],
      "payable": false,
      "stateMutability": "view",
      "type": "function"
    },
    {
      "constant": true,
      "inputs": [],
      "name": "mTapVotingAddress",
      "outputs": [
        {
          "name": "",
          "type": "address"
        }
      ],
      "payable": false,
      "stateMutability": "view",
      "type": "function"
    },
    {
      "constant": true,
      "inputs": [],
      "name": "mTokenAddress",
      "outputs": [
        {
          "name": "",
          "type": "address"
        }
      ],
      "payable": false,
      "stateMutability": "view",
      "type": "function"
    },
    {
      "inputs": [
        {
          "name": "_tokenAddress",
          "type": "address"
        },
        {
          "name": "_fundAddress",
          "type": "address"
        },
        {
          "name": "_vestingTokensAddress",
          "type": "address"
        },
        {
          "name": "_membersAddress",
          "type": "address"
        }
      ],
      "payable": false,
      "stateMutability": "nonpayable",
      "type": "constructor"
    },
    {
      "payable": true,
      "stateMutability": "payable",
      "type": "fallback"
    },
    {
      "anonymous": false,
      "inputs": [
        {
          "indexed": true,
          "name": "vote_account",
          "type": "address"
        },
        {
          "indexed": true,
          "name": "type_",
          "type": "uint8"
        },
        {
          "indexed": true,
          "name": "round",
          "type": "uint8"
        },
        {
          "indexed": false,
          "name": "name",
          "type": "string"
        }
      ],
      "name": "CreateTapVote",
      "type": "event"
    },
    {
      "anonymous": false,
      "inputs": [
        {
          "indexed": true,
          "name": "vote_account",
          "type": "address"
        },
        {
          "indexed": true,
          "name": "type_",
          "type": "uint8"
        },
        {
          "indexed": true,
          "name": "round",
          "type": "uint8"
        },
        {
          "indexed": false,
          "name": "name",
          "type": "string"
        }
      ],
      "name": "CreateRefundVote",
      "type": "event"
    },
    {
      "anonymous": false,
      "inputs": [
        {
          "indexed": true,
          "name": "vote_account",
          "type": "address"
        },
        {
          "indexed": true,
          "name": "type_",
          "type": "uint8"
        },
        {
          "indexed": true,
          "name": "round",
          "type": "uint8"
        },
        {
          "indexed": false,
          "name": "memo",
          "type": "string"
        }
      ],
      "name": "DiscardTapVote",
      "type": "event"
    },
    {
      "anonymous": false,
      "inputs": [
        {
          "indexed": true,
          "name": "vote_account",
          "type": "address"
        },
        {
          "indexed": true,
          "name": "type_",
          "type": "uint8"
        },
        {
          "indexed": true,
          "name": "round",
          "type": "uint8"
        },
        {
          "indexed": false,
          "name": "memo",
          "type": "string"
        }
      ],
      "name": "DiscardRefundVote",
      "type": "event"
    },
    {
      "constant": true,
      "inputs": [
        {
          "name": "_votingAddress",
          "type": "address"
        }
      ],
      "name": "isVoteExist",
      "outputs": [
        {
          "name": "",
          "type": "bool"
        }
      ],
      "payable": false,
      "stateMutability": "view",
      "type": "function"
    },
    {
      "constant": false,
      "inputs": [
        {
          "name": "_votingName",
          "type": "string"
        }
      ],
      "name": "newTapVoting",
      "outputs": [
        {
          "name": "",
          "type": "address"
        }
      ],
      "payable": false,
      "stateMutability": "nonpayable",
      "type": "function"
    },
    {
      "constant": false,
      "inputs": [
        {
          "name": "_votingName",
          "type": "string"
        }
      ],
      "name": "newRefundVoting",
      "outputs": [
        {
          "name": "",
          "type": "address"
        }
      ],
      "payable": false,
      "stateMutability": "nonpayable",
      "type": "function"
    },
    {
      "constant": false,
      "inputs": [
        {
          "name": "_vote_account",
          "type": "address"
        },
        {
          "name": "_memo",
          "type": "string"
        }
      ],
      "name": "destroyVoting",
      "outputs": [
        {
          "name": "",
          "type": "bool"
        }
      ],
      "payable": false,
      "stateMutability": "nonpayable",
      "type": "function"
    },
    {
      "constant": false,
      "inputs": [],
      "name": "refreshRefundVoting",
      "outputs": [
        {
          "name": "",
          "type": "bool"
        }
      ],
      "payable": false,
      "stateMutability": "nonpayable",
      "type": "function"
    }
  ],
  "bytecode": "0x60806040526000600a60166101000a81548160ff02191690831515021790555034801561002b57600080fd5b506040516080806119e5833981018060405281019080805190602001909291908051906020019092919080519060200190929190805190602001909291905050508060008173ffffffffffffffffffffffffffffffffffffffff161415151561009357600080fd5b80600560006101000a81548173ffffffffffffffffffffffffffffffffffffffff021916908373ffffffffffffffffffffffffffffffffffffffff16021790555050600073ffffffffffffffffffffffffffffffffffffffff168473ffffffffffffffffffffffffffffffffffffffff161415151561011157600080fd5b600073ffffffffffffffffffffffffffffffffffffffff168373ffffffffffffffffffffffffffffffffffffffff161415151561014d57600080fd5b600073ffffffffffffffffffffffffffffffffffffffff168173ffffffffffffffffffffffffffffffffffffffff161415151561018957600080fd5b600073ffffffffffffffffffffffffffffffffffffffff168273ffffffffffffffffffffffffffffffffffffffff16141515156101c557600080fd5b83600260006101000a81548173ffffffffffffffffffffffffffffffffffffffff021916908373ffffffffffffffffffffffffffffffffffffffff16021790555082600360006101000a81548173ffffffffffffffffffffffffffffffffffffffff021916908373ffffffffffffffffffffffffffffffffffffffff1602179055506001600a60146101000a81548160ff021916908360ff1602179055506001600a60156101000a81548160ff021916908360ff16021790555081600460006101000a81548173ffffffffffffffffffffffffffffffffffffffff021916908373ffffffffffffffffffffffffffffffffffffffff16021790555050505050611712806102d36000396000f3006080604052600436106100d0576000357c0100000000000000000000000000000000000000000000000000000000900463ffffffff1680630a58dd34146100d25780631566d8c7146101295780631faf088c146101d25780632f54bf6e14610201578063355d76901461025c57806339c2cf8e146102b35780635eca4a701461030e578063919c94f514610369578063b991a5bf146103c4578063bdd4d18d14610465578063d183fb08146104bc578063d9331cdd14610513578063f616c14a1461056a578063fbad8db614610613575b005b3480156100de57600080fd5b506100e761066a565b604051808273ffffffffffffffffffffffffffffffffffffffff1673ffffffffffffffffffffffffffffffffffffffff16815260200191505060405180910390f35b34801561013557600080fd5b50610190600480360381019080803590602001908201803590602001908080601f0160208091040260200160405190810160405280939291908181526020018383808284378201915050505050509192919290505050610690565b604051808273ffffffffffffffffffffffffffffffffffffffff1673ffffffffffffffffffffffffffffffffffffffff16815260200191505060405180910390f35b3480156101de57600080fd5b506101e761076e565b604051808215151515815260200191505060405180910390f35b34801561020d57600080fd5b50610242600480360381019080803573ffffffffffffffffffffffffffffffffffffffff16906020019092919050505061092e565b604051808215151515815260200191505060405180910390f35b34801561026857600080fd5b50610271610a26565b604051808273ffffffffffffffffffffffffffffffffffffffff1673ffffffffffffffffffffffffffffffffffffffff16815260200191505060405180910390f35b3480156102bf57600080fd5b506102f4600480360381019080803573ffffffffffffffffffffffffffffffffffffffff169060200190929190505050610a4c565b604051808215151515815260200191505060405180910390f35b34801561031a57600080fd5b5061034f600480360381019080803573ffffffffffffffffffffffffffffffffffffffff169060200190929190505050610b4d565b604051808215151515815260200191505060405180910390f35b34801561037557600080fd5b506103aa600480360381019080803573ffffffffffffffffffffffffffffffffffffffff169060200190929190505050610c4e565b604051808215151515815260200191505060405180910390f35b3480156103d057600080fd5b5061044b600480360381019080803573ffffffffffffffffffffffffffffffffffffffff169060200190929190803590602001908201803590602001908080601f0160208091040260200160405190810160405280939291908181526020018383808284378201915050505050509192919290505050610ca7565b604051808215151515815260200191505060405180910390f35b34801561047157600080fd5b5061047a61146d565b604051808273ffffffffffffffffffffffffffffffffffffffff1673ffffffffffffffffffffffffffffffffffffffff16815260200191505060405180910390f35b3480156104c857600080fd5b506104d1611493565b604051808273ffffffffffffffffffffffffffffffffffffffff1673ffffffffffffffffffffffffffffffffffffffff16815260200191505060405180910390f35b34801561051f57600080fd5b506105286114b9565b604051808273ffffffffffffffffffffffffffffffffffffffff1673ffffffffffffffffffffffffffffffffffffffff16815260200191505060405180910390f35b34801561057657600080fd5b506105d1600480360381019080803590602001908201803590602001908080601f01602080910402602001604051908101604052809392919081815260200183838082843782019150505050505091929192905050506114de565b604051808273ffffffffffffffffffffffffffffffffffffffff1673ffffffffffffffffffffffffffffffffffffffff16815260200191505060405180910390f35b34801561061f57600080fd5b506106286116c0565b604051808273ffffffffffffffffffffffffffffffffffffffff1673ffffffffffffffffffffffffffffffffffffffff16815260200191505060405180910390f35b600360009054906101000a900473ffffffffffffffffffffffffffffffffffffffff1681565b600080600260009054906101000a900473ffffffffffffffffffffffffffffffffffffffff1673ffffffffffffffffffffffffffffffffffffffff16141515156106d957600080fd5b6000600360009054906101000a900473ffffffffffffffffffffffffffffffffffffffff1673ffffffffffffffffffffffffffffffffffffffff161415151561072157600080fd5b6000600460009054906101000a900473ffffffffffffffffffffffffffffffffffffffff1673ffffffffffffffffffffffffffffffffffffffff161415151561076957600080fd5b919050565b600080600260009054906101000a900473ffffffffffffffffffffffffffffffffffffffff1673ffffffffffffffffffffffffffffffffffffffff16141515156107b757600080fd5b6000600360009054906101000a900473ffffffffffffffffffffffffffffffffffffffff1673ffffffffffffffffffffffffffffffffffffffff16141515156107ff57600080fd5b6000600460009054906101000a900473ffffffffffffffffffffffffffffffffffffffff1673ffffffffffffffffffffffffffffffffffffffff161415151561084757600080fd5b6108a8600160009054906101000a900473ffffffffffffffffffffffffffffffffffffffff166040805190810160405280601e81526020017f726566726573682062792072656672657368526566756e64566f74696e670000815250610ca7565b506108e76040805190810160405280600d81526020017f726566756e6420766f74696e6700000000000000000000000000000000000000815250610690565b600160006101000a81548173ffffffffffffffffffffffffffffffffffffffff021916908373ffffffffffffffffffffffffffffffffffffffff1602179055506001905090565b6000600560009054906101000a900473ffffffffffffffffffffffffffffffffffffffff1673ffffffffffffffffffffffffffffffffffffffff16638da5cb5b6040518163ffffffff167c0100000000000000000000000000000000000000000000000000000000028152600401602060405180830381600087803b1580156109b657600080fd5b505af11580156109ca573d6000803e3d6000fd5b505050506040513d60208110156109e057600080fd5b810190808051906020019092919050505073ffffffffffffffffffffffffffffffffffffffff168273ffffffffffffffffffffffffffffffffffffffff16149050919050565b600160009054906101000a900473ffffffffffffffffffffffffffffffffffffffff1681565b6000600560009054906101000a900473ffffffffffffffffffffffffffffffffffffffff1673ffffffffffffffffffffffffffffffffffffffff166339c2cf8e836040518263ffffffff167c0100000000000000000000000000000000000000000000000000000000028152600401808273ffffffffffffffffffffffffffffffffffffffff1673ffffffffffffffffffffffffffffffffffffffff168152602001915050602060405180830381600087803b158015610b0b57600080fd5b505af1158015610b1f573d6000803e3d6000fd5b505050506040513d6020811015610b3557600080fd5b81019080805190602001909291905050509050919050565b6000600560009054906101000a900473ffffffffffffffffffffffffffffffffffffffff1673ffffffffffffffffffffffffffffffffffffffff16635eca4a70836040518263ffffffff167c0100000000000000000000000000000000000000000000000000000000028152600401808273ffffffffffffffffffffffffffffffffffffffff1673ffffffffffffffffffffffffffffffffffffffff168152602001915050602060405180830381600087803b158015610c0c57600080fd5b505af1158015610c20573d6000803e3d6000fd5b505050506040513d6020811015610c3657600080fd5b81019080805190602001909291905050509050919050565b6000600660008373ffffffffffffffffffffffffffffffffffffffff1673ffffffffffffffffffffffffffffffffffffffff16815260200190815260200160002060000160029054906101000a900460ff169050919050565b600080600260009054906101000a900473ffffffffffffffffffffffffffffffffffffffff1673ffffffffffffffffffffffffffffffffffffffff1614151515610cf057600080fd5b6000600360009054906101000a900473ffffffffffffffffffffffffffffffffffffffff1673ffffffffffffffffffffffffffffffffffffffff1614151515610d3857600080fd5b6000600460009054906101000a900473ffffffffffffffffffffffffffffffffffffffff1673ffffffffffffffffffffffffffffffffffffffff1614151515610d8057600080fd5b610d8983610c4e565b1515610d9457600080fd5b60016002811115610da157fe5b600660008573ffffffffffffffffffffffffffffffffffffffff1673ffffffffffffffffffffffffffffffffffffffff16815260200190815260200160002060000160009054906101000a900460ff166002811115610dfc57fe5b14156110a5578273ffffffffffffffffffffffffffffffffffffffff16600860009054906101000a900473ffffffffffffffffffffffffffffffffffffffff1673ffffffffffffffffffffffffffffffffffffffff16141515610e5e57600080fd5b600860009054906101000a900473ffffffffffffffffffffffffffffffffffffffff1673ffffffffffffffffffffffffffffffffffffffff1663bb702c8e6040518163ffffffff167c0100000000000000000000000000000000000000000000000000000000028152600401602060405180830381600087803b158015610ee457600080fd5b505af1158015610ef8573d6000803e3d6000fd5b505050506040513d6020811015610f0e57600080fd5b81019080805190602001909291905050501515610f2a57600080fd5b600660008473ffffffffffffffffffffffffffffffffffffffff1673ffffffffffffffffffffffffffffffffffffffff16815260200190815260200160002060000160019054906101000a900460ff1660ff1660016002811115610f8a57fe5b8473ffffffffffffffffffffffffffffffffffffffff167f34ab6e317b84b1b2655ba04ca6107cd5f889fd849d4ff9006e21efc7827ae503856040518080602001828103825283818151815260200191508051906020019080838360005b83811015611003578082015181840152602081019050610fe8565b50505050905090810190601f1680156110305780820380516001836020036101000a031916815260200191505b509250505060405180910390a4600a60009054906101000a900473ffffffffffffffffffffffffffffffffffffffff16600860006101000a81548173ffffffffffffffffffffffffffffffffffffffff021916908373ffffffffffffffffffffffffffffffffffffffff160217905550611463565b6002808111156110b157fe5b600660008573ffffffffffffffffffffffffffffffffffffffff1673ffffffffffffffffffffffffffffffffffffffff16815260200190815260200160002060000160009054906101000a900460ff16600281111561110c57fe5b14801561112c575060011515600a60169054906101000a900460ff161515145b156113ee578273ffffffffffffffffffffffffffffffffffffffff16600760009054906101000a900473ffffffffffffffffffffffffffffffffffffffff1673ffffffffffffffffffffffffffffffffffffffff1614151561118d57600080fd5b600760009054906101000a900473ffffffffffffffffffffffffffffffffffffffff1673ffffffffffffffffffffffffffffffffffffffff1663bb702c8e6040518163ffffffff167c0100000000000000000000000000000000000000000000000000000000028152600401602060405180830381600087803b15801561121357600080fd5b505af1158015611227573d6000803e3d6000fd5b505050506040513d602081101561123d57600080fd5b8101908080519060200190929190505050151561125957600080fd5b600660008473ffffffffffffffffffffffffffffffffffffffff1673ffffffffffffffffffffffffffffffffffffffff16815260200190815260200160002060000160019054906101000a900460ff1660ff166002808111156112b857fe5b8473ffffffffffffffffffffffffffffffffffffffff167fdf1e4fb2d1da84ab4dc0e27bc315bbae10d20db060f057043a81491df76b878c856040518080602001828103825283818151815260200191508051906020019080838360005b83811015611331578082015181840152602081019050611316565b50505050905090810190601f16801561135e5780820380516001836020036101000a031916815260200191505b509250505060405180910390a4600960009054906101000a900473ffffffffffffffffffffffffffffffffffffffff16600760006101000a81548173ffffffffffffffffffffffffffffffffffffffff021916908373ffffffffffffffffffffffffffffffffffffffff1602179055506000600a60166101000a81548160ff021916908315150217905550611462565b600060028111156113fb57fe5b600660008573ffffffffffffffffffffffffffffffffffffffff1673ffffffffffffffffffffffffffffffffffffffff16815260200190815260200160002060000160009054906101000a900460ff16600281111561145657fe5b141561146157600080fd5b5b5b6001905092915050565b600560009054906101000a900473ffffffffffffffffffffffffffffffffffffffff1681565b600460009054906101000a900473ffffffffffffffffffffffffffffffffffffffff1681565b6000809054906101000a900473ffffffffffffffffffffffffffffffffffffffff1681565b6000600560009054906101000a900473ffffffffffffffffffffffffffffffffffffffff1673ffffffffffffffffffffffffffffffffffffffff16635eca4a70336040518263ffffffff167c0100000000000000000000000000000000000000000000000000000000028152600401808273ffffffffffffffffffffffffffffffffffffffff1673ffffffffffffffffffffffffffffffffffffffff168152602001915050602060405180830381600087803b15801561159d57600080fd5b505af11580156115b1573d6000803e3d6000fd5b505050506040513d60208110156115c757600080fd5b810190808051906020019092919050505015156115e357600080fd5b6000600260009054906101000a900473ffffffffffffffffffffffffffffffffffffffff1673ffffffffffffffffffffffffffffffffffffffff161415151561162b57600080fd5b6000600360009054906101000a900473ffffffffffffffffffffffffffffffffffffffff1673ffffffffffffffffffffffffffffffffffffffff161415151561167357600080fd5b6000600460009054906101000a900473ffffffffffffffffffffffffffffffffffffffff1673ffffffffffffffffffffffffffffffffffffffff16141515156116bb57600080fd5b919050565b600260009054906101000a900473ffffffffffffffffffffffffffffffffffffffff16815600a165627a7a723058209fb678dae8f43bae5df6e370d82d1387b8cb71a7fcbd47487fed408394001a550029",
  "source": "/*\n * VotingFactory.sol is used for creating new voting instance.\n */\npragma solidity ^0.4.23;\n\nimport \"./TapVoting.sol\";\nimport \"./RefundVoting.sol\";\nimport \"./IVotingFactory.sol\";\nimport \"../ownership/Ownable.sol\";\nimport \"../lib/Param.sol\";\n\ncontract VotingFactory is IVotingFactory, Ownable, Param {\n\n    /* Typedefs */\n    struct VoteInfo {\n        VOTE_TYPE voteType;\n        uint8 round;\n        bool isExist;\n    }\n\n    /* Global Variables */\n    mapping(address => VoteInfo) mVoteList; // {vote name => {voteAddress, voteType}}\n    TapVoting mTapVoting;\n    RefundVoting mRefundVoting;\n    TapVoting NULL_TapVoting;\n    RefundVoting NULL_RefundVoting;\n    uint8 mTapRound;\n    uint8 mRefundRound;\n\n    bool switch__isTapVotingOpened = false;\n\n\n\n    /* Modifiers */\n    modifier allset() {\n        require(mTokenAddress != 0x0);\n        require(mFundAddress != 0x0);\n        require(mVestingTokensAddress != 0x0);\n        _;\n    }\n\n    /* Constructor */\n    //call when Crowdsale finished\n    constructor(\n        address _tokenAddress,\n        address _fundAddress,\n        address _vestingTokensAddress,\n        address _membersAddress\n        ) public\n        Ownable(_membersAddress) {\n            require(_tokenAddress != address(0));\n            require(_fundAddress != address(0));\n            require(_membersAddress != address(0));\n            require(_vestingTokensAddress != address(0));\n\n            mTokenAddress =_tokenAddress;\n            mFundAddress = _fundAddress;\n            mTapRound = 1;\n            mRefundRound = 1;\n            mVestingTokensAddress = _vestingTokensAddress;\n    }\n    // function initialize() public\n    //     onlyDevelopers{\n    //         NULL_TapVoting = new TapVoting(\"null\", 0x1, 0x1, 0x1, address(members));\n    //         NULL_RefundVoting = new RefundVoting(\"null\", 0x1, 0x1, 0x1, address(members));\n    // }\n\n    /* Fallback Function */\n    function () external payable {}\n\n    function isVoteExist(address _votingAddress) view public\n        returns(bool) {\n            return mVoteList[_votingAddress].isExist;\n    }\n\n    //TODO: chop it\n    function newTapVoting(string _votingName) public\n        onlyDevelopers\n        allset\n        returns(address) {\n            // require(!switch__isTapVotingOpened);// \"other tap voting is already exists.\"\n\n            // mTapVoting = new TapVoting(_votingName, mTokenAddress, mFundAddress, mVestingTokensAddress, address(members));\n            // if(address(mTapVoting) == 0x0) { revert(); }//\"Tap voting has not created.\"\n            // switch__isTapVotingOpened = true;\n            // emit CreateTapVote(address(mTapVoting), VOTE_TYPE.TAP, mTapRound, _votingName);\n            // mTapRound++;\n            // mTapVotingAddress = address(mTapVoting);\n            // return mTapVotingAddress;\n    }\n\n    function newRefundVoting(string _votingName) public\n        allset\n        returns(address) {\n\n            // if(address(mRefundVoting) == address(0)) { // first time of creating refund vote\n            //     mRefundVoting = new RefundVoting(_votingName, mTokenAddress, mFundAddress, mVestingTokensAddress, address(members));\n            //     emit CreateRefundVote(address(mRefundVoting), VOTE_TYPE.REFUND, mRefundRound, _votingName);\n            //     mRefundRound++;\n            //     return address(mRefundVoting);\n            // }\n            // else { // more than once\n            //     require(mRefundVoting.isDiscarded());// \"prev refund voting has not discarded yet.\"\n\n            //     mRefundVoting = new RefundVoting(_votingName, mTokenAddress, mFundAddress, mVestingTokensAddress, address(members));\n            //     if(address(mRefundVoting) == 0x0) { revert(); }//\"Refund voting has not created.\"\n            //     emit CreateRefundVote(address(mRefundVoting), VOTE_TYPE.REFUND, mRefundRound, _votingName);\n            //     mRefundRound++;\n            //     return address(mRefundVoting);\n            // }\n    }\n\n    //TODO: chop the destroyVoting into Tap and Refund voting\n    function destroyVoting(\n        address _vote_account,\n        string _memo) public\n        allset\n        returns(bool) {\n            require(isVoteExist(_vote_account));\n\n            if(mVoteList[_vote_account].voteType == VOTE_TYPE.REFUND) { // Refund Voting Destroying\n                if(address(mRefundVoting) != _vote_account) { revert(); }//\"input voting address and current address are not equal.\"\n                if(!mRefundVoting.discard()) { revert(); }//\"This refund voting cannot be discarded.\"\n                emit DiscardRefundVote(_vote_account, VOTE_TYPE.REFUND, mVoteList[_vote_account].round, _memo); // TODO: _vote_name is not in mVoteList.\n                mRefundVoting = NULL_RefundVoting; // FIXIT: how to initialize NULL\n\n            }\n            else if(mVoteList[_vote_account].voteType == VOTE_TYPE.TAP && switch__isTapVotingOpened == true) {\n                if(address(mTapVoting) != _vote_account) { revert(); }//\"input voting address and current address are not equal.\"\n                if(!mTapVoting.discard()) { revert(); }//\"This tap voting cannot be discarded.\"\n                emit DiscardTapVote(_vote_account, VOTE_TYPE.TAP, mVoteList[_vote_account].round, _memo);\n                mTapVoting = NULL_TapVoting; // FIXIT: how to initialize NULL\n                switch__isTapVotingOpened = false;\n            }\n            else if(mVoteList[_vote_account].voteType == VOTE_TYPE.NONE) {\n                revert();//\"invalid vote account.\"\n            }\n            return true;\n    }\n\n    function refreshRefundVoting() public\n        allset\n        returns(bool) {\n            destroyVoting(mRefundVotingAddress, \"refresh by refreshRefundVoting\");\n            mRefundVotingAddress = newRefundVoting(\"refund voting\");\n            return true;\n    }\n}\n",
  "sourcePath": "/Users/pyo/blockchain/ICO2.0/contracts/vote/VotingFactory.sol",
  "compiler": {
    "name": "solc",
    "version": "0.4.23+commit.124ca40d.Emscripten.clang"
  },
  "schemaVersion": "2.0.0",
  "updatedAt": "2018-05-22T12:40:37.721Z"
}